:020000041000EA
:1000000000B5324B212058609868022188439860DF
:10001000D860186158612E4B002199600221596106
:100020000121F02299502B49196001219960352056
:1000300000F044F80222904214D00621196600F024
:1000400034F8196E01211966002018661A6600F04E
:100050002CF8196E196E196E052000F02FF8012189
:100060000842F9D1002199601B49196000215960AB
:100070001A491B48016001219960EB211966A021F2
:10008000196600F012F800219960164914480160C1
:100090000121996001BC002800D000471248134993
:1000A000086003C880F30888084703B5996A0420EC
:1000B0000142FBD001200142F8D103BD02B5186610
:1000C0001866FFF7F2FF186E186E02BD00000240BE
:1000D000000000180000070000035F00212200005C
:1000E000F4000018222000A00001001008ED00E03C
:1000F00000000000000000000000000074B24E7A12
:1001000000200420F7010010C3010010C5010010F9
:10011000C1010010C1010010C1010010C101001097
:10012000C1010010C1010010C1010010C701001081
:10013000C1010010C1010010C9010010CB01001065
:10014000CD010010CD010010CD010010CD01001037
:10015000CD010010CD010010CD010010CD01001027
:10016000CD010010CD010010CD010010CD01001017
:10017000CD010010CD010010CD010010CD01001007
:10018000CD010010CD010010CD010010CD010010F7
:10019000CD010010CD010010CD010010CD010010E7
:1001A000CD010010CD010010CD010010CD010010D7
:1001B000CD010010CD010010CD010010CD010010C7
:1001C00000BE00BE00BE00BE00BE00BEEFF3058054
:1001D000103800BEF2EB8871408400106C8400106F
:1001E0003402001090A31AE700201F49086006C8D7
:1001F00081F3088810471D48006800282FD10DA4FE
:100200000ECC002902D000F012F8F9E71849194A7B
:10021000002000E001C19142FCD1174988471749ED
:1002200088471749884700BEFDE701C901C29A42C5
:10023000FBD370476C840010C000002060100020C9
:100240000C94001000000420000004200C94001006
:10025000001004200010042000000000704709482E
:1002600004F0DAF90047000008ED00E0000000D0DB
:1002700060100020E81D0020092E0010150F00104E
:10028000012F00105756000006005250ABB36053C8
:100290002482001006005250861C03023482001093
:1002A000060052505422A29D408200100500525078
:1002B000DE65F4680C940010F8B5C0460448054BA0
:1002C00010B5834203D0044B002B00D0984710BDDB
:1002D0006010002060100020000000000648074960
:1002E000091A8910CB0F591810B5491003D0044BC7
:1002F000002B00D0984710BD601000206010002037
:100300000000000010B5074C2378002B09D1FFF73F
:10031000D5FF054B002B02D0044800E000BF0123AD
:10032000237010BD6811002000000000707E0010D6
:10033000054B10B5002B03D00449054800E000BF71
:10034000FFF7CCFF10BDC046000000006C1100207C
:10035000707E0010F0B54E46DE4657464546E0B585
:1003600083B06B46D91C002399460B70C046C0462B
:10037000C046D02480252406ED01A561C046C046B4
:10038000C046C14B01229846180007F039FD01AE66
:100390001920002101F0D6FD012332000021404642
:1003A00007F0EEFCC046C046C0466561C046C04688
:1003B000C0461920002101F0C5FD4B4633706B4645
:1003C0009F1C20233B70C046C046C046A561C04666
:1003D000C046C04601223900404607F011FD1920F1
:1003E000002101F0AFFD01223100404607F008FD79
:1003F000C046C046C0466561C046C046C0461920DA
:10040000002101F09FFD3F2333701E3B3B70C0462F
:10041000C046C046A561C046C046C046012239005C
:10042000404607F0EDFC1920002101F08BFD012270
:100430003100404607F0E4FCC046C046C046656156
:10044000C046C046C0461920002101F07BFD0322B2
:100450002223924632703B70C046C046C046A5611A
:10046000C046C046C046023A3900404607F0C8FCC4
:100470001920002101F066FD01223100404607F0FD
:10048000BFFCC046C046C0466561C046C046C046C7
:100490001920002101F056FD5246232332703B7093
:1004A000C046C046C046A561C046C046C046023AE6
:1004B0003900404607F0A4FC1920002101F042FD5C
:1004C00001223100404607F09BFCC046C046C046B2
:1004D0006561C046C046C0461920002101F032FDCA
:1004E0004A46242332703B70C046C046C046A561D0
:1004F000C046C046C04601323900404607F080FC85
:100500001920002101F01EFD01223100404607F0B4
:1005100077FCC046C046C0466561C046C046C0467E
:100520001920002101F00EFD0123337024333B70AC
:10053000C046C046C046A561C046C046C04601226E
:100540003900404607F05CFC1920002101F0FAFC5C
:1005500001223100404607F053FCC046C046C04669
:100560006561C046C046C0461920002101F0EAFC82
:100570000F222623924632703B70C046C046C046CA
:10058000A561C046C046C0460E3A3900404607F055
:1005900037FC1920002101F0D5FC01223100404632
:1005A00007F02EFCC046C046C0466561C046C04646
:1005B000C0461920002101F0C5FC0E233370193309
:1005C0003B70C046C046C046A561C046C046C04656
:1005D00001223900404607F013FC1920002101F0E8
:1005E000B1FC01223100404607F00AFCC046C0467B
:1005F000C0466561C046C046C0461920002101F0D2
:10060000A1FC4A46282332703B70C046C046C04613
:10061000A561C046C046C04601323900404607F0D9
:10062000EFFB1920002101F08DFC01223100404632
:1006300007F0E6FBC046C046C0466561C046C046FE
:10064000C0461920002101F07DFC4A462923327062
:100650003B70C046C046C046A561C046C046C046C5
:1006600001323900404607F0CBFB1920002101F090
:1006700069FC01223100404607F0C2FBC046C0467B
:10068000C046656102E0C04600C00340C046C046A7
:10069000C0461920002101F055FCD2222A2393469E
:1006A00032703B70C046C046C046A561C046C046D9
:1006B000C046D13A3900404607F0A2FB192000217C
:1006C00001F040FC01223100404607F099FBC04692
:1006D000C046C0466561C046C046C04619200021DC
:1006E00001F030FCE1233370B63B3B70C046C0469E
:1006F000C046A561C046C046C046012239004046FA
:1007000007F07EFB1920002101F01CFC01223100C2
:10071000404607F075FBC046C046C0466561C0460E
:10072000C046C0461920002101F00CFCC3233370E1
:10073000973B3B70C046C046C046A561C046C04618
:10074000C04601223900404607F05AFB192000211B
:1007500001F0F8FB01223100404607F051FBC04692
:10076000C046C0466561C046C046C046192000214B
:1007700001F0E8FBC4233370973B3B70C046C04692
:10078000C046A561C046C046C04601223900404669
:1007900007F036FB1920002101F0D4FB01223100C3
:1007A000404607F02DFBC046C046C0466561C046C6
:1007B000C046C0461920002101F0C4FBC523337098
:1007C000973B3B70C046C046C046A561C046C04688
:1007D000C04601223900404607F012FB19200021D3
:1007E00001F0B0FB01223100404607F009FBC04692
:1007F000C046C0466561C046C046C04619200021BB
:1008000001F0A0FBC6233370973B3B70C046C04647
:10081000C046A561C046C046C046012239004046D8
:1008200007F0EEFA1920002101F08CFB01223100C3
:10083000404607F0E5FAC046C046C0466561C0467E
:10084000C046C0461920002101F07CFB5A463023E7
:1008500032703B70C046C046C046A561C046C04627
:10086000C046D13A3900404607F0CAFA19200021A3
:1008700001F068FB01223100404607F0C1FAC04692
:10088000C046C0466561C046C046C046192000212A
:1008900001F058FB06223123934632703B70C0466C
:1008A000C046C046A561C046C046C046053A3900AC
:1008B000404607F0A5FA1920002101F043FB012270
:1008C0003100404607F09CFAC046C046C04665610C
:1008D000C046C046C0461920002101F033FB5A46ED
:1008E000322332703B70C046C046C046A561C04648
:1008F000C046C046053A3900404607F081FA192043
:10090000002101F01FFB01223100404607F078FA78
:10091000C046C046C0466561C046C046C0461920B4
:10092000002101F00FFB4A46332332703B70C04672
:10093000C046C046A561C046C046C0460132390027
:10094000404607F05DFA1920002101F0FBFA012270
:100950003100404607F054FAC046C046C0466561C3
:10096000C046C046C0461920002101F0EBFA4A46B5
:10097000342332703B70C046C046C046A561C046B5
:10098000C046C04601323900404607F039FA192006
:10099000002101F0D7FA01223100404607F030FA79
:1009A000C046C046C0466561C046C046C046192024
:1009B000002101F0C7FA4A46352332703B70C04629
:1009C000C046C046A561C046C046C0460132390097
:1009D000404607F015FA1920002101F0B3FA012270
:1009E0003100404607F00CFAC046C046C04665617B
:1009F000C046C046C0461920002101F0A3FA4A466D
:100A0000362332703B70C046C046C046A561C04622
:100A1000C046C04601323900404607F0F1F91920BE
:100A2000002101F08FFA01223100404607F0E8F979
:100A3000C046C046C0466561C046C046C046192093
:100A4000002101F07FFA1123337026333B70C0463A
:100A5000C046C046A561C046C046C0460122390016
:100A6000404607F0CDF91920002101F06BFA012270
:100A70003100404607F0C4F9C046C046C046656133
:100A8000C046C046C0461920002101F05BFA4A4624
:100A90003C2332703B70C046C046C046A561C0468C
:100AA000C046C04601323900404607F0A9F9192076
:100AB000002101F047FA01223100404607F0A0F979
:100AC000C046C046C0466561C046C046C046192003
:100AD000002101F037FA4A463D2332703B70C04690
:100AE000C046C046A561C046C046C0460132390076
:100AF000404607F085F91920002101F023FA012270
:100B00003100404607F07CF9C046C046C0466561EA
:100B1000C046C046C0461920002101F013FA5246D3
:100B2000202332703B70C046C046C046A561C04617
:100B3000C046C0460E3A3900404607F061F9192018
:100B4000002101F0FFF901223100404607F058F979
:100B5000C046C046C0466561C046C046C046192072
:100B6000002101F0EFF90548002101F0EBF903B095
:100B70003CBC90469946A246AB46F0BDDC05000061
:100B8000F0B5C64600B582B0C046C046C046D027C4
:100B900080233F06DB019846BB61C046C046C04685
:100BA0006B46DC1D30231C4D237021002F3B00229F
:100BB000280007F02DF9D223F02623702100D13B25
:100BC0000022280007F024F9210001230022280038
:100BD000267007F01DF9210001230022280026704D
:100BE00007F016F92100012300222800267007F0E3
:100BF0000FF90123002221002800267007F008F9D0
:100C0000C046C046C04643467B61C046C046C0465B
:100C100002B004BC9046F0BD00C00340F0B5C6462B
:100C200000B582B0C046C046C046D02780233F06EC
:100C3000DB019846BB61C046C046C0466B46DC1D22
:100C40002A231C4D23702100293B0022280007F095
:100C5000DFF8D223F02623702100D13B00222800A8
:100C600007F0D6F82100012300222800267007F0A3
:100C7000CFF82100012300222800267007F0C8F8D1
:100C80002100012300222800267007F0C1F801236B
:100C9000002221002800267007F0BAF8C046C0469E
:100CA000C04643467B61C046C046C04602B004BC55
:100CB0009046F0BD00C00340F0B5C64600B582B016
:100CC000C046C046C046D02780233F06DB01984679
:100CD000BB61C046C046C0466B46DC1D2B231C4D85
:100CE000237021002A3B0022280007F091F8E1231D
:100CF000F02623702100E03B0022280007F088F84E
:100D00002100012300222800267007F081F821002D
:100D1000012300222800267007F07AF82100012321
:100D200000222800267007F073F80123002221001A
:100D30002800267007F06CF8C046C046C0464346FF
:100D40007B61C046C046C04602B004BC9046F0BDC0
:100D500000C00340F0B583B0FFF712FFFFF75EFF5E
:100D60006B46DF1D03233B706B46991D23230B70DD
:100D7000C046C046C046D02480252406ED01A561AA
:100D8000C046C046C0460D4E0122300007F038F87C
:100D90001920002101F0D6F801223900300007F0B7
:100DA0002FF8C046C046C0466561C046C046C04632
:100DB0001920002101F0C6F803B0F0BD00C00340C7
:100DC000F0B5CE46474680B583B0FFF775FF6B465A
:100DD000DD1DE2234E4E2B700022E13B2900300046
:100DE00007F016F8C046C046C046D024802324062B
:100DF0009B0298466361C046C046C0460F20002152
:100E000001F0A0F8C046C046C0464346A361C046B4
:100E1000C046C046E12300222B702900E03B300091
:100E200006F0F6FFC046C046C04643466361C04672
:100E3000C046C0460F20002101F084F8C046C046DD
:100E4000C0464346A361C046C046C0460F232B7030
:100E50006B469F1D20233B70C046C046C046802382
:100E6000DB019946A361C046C046C0460122390055
:100E7000300006F0C5FF1920002101F063F80122BF
:100E80002900300006F0BCFFC046C046C0464B46B5
:100E90006361C046C046C0461920002101F052F8E7
:100EA0000E232B7019333B70C046C046C0464B46DC
:100EB000A361C046C046C04601223900300006F09A
:100EC0009FFF1920002101F03DF801222900300088
:100ED00006F096FFC046C046C0464B466361C0461A
:100EE000C046C0461920002101F02CF8C046C0467B
:100EF000C04643466361C046C046C04687200021C5
:100F000001F020F803B00CBC90469946F0BDC046F5
:100F100000C00340F0B5DE4657464E464546E0B5B4
:100F200087B004F0ABFC02E00A2001F075F8002065
:100F300006F098F80028F7D0D0248026924804F0D4
:100F400013FC9249924806F061FE0121042000F052
:100F500033F90121062000F02FF90121072000F0CC
:100F60002BF924060E20F60100F03EF966621120EE
:100F7000666100F039F980239B0263621920A36146
:100F800000F032F980239B046362642001F044F88E
:100F9000FFF7E0F9FFF7DEFEFFF78EFEFFF710FF29
:100FA00004AB05AD5F1C00239846424604AB9A7023
:100FB000C046C046C046A661C046C046C0460122E3
:100FC000991C734806F01CFF1920002100F0BAFF9D
:100FD00001232A0000216E4806F0D2FEC046C0461A
:100FE000C0466661C046C046C0461920002100F0D8
:100FF000A9FF17233B70C046C046C046A661C04645
:10100000C046C04601223900614806F0F9FE1920A9
:10101000002100F097FF01232A0000215C4806F020
:10102000AFFEC046C046C0466661C046C046C04628
:101030001920002100F086FF059BDB07B5D4554839
:1010400004F092FB544BDB685B0702D5534804F075
:101050008BFBC046C046C046A661C046C046C046DF
:10106000612329002B700022603B494806F0D0FE26
:101070002A0001230221464806F082FE059B2A0031
:101080009A4602210123424806F07AFE059B2A0077
:101090000393022101233E4806F072FE059A0123C4
:1010A000029202212A003A4806F06AFE05982A00B8
:1010B000019001230221364806F062FE059B2A00BA
:1010C000994602210123324806F05AFE059B9B46B1
:1010D000C046C046C0466661C046C046C0460A20FB
:1010E00000F09AFFFF2398465346424613401900EA
:1010F0002B4804F0B7FB434603992A48194004F0F3
:10110000B1FB434602992848194004F0ABFB434623
:1011100001992648194004F0A5FB43464946244856
:10112000194004F09FFB434659462248194004F0F9
:1011300099FB402304AA2B70193BD370C046C046CC
:10114000C046A661C046C046C04604ABD91C0122B9
:101150000F4806F055FE1920002100F0F3FE012291
:1011600029000B4806F04CFEC046C046C0466661EA
:10117000C046C046C0461920002100F0E3FE012011
:1011800000F04AFF0FE7C046907E0010A0860100E5
:1011900000C00340AC7E001000000440BC7E001084
:1011A000CC7E0010D87E0010E47E0010F07E00108F
:1011B000FC7E0010087F0010094A830094464022FC
:1011C000634410B51C68C0006240C02414408022F3
:1011D000520113431C60034B9C466044416010BDA8
:1011E00004C00140004001400123D0228340120688
:1011F00093629361094A83009446402263441968CC
:10120000C0004A40C021114080225201134319609E
:10121000034B9C46052360444360704704C0014073
:1012200000400140024B18688007C00F7047C0465D
:1012300000C00640F8B5EFF3108772B60D4E336864
:10124000002BFCD0BFF35F8F0725CB08C01801230C
:101250000D40AB401D000478254007D123430370A7
:10126000BFF35F8F356087F31088F8BD100001F081
:101270004BFEC0462C0100D0F8B5CE4647468C4602
:1012800080B5EFF3108872B6214D2C68002CFCD08D
:10129000BFF35F8F9A422CD80721012511408D4062
:1012A000D4080419267835421FD00721894606390B
:1012B00009E04D460F001540AF40D40804192678C8
:1012C0003D00374211D001329342F2D20120404218
:1012D000BFF35F8F00220E4B1A6088F3108800283E
:1012E0000FDB0CBC90469946F8BD354325701000C5
:1012F000EEE7BFF35F8F00232B6088F31088012097
:1013000040426346002BECD0089801F0FDFDC0463A
:101310002C0100D00021044B044ABFF35F8F02C3AD
:101320009342FAD17047C046000100D0800100D03E
:10133000044A1078431CDBB2172B00D9102313701A
:101340007047C046600F002000B5054B83B0010018
:10135000009318221F230348FFF78EFF03B000BD40
:10136000247F00102016002001238340002904D090
:10137000034A1360034A13607047034A1360FBE794
:1013800080E200E000E100E080E100E00123834032
:10139000014A13607047C04600E200E0084B10307D
:1013A0009B688000C358002B07D0064A00209B1A78
:1013B0002F229A424041C0B270470020FCE7C0464D
:1013C00000ED00E0640F0020024B10309B688000AD
:1013D000C058704700ED00E070B50D00EFF31086C7
:1013E00072B60F4A1368002BFCD0BFF35F8F0D4B12
:1013F00010309B6884001B590B4A934203D09D42D6
:1014000001D001F099FD074B9B681D51BFF35F8F21
:10141000BFF35F8F0022024B1A6086F3108870BD05
:10142000240100D000ED00E0CD010010F8B55746D2
:101430004546DE464E468A46E0B590460700EFF345
:10144000108972B65F4A1368002BFCD0BFF35F8F20
:1014500000205D4B18569B46002800DAA2E05A4651
:1014600044005A4D2418A4002E19B3791037137074
:10147000574BBA009B68934699584B1B2F2B41D86A
:1014800001230A009A43D3799446434514D9062789
:10149000D7571300002F06DA8DE00627DF571A0012
:1014A000002F00DA87E07B00DB199B00EB18DF7967
:1014B0004745F2D8002A51D1464A63465B1B5B413F
:1014C0005A43120D444BA11C3380444B6918043B12
:1014D0005B1A1B0542495B0D0B4373806346043462
:1014E000043B2D195D1B43462D05F3716D0D5346CD
:1014F0002943B180B27101216246B360394B314357
:10150000136018E0384B994252D1334B0234338088
:10151000324B2D19043B5D1B2D05314B6D0D1D43C9
:10152000324B0121B380FF23B3714346F37153461D
:101530007580B36031435A46254B9B689950BFF381
:101540005F8FBFF35F8F00221E4B1A6089F31088F4
:101550003CBC90469946A246AB46F8BD0627D757F5
:10156000131D9C46002F2BDB04342D19E024938897
:1015700024025B051B1563445B1B1B055B0D2343AA
:101580006546341F641B2405154D640D2C4394805F
:101590009071B3804346F3715346124AB77132607B
:1015A000B360C8E701F0C8FC5B460020185656E758
:1015B00001F0C2FCA9E71A1D94461A000C4BDFE7A4
:1015C0000B4BDDE7240100D0211B0020640F00201D
:1015D00000ED00E0AAAA000000A1FFFF940F002088
:1015E00000E0FFFF01488047CD01001001BDFFFF73
:1015F00001BD0000F0B54546DE4657464E46E0B513
:101600000D0083B0EFF3108972B6584A1368002BAF
:10161000FCD0BFF35F8F564B9A68030010339F00D6
:10162000D459544A9046944234D0AC4245D0524E9C
:10163000A21B2F2A2ED801228240924651464F4AA1
:1016400012681140019151464D4A1160BFF35F8FFE
:10165000EFF305829346002A35D1012322000621AB
:101660009A43936851569D420AD16AE04B005B1839
:1016700006219B00F31898685956A84228D01A00F2
:101680000029F3DA019B002B19D052463D4B1A601A
:101690003A4B1A60364B9B68DC51BFF35F8FBFF348
:1016A0005F8F0022314B1A6089F3108803B03CBC75
:1016B00090469946A246AB46F0BD1400EAE7524672
:1016C0002F4B1A60E6E79342C7D001F035FCC4E720
:1016D000002921DB4A005018800035188046A86890
:1016E0009860E879D871062028569871002826DB82
:1016F000AD88F01A6D052D1545444019E02500050B
:10170000400D2D022843988052181F4B9200B618A6
:101710001A781970B271B5E75946002917D1002A15
:1017200022D0FF3191711949918017490A789A7135
:10173000174A9B1B5B415A43120D0A70A2E71548DA
:10174000E1E713000029C5DA5A46002A0CD0124AF4
:101750001249D21A083A5002400D014399801049AB
:1017600052080A43DA808DE74446DEE7240100D0C0
:1017700000ED00E0CD010010640F002000E100E06A
:1017800080E100E080E200E0211B002001BDFFFFBE
:10179000AAAA000001BD00009E0F002000F0FFFF7C
:1017A00000F8FFFFF0B5EFF3058101240443EFF3E8
:1017B000108672B6214A1368002BFCD0BFF35F8FEE
:1017C0001F4B204A0500ED1A6D416A43120D1E4D54
:1017D0008900AF6852B27F58A7421CD006215956E3
:1017E00091421CD012215956914222D01E215956A5
:1017F000914220D02A2159560324914210D0134BF4
:1018000019781A708171BFF35F8F00220B4B1A6039
:1018100086F31088F0BDAB680D4C5C50EFE70024F8
:101820006100091989005B18FF21997109499980A4
:10183000E5E70124F4E70224F2E7C046240100D0E2
:10184000640F0020AAAA000000ED00E0211B002088
:10185000CD01001001BDFFFF054B064A1360064A8B
:10186000136053609360D360136153619361704759
:101870008080808000E400E004E400E000B5074BD5
:1018800083B001000093002205230548FFF7F4FC14
:10189000002801DB1F23181A03B000BD407F001091
:1018A000261B0020024B9C46614489000160704762
:1018B0004000003410B50400FFF73AFD010020009D
:1018C000FFF7F0FFFF232371BFF35F8F10BDC0460A
:1018D00010B50400FFF72CFD01002000FFF7E2FF28
:1018E000FF23A380BFF35F8F10BDC04610B5040077
:1018F0000120FFF729FD044B9C46604480002060D6
:10190000BFF35F8F10BDC04640000034034B9C46C0
:10191000614489000160BFF35F8F7047400000346D
:1019200070B506000D00140000291ED0002A1ED03C
:1019300073688068984763006A001B195219033B5B
:10194000033A3168002808D0CB188A189D701178A6
:1019500000290ED11470280008E08A18CB18947062
:101960001978002900D051701D70200070BD08004A
:10197000FCE7597028001470F8E7C04683680B48EC
:1019800010B5844661446244090112019A1859183D
:1019900054684B6801209C4201D802D00020C0B29C
:1019A00010BD12680B689A42F9D8F7E7FFFFFF0FE6
:1019B0000A4B1968EFF3108072B60A68002AFCD04F
:1019C000BFF35F8F1B68BFF35F8F00221A6080F345
:1019D000108840BF002000217047C046F01A002048
:1019E000F8B54746CE4680B514001D000BAA0AABD9
:1019F00012781B78804691460768002B12D1BE7B77
:101A0000002E44D0720092193968033A8918487838
:101A10003300B873002800D1F87300208870487034
:101A2000087003E01E005A00D218033A1A49380021
:101A30008C464146896863448C461B01089963447F
:101A4000996009991C605D60D9603B689C460023E1
:101A50006244937053701370797B3200FFF760FF1C
:101A60007873B04213D143462200187D2B0000F05A
:101A7000E5FB041E07D04B46002B04D14346310042
:101A8000186800F061FF0C9B002B00D01C70300028
:101A90000CBC90469946F8BDFFFFFF0FF0B5DE463F
:101AA00057464E4645460023E0B58BB00893674B3A
:101AB0008200D45800239B46099000F05DFB6268C9
:101AC000EFF3108572B61368002BFCD0BFF35F8F65
:101AD00023689C465B7B9946002B6CD0A2685C4BCC
:101AE00090464B441B01984443461E685F68320091
:101AF0003B00121A8B41002B67DD32003B00099836
:101B000000F09CFB002300229846002306920793D6
:101B100000239A466368BFF35F8F5A461A6085F3C5
:101B200010885346002B08D10028C6D10BB03CBC0E
:101B300090469946A246AB46F0BD089B4146180226
:101B40004B461843D047626806000F00EFF310853C
:101B500072B61368002BFCD0BFF35F8F002F51DBF0
:101B600033003B4302D02369002B62D12368DA7B28
:101B7000002A07D051008A1819688C4649466244E9
:101B8000033A51709A7B002A01D14A469A734A4619
:101B9000DA73E2684B469446013B63441A7801329B
:101BA0001A705B4623616368BFF35F8F5A461A6001
:101BB00085F3108881E700230022984600230692CF
:101BC0000793002300209A46A4E7002B01D1002AA6
:101BD00093D10021604600F0D5FD43461A685B684A
:101BE0000692079343469B689A464346DB689846AD
:101BF000E3684B44013B1B7808931B0203432361BA
:101C0000002087E72369002BB0D0069A079B921B20
:101C1000BB41002B15DB5946049101210391494634
:101C2000029141460191514620000091FFF7D8FEF4
:101C3000B7E700F0A1FA32003B0012184B41002B2D
:101C4000E9DA0122034B5242E5E7C046D41A0020EC
:101C5000FFFFFF0FFFFFFF7F10B5144C6368002BE1
:101C600004D00A211248FFF71DFE10BD2300114ABF
:101C70001021206800F0A4FB032000F071FA03207B
:101C800000F050FB0C49032000F092FAFFF750FBE4
:101C90000A4B9C4603232375D0231B061B68604414
:101CA0006375074B80006060DC60DAE7AC0F0020F2
:101CB000F01A00207D1900109D1A00104000003419
:101CC000D41A002000487047AC0F0020F0B55746EA
:101CD0004E46DE464546E0B583B0009201930C9B2C
:101CE00006009B460EAB1B780027994600239A46B8
:101CF0007268EFF3108872B61368002BFCD0BFF344
:101D00005F8F3568AC7B002C63D063001B192A6899
:101D1000033BD2185178A973002900D1E973977059
:101D200057701770B168374A8C4600980199A2180D
:101D30001201624410605160594691600D9928006B
:101D4000D1602A68944663449F705F701F70697BFE
:101D50002200FFF7E5FD6873844245D0F3681B1944
:101D6000013B18787368BFF35F8F1F6088F310889A
:101D70005346002B08D10002204303B03CBC9046E0
:101D80009946A246AB46F0BD4B46002B2AD00D9992
:101D90000020D84703000B4324D004000D1E09DAAD
:101DA000009A019B121BAB4100920193002B09DBAF
:101DB000CA469DE700F0E0F924184D4100940195D2
:101DC000002DF5DA0123104C5B4200930194CA46C2
:101DD0008EE77368BFF35F8F1C6088F31088012063
:101DE0004042CAE70020C8E7307D009A019B00F01E
:101DF00025FA82460028B1D02100306800F0A4FD09
:101E0000ACE7C046FFFFFF0FFFFFFF7FF8B542685A
:101E10000400EFF3108572B61368002BFCD0BFF3FB
:101E20005F8FFF232068CEB2427B0B40B24208D0C6
:101E300007685A00BC46D2186244033A9278002AD6
:101E400011D0E268090A94466344013B1B78C9B289
:101E50008B420ED000206368BFF35F8F00221A60B0
:101E600085F31088F8BD23698B42F3D122610020ED
:101E7000F1E7310000F068FDEDE7C046407D7047B6
:101E8000F0B504000D0006267642F717C64636194F
:101E90006F4100B584B08F4214D811D000F06CF9B6
:101EA00032003B00121A8B41002B15DC002B3ED078
:101EB0002000290000F06CF904B004BC9046F0BD8D
:101EC0008642EBD90026002700F056F932003B008D
:101ED000121A8B41002BE9DD002302930193154B6D
:101EE0003200009314483B00FFF7F0FE0028DFDBD0
:101EF00000239846BC46114A114F7B6A9C4504D882
:101F0000B96AB142D4D29C45D2D11168EFF31080A6
:101F100072B60B68002BFCD0BFF35F8F1368BFF362
:101F20005F8F4146196080F3108820BFE5E7002AE3
:101F3000BED0D1E7B1190010AC0F0020F01A00207C
:101F400000400540F0B5C64600B584B004000D0061
:101F500000F012F924184D41002D46DB062676428A
:101F6000F71736196F41AF4246D90026002700F017
:101F700003F932003B00121A8B41002B0ADC07D018
:101F80002000290000F004F904B004BC9046F0BD24
:101F9000002AF5D00023029301931A4B32000093DC
:101FA00019483B00FFF792FE0028E9DB0023BC46FE
:101FB00098461649164A4B6A9C4504D8886AB0422E
:101FC000DED29C45DCD11068EFF3108372B607684F
:101FD000002FFCD0BFF35F8F1068BFF35F8F4746C1
:101FE000076083F3108820BFE5E7012407266442D9
:101FF000084D7642074FBAE7AF42B8D1A642B4D8EF
:10200000B5E7C046B1190010AC0F002000400540F4
:10201000F01A0020FFFFFF7F70B5060000F0ACF85B
:10202000FA2204000D00920000233000002103F08A
:1020300073F900196941002902DBFFF721FF70BD28
:10204000012001494042F8E7FFFFFF7F70B5EFF341
:10205000058384B005000C00002B0ED0104A002030
:10206000536AA34207D3926A0130AA4203D21C1BCF
:10207000601E8441E0B204B070BD0A4E0293019329
:10208000094B0200009330000B00FFF71FFE0028F1
:10209000E4DD20BF01003000FFF7B8FEDEE7C046F8
:1020A00000400540AC0F0020B1190010F8B5EFF367
:1020B0000582CE464746100080B51038EFF3108CED
:1020C00072B6204C2368002BFCD0BFF35F8F012336
:1020D000190081401C4D1D4E716329601C4DA9469D
:1020E0002D782F00C7403B4015D0736A194E984693
:1020F00083009E59B04517D3174A8D439B584A46D3
:102100001570BFF35F8F002222608CF31088002BC4
:1021100006D0984704E0BFF35F8F23608CF31088EC
:102120000CBC90469946F8BD0C4B92009846424430
:1021300013681360BFF35F8F002323608CF3108854
:10214000EEE7C046280100D03C7005400040054045
:10215000251B0020FC1A002008150020D03F054058
:1021600010B50100024A0348FFF764F810BDC046ED
:102170005C7F0010201B0020044A516A00E0190017
:10218000906A536A9942FAD17047C04600400540B0
:10219000064A536A9942FCD807D1044B02E05A6AB6
:1021A000914202D19A6A8242F9D3704700400540B9
:1021B00070B504000D00EFF3108672B61A4A13686A
:1021C000002BFCD0BFF35F8F002D1BD02000FFF74A
:1021D000FBF8164988420AD02000FFF7FDF80121DC
:1021E0002000FFF7C1F80123A340114A1360114BEF
:1021F000A400E550BFF35F8F00220B4B1A6086F3FB
:10220000108870BD0B4BA200D5500122A2400A4994
:1022100020000B7893430B700449FFF7EBF9002182
:102220002000FFF7A1F8E5E7280100D0AD2000105D
:102230003860054008150020251B0020F0B5D64663
:102240004F464646324CC0B5656A00E00D00A66AAE
:10225000616AA942FAD1AB4209D806D00124200014
:102260001CBC90469946A246F0BDB242F6D9EFF3A7
:10227000108972B6274C21680029FCD0BFF35F8F0C
:102280000126254986408C460978244D0F003743A6
:102290008846F9B28A46614654460C701C49041DB2
:1022A000A4004E636250840063510D6A00243542DD
:1022B0001AD04D6A00E025008F6A4C6AAC42FAD110
:1022C000AB4219D801D1BA4216D8C2451DD0104B25
:1022D000134A1E625E631F2318401E3B8340136037
:1022E0006346424601241A70BFF35F8F0022094BF8
:1022F0001A6089F31088B2E70024BFF35F8F0022D1
:10230000044B1A6089F31088A9E70124ECE7C04662
:1023100000400540280100D0251B0020FC1A0020A9
:1023200080E200E010B5EFF3108472B60A490B6842
:10233000002BFCD0BFF35F8F01238340074A08487E
:10234000136202789A430270BFF35F8F00230B6021
:1023500084F3108810BDC046280100D0004005401D
:10236000251B002070B506000D00140000291ED0AA
:10237000002A1ED073688068984763006A001B19A2
:102380005219033B033A3168002808D0CB188A1849
:102390009D70117800290ED11470280008E08A1869
:1023A000CB1894701978002900D051701D7020004E
:1023B00070BD0800FCE7597028001470F8E7C046AB
:1023C000F0B5DE4657464E464546E0B583600023ED
:1023D00089B04260026806914373C9B20133059126
:1023E00001738373C1730492012900D8A4E00A0029
:1023F0004B1ED9B2931E0791072B00D8AEE00025E3
:10240000CB080393049B564C591C564B56489B468D
:10241000564B9A46564B9C46564B02935246634641
:102420005F465E4662401A40504B2740FB185A40B8
:102430000640534601966646434033404B4E0A7071
:10244000B046019E0135B146C84446467340160465
:10245000360ECE701602120E4A721A04120E0B734A
:10246000CA731A021B0E4B75029B360E5C40634604
:102470001C40404B120E9846029B4744584063460E
:1024800018404B4643445840039BEDB28E718A740A
:102490007C401831AB42C1D1079907230A009A4307
:1024A000531CDBB2914247D0049C5A00A446D21878
:1024B000591C6244059DC9B2033A51708D423BD903
:1024C0004A005218981C6244C0B2033A50708542C8
:1024D00032D942001218D91C6244C9B2033A517071
:1024E0008D4229D94A005218181D6244C0B2033ADD
:1024F0005070854220D942001218591D6244C9B259
:10250000033A51708D4217D94A005218981D6244FF
:10251000C0B2033A507085420ED942001218D91D3C
:102520006244C9B2033A51708D4205D94A0052182B
:102530006244033A08335370FF23069A134059004C
:10254000C918049B9C460023614403394B7009B0B1
:102550003CBC90469946A246AB46F0BD0123A3E79A
:10256000010203047F7F7F7F050607080101010147
:10257000808080800808080870B50400002907D012
:102580004B0000685B18033BC3185A78002A01D13E
:10259000080070BD5500AD18033D40190025467870
:1025A00045705D702000FFF7DDFE31000500200062
:1025B000FFF7E2FF290002002000FFF7D3FE010031
:1025C000E6E7C046F0B54E464546DE465746E0B51E
:1025D0000E0074000168A41985B0033C01920A1929
:1025E00005001078002850D043001B18033BCB187F
:1025F0005F78BC46002F1AD1019C002C42D0EC7BA6
:10260000002C04D063001B19CB18033B5E70AB7B1E
:10261000002B00D1AE73EE7300282FD1002353702E
:1026200005B03CBC90469946A246AB46F0BD7A0048
:102630006244033A89184A78934600224A709046C9
:102640005A7001003A002800FFF78CFE5B46814675
:10265000002B07D05B0029685B44033BCB185A78FA
:10266000002A16D15A4649462800FFF77BFE296802
:10267000019B0A19002BC2D10028CFD043001B18A0
:10268000033BCB1800219970C8E7019B002BB6D102
:10269000C4E750008018033809184878824640463D
:1026A0004870587059462800FFF75CFE5346834631
:1026B000002B07D05B0029685344033BCB185A78A2
:1026C000002A06D1594652462800FFF74BFE8346A2
:1026D000C8E7500080180338091840464F78487002
:1026E0005870514628000297FFF73CFE8246002FA3
:1026F00008D0BC467B0029686344033BCB185A785A
:10270000002A06D15146029A2800FFF72BFE824686
:10271000D8E7500080180338091840464F784870B1
:102720005870029928000397FFF71CFE8046002F7F
:1027300008D0BC467B0029686344033BCB185A7819
:10274000002A06D1039A41462800FFF70BFE0290AB
:10275000D8E7032050430338091800204F78487009
:10276000587003992800FFF7FDFD390002902800FA
:10277000FFF702FF029902002800FFF7F3FD039024
:10278000E0E7C046F0B54E464546DE465746E0B562
:10279000467B040075000068AD19033D85B0421901
:1027A00001911178002952D04B005B18033BC318EC
:1027B0005F78BC46002F1CD1019D002D44D0E57BE5
:1027C000002D04D06B005B19C318033B5E70A37B24
:1027D000002B00D1A673E673002931D1002330000D
:1027E0005370617305B03CBC90469946A246AB4617
:1027F000F0BD7A006244033A801842789346002282
:10280000427090465A7020003A00FFF7ABFD5B46DD
:102810008146002B07D05B0021685B44033BCB184B
:102820005A78002A17D15A4649462000FFF79AFDE8
:10283000019B010020684219002BC0D10029CDD096
:102840004B005B18033BC31800209870C6E7019B40
:10285000002BB4D1C2E7500080180338091848781B
:10286000824640464870587059462000FFF77AFD6E
:1028700053468346002B07D05B0021685344033B3B
:10288000CB185A78002A06D1594652462000FFF745
:1028900069FD8346C7E75000801803380918404691
:1028A0004F7848705870514620000297FFF75AFD44
:1028B0008246002F08D0BC467B0021686344033B5E
:1028C000CB185A78002A06D15146029A2000FFF709
:1028D00049FD8246D8E75000801803380918404661
:1028E0004F7848705870029920000397FFF73AFD1F
:1028F0008046002F08D0BC467B0021686344033B20
:10290000CB185A78002A06D1039A41462000FFF7D7
:1029100029FD0290D8E7032050430338091800200E
:102920004F784870587003992000FFF71BFD39005D
:1029300002902000FFF720FE029902002000FFF71E
:1029400011FD0390E0E7C04670B5040000292CD0CB
:10295000437B8B422ED00568480040180338281866
:102960008278002A21D053009B18033BEB181A7879
:102970008A4202D11BE0002A08D053009B18033B77
:10298000EB185A788A42F6D142785A700023012215
:10299000837043702000FFF715FE617B020020006A
:1029A000FFF7E0FC6073012000E0002070BD42787A
:1029B0001A70EBE701221900FFF704FE6073012093
:1029C000F4E7C04630B50C2083B000F0B5F9FEF74F
:1029D00029FC00280ED0944B944A1A605A609A60E1
:1029E000DA601A615A619A61DA611A62904A5A622F
:1029F00003B030BD8F4CA06700F0F2F901228E4B7E
:102A00001A60636C012BFCD103228C4B1A60894A3B
:102A1000936B012BFCD101330093894A04330121CC
:102A2000884800F035F90523874A0093012187483B
:102A300000F02EF9864B5A68FF2A02D880225200F5
:102A40005A608022784C7D4B21691201804D1A60BA
:102A5000002905D0606901F035FE01300138FDD153
:102A6000E0217B4B02201A681140802252012A4348
:102A700011601968484003210140116004219A68DF
:102A80001142FCD08022802192012A430901116069
:102A9000802252005A606F4B23616F4B5968FF29A7
:102AA00000D85A6003226C48634B01211A6002006F
:102AB00093681942FCD0E02513681D4080235B0118
:102AC00003431D6012684A4003211140196002212E
:102AD000614A93681942FCD0802380219B01034303
:102AE0000901196080215D4B4900516063615C4BB5
:102AF0005A68FF2A00D8596080225A4BE1691201B6
:102B0000574D1A60002905D0606901F0DBFD0130E6
:102B10000138FDD1E02252490B681A4080235B0145
:102B20002B431A60802380229B012B4312011A60E1
:102B300080223E4B52004A60E3614B4B5968FF29AB
:102B400000D85A608022494B216A1201464D1A6012
:102B5000002905D0606901F0B5FD01300138FDD1D3
:102B6000E02241490B681A4080235B012B431A6025
:102B7000802380229B012B4312011A6080235B007B
:102B80004B602A4B3A4A23623A4B5968914201D82A
:102B900001325A608022384B616A1201354D1A6049
:102BA000002905D0606901F08DFD01300138FDD1AB
:102BB000E02230490B681A4080235B012B431A60E6
:102BC000802380229B012B4312011A608023DB02A9
:102BD0004B60174B6362294B5A68FF2A02D8802248
:102BE00052005A608022264BA1691201234D1A60BF
:102BF000002905D0606901F065FD01300138FDD183
:102C0000E0221E490B681A4080235B012B431A60A7
:102C1000802380229B012B4312011A6080235B00DA
:102C20004B600E4BA361E3E624160020006CDC022F
:102C30001BB70000008000403CB0004030B00040B6
:102C4000002F685900800240008C864700C0024077
:102C500030800040001BB7003C80004040597307A3
:102C60005480004054B000406080004060B000409C
:102C7000FFFF03006C8000406CB0004048800040C3
:102C800048B00040014B8000C05870472416002017
:102C9000F8B504000C201E0017000D0001F012FD15
:102CA0004201121A9101891AC900091889013800D4
:102CB00001F008FD069B226836041B033343002AFB
:102CC00021DB194A194EA21851424A41802149017B
:102CD0008C4652420A40164962440A6015490A600D
:102CE0001700B1688F43FBD1C021221D8901114318
:102CF00021222560A0600A602268002AFCDAE360D5
:102D000008230B60F8BD3F2221680A40AA42D8D1AF
:102D1000A2681205120D8242D3D1EE21E268C902E7
:102D20000A409A42CDD1EDE70040FDBF00C000400F
:102D300000E0004000F000408023024A9B00034373
:102D4000D36270470080054010B580241B4BE4051A
:102D50001C6000282BD00123194C1843194BDC614F
:102D6000194C44401C62596298628021134BC9057A
:102D70001960164816490860E021C9041960002A44
:102D800004D18022134B12061A6010BD53019B1A06
:102D90009B009A18104B12019A420BD80F4B1A60E5
:102DA000084B5A6080220B4BD2051A60EDE7054BA9
:102DB000D861DAE7094A13601A00F1E700B005406C
:102DC000D3C007B0008005402D3FF84FFCFF010045
:102DD0000820014000A00540FFFFFF00C41A0020AA
:102DE000AA23064A1B0113602F230549D360054B14
:102DF00019605368002BFCDA7047C046004002405F
:102E000000B0FA00006002402D4B2E4A70B51A60E7
:102E10002D4A2E4B2E491A6010008B689843FBD127
:102E20002C4C2D4B9C4209D2013B1D1BAD0801359A
:102E3000AD002D1908CC9847AC42FBD1FFF7C2FD7D
:102E4000264A224B1A60224A9368DB018033FBD169
:102E50004022234B234D24489A675A671A67DA6643
:102E6000A84205D30EE0FEF733FD2000AC4209D2A4
:102E7000040003680834002BF5D1FEF71BFD200089
:102E8000AC42F5D3194C1A4DA168C022280002F0BB
:102E9000B5FAA560FEF73EFAFEF7DEFCFEF7DCFEB3
:102EA000144C154B9C4209D2013B1D1BAD0801354A
:102EB000AD002D1908CC9847A542FBD170BDC04686
:102EC00000E00040BFCDFBFEFE7F3C0000F0004074
:102ED00000C000404810002058100020FFFFFF01F4
:102EE00000F00140481000204010002000ED00E0FC
:102EF00000000020581000206010002000BEFDE7F8
:102F000010B5FFF7FBFFC0460FB400B5084883B00B
:102F100002F02AFC049B002B07D005A918000191A0
:102F200001F05AFB034802F01FFC0120FFF7E6FF07
:102F30008C7F00109C7F001010B50148FFF7E4FF64
:102F4000807F00107047C046F8B557464E4645464C
:102F5000DE46E0B599460A9B07009A460D9B8846D7
:102F600093460B9E15009B070FD10C9B9E420CD2E3
:102F70009D1B0E005D44541C4B4631002020B84779
:102F80002200A542F7D1B0460B9E002E28D0444621
:102F9000AD195346AA1B013E985D21004B46B84728
:102FA000002EF6D123002C0098460D9B9B0710D5D0
:102FB0005B46E51A0C9BAB420BD94646220098466D
:102FC00001344B46310020200135B8472200A84586
:102FD000F6D820003CBC90469946A246AB46F8BDC8
:102FE0002C00E2E7F0B54F464646D646C0B584B061
:102FF00098460EAB1B7894469946129B0D9C109FE9
:10300000119E9A0724D401221A409246002E62D1C2
:10301000BC420CD21F2C00D9B8E00C9A551E3022AD
:1030200001E0202C03D001342A55A742F9D852469A
:10303000002A0DD0A6420BD9202C5AD00C9A551E2E
:10304000302201E0202C54D001342A55B442F9D169
:10305000DA0632D55A0555D4002C4FD10F9A102AD2
:1030600000D18CE0022A00D17EE030220C9C22703C
:103070004A460124002A25D02D220C9D2A550134D0
:1030800003930C9B02960093019443466246FFF71C
:103090005BFF04B01CBC90469946A246F0BD202CB4
:1030A000EED00C9A1519013478222A70202CE7D022
:1030B00030250C9A121915700134202CE0D04A46A4
:1030C000002AD9D15A0728D41A07D9D520220C9D15
:1030D0002A550134D4E7002A24D04A46002A28D1B0
:1030E0000C321A4225D1BC42A4D21F2C95D9202ED5
:1030F0001DD92024DA06C3D55A0503D4A7421AD015
:10310000B44218D00F9A102A1FD0022ACED1202CF8
:10311000B6D00C9A121901342EE02B220C9D2A55A0
:103120000134ADE7BC4293D21F2C00D875E72024B0
:103130008EE7013ED7E7621E002A10D00F9D102DAA
:103140002DD0022D15D01400B2E79A06A7D5202C59
:1031500096D058250C9A121915700134A6E70F9CC9
:10316000102C15D0022CEED162220C9C227001246E
:103170009EE70C9DAA4652446225157096E79A0672
:10318000E7D478220C9C2270012491E720244EE79A
:103190009A06F6D558220C9C2270012488E7023C3E
:1031A0009D06D6D40C9D2D1914007DE710B500287E
:1031B00000D110BD02F08CFAFBE7C04610B5002824
:1031C00003D04A680B681100984710BDF0B545461A
:1031D00057464E46DE46E0B59BB0249D259C824670
:1031E0008846099299462A0023002800210001F010
:1031F0002AFD002800D0CBE00122D94B5242280002
:10320000210001F01BFD002800D0C1E00122D54BB8
:1032100052422800210001F003FD002800D0B7E051
:10322000002200232800210001F0FAFC002800D031
:10323000EDE1AB4608948023289ADB001A401192F6
:1032400001D1062326935B460C9380235946289A86
:103250001B011A40089B10920B4300D0AFE0002ADC
:1032600000D0BFE104260D930E930C9300230A9324
:10327000279BB34201D99B1B0A930227289B1F401F
:1032800005D0734273410A9A5B421A400A920C9B22
:10329000002B07D0584608990D9A0E9B01F05FFC51
:1032A00083460891002200232800210001F0B8FC89
:1032B000002805D0802000068446089961440891C2
:1032C000289AA94B414613405A4604930A9B5046FC
:1032D0000393269B0293089B009201934B46099A05
:1032E00000F0A2F9002E63D0289B02009C061F2349
:1032F000E4179C436534431C089320004B46414629
:10330000D0470C9B0024DA179D18DB0F9B46731ED9
:1033100055400C9302E00500202C11D00AAA9446D7
:103320001F23013463440A2128001E1901F0CAF941
:103330003031317028000A2101F0C4F9092DEAD892
:10334000052306930C9B01940593002304930A33F1
:1033500003935B46029312AB0093089A4B46414697
:103360005046FFF73FFE002F22D0099BC41A279B2F
:10337000A3421DD9020057461E00551C4B4641462C
:1033800020200134B8472A00A642F6D828000FE0D2
:10339000289B2A000493279B41460393269B504673
:1033A00002932300009201934B46099A00F03CF9E6
:1033B0001BB03CBC90469946A246AB46F0BD6B4A5A
:1033C000089B94465800400D604401F04FFC684A49
:1033D000684B01F0E2FB684A684B01F0B7FB089BC1
:1033E000674A1B031B0B1A4306000F000C981100C1
:1033F000644B002201F0A1FB634A644B01F0CDFB5A
:1034000002000B003000390001F0A0FB01F046FC87
:103410000C9001F02BFC5E4A5E4B06000F0001F0A1
:10342000BCFB00225C4B01F091FB01F037FC5B4AD6
:103430005B4B0D903900300001F0AFFB06000D989A
:103440000F0001F013FC574A574B01F0A6FB020096
:103450000B003000390001F070FB02000B000A90F5
:103460000B9101F09AFB06000F000A980B990200DD
:103470000B0001F06BFB00220E900F914B4B3000C4
:10348000390001F06CFB0022494B01F05FFB0200A8
:103490000B003000390001F062FB0022454B01F0C7
:1034A00055FB02000B003000390001F058FB0A9A6E
:1034B0000B9B0F0080210600C905002001F03DFB99
:1034C00002000B003000390001F040FB3A4F0200CF
:1034D0000B000E980F9901F042FB0022284B01F0DF
:1034E00035FBBC460D9A624416000022330501F0FC
:1034F00054FB07000D900E000E9102000B00584681
:10350000089901F08DFB00285ED13B003200C626F1
:103510000C9963318E42B6411099764204360029E7
:1035200000D1A3E6134361D0089F244A244B584698
:10353000390001F07BFB002807D00022214B5846C0
:10354000390001F06DFB002850D1269B002B00D1E3
:103550008CE6119B5A1E9341269AD31A269385E630
:10356000FFFFEF7FFFFFEFFFFFF7FFFF01FCFFFF14
:10357000FB799F501344D33FB3C8608B288AC63F62
:103580000000F03F0000F83F61436F63A787D23F20
:1035900071A379094F930A400000E03F1655B5BB6F
:1035A000B16B0240EF39FAFE422EE63F00002C409C
:1035B0000000244000001840FF0300002D431CEBD6
:1035C000E2361A3F80842E410C9B0022013B0C9373
:1035D0000D98144B0E9901F0C2FA03000D900A00E9
:1035E0000E9194E700230D930E930C93269B1900E4
:1035F0000C9B994213DDCB1A013B26938023289A1A
:10360000DB001A430023289200260C932EE6802329
:103610001B069C46A4446346AB4608930BE6002376
:103620002693EBE700002440F0B5DE4657464E46B1
:103630004546E0B597B08046894692469B46209A1B
:10364000219B1000190001F0FEFA002800D01FE2B3
:10365000209821990122CC4B524201F0E1FA002836
:1036600000D03EE1209821990122C84B524201F03E
:10367000E5FA002800D0E7E0209821990022C44B09
:1036800001F0DCFA002800D0C7E020982199002240
:10369000C04B01F0C5FA002800D0BEE02098219967
:1036A0000022002301F0BCFA002800D0E1E0002352
:1036B00080240D93249BE4001C4000D0E9E000220C
:1036C0000626B54B069207930EAB089320982199D6
:1036D00001F0E4FA07000C9001F0C8FA02000B00B8
:1036E0002098219901F029FA069A079B01F055FAD2
:1036F0000A900B9101F0F6FA0500099001F0B2FA78
:1037000002000B000A980B9901F017FA0022A34B54
:103710000A900B9101F092FA002800D148E12B00A9
:1037200001331800099301F09DFA069A079B01F0F6
:103730007DFA002804D03B0001330C930023099349
:10374000002E00D0D5E00C9D280001F08FFA020079
:103750000B002098219901F0F0F900228F4B060010
:103760000F0001F05DFA002808D100228B4B3000D9
:10377000390001F063FA002800D17EE1202C00D14D
:10378000FAE00C9F0A21380000F074FF089E3031E7
:10379000315538000A21651C00F06CFF002800D16B
:1037A00080E1202D00D1E7E00A2100F063FF3031F5
:1037B00071553800642100F05DFF0234051E14D0FD
:1037C000202C00D1D8E008AA94461723280063448F
:1037D00001340A211E1900F04DFF303131702800EC
:1037E0000A2100F047FF051EEAD10323249A134063
:1037F000012B00D1ECE0202C00D1C2E00D9B002B6E
:1038000000D111E12D23089A651C1355249B0195C5
:103810000393239B0293089B20E0249B524604932E
:10382000239B49460393229B40460293209B219C65
:10383000009301945B46FFF7C9FC17B03CBC90466F
:103840009946A246AB46F0BD249B5B070ED40322EB
:10385000534B24990192039123990291009352466C
:103860005B4649464046FFF76FFBE6E74D4B0422B7
:10387000EFE7209A219B0020002101F05EF901234F
:1038800080240D93249BE400209021911C4000D1C2
:1038900015E7229B092B00D808E1190030230EAA56
:1038A0004E1E08921370092E00D1F9E0537008AA39
:1038B0000C0094468E1E1721093C022361443022DD
:1038C00005E00133CA54013E202B00D1A3E09C4205
:1038D000F7D1354BF2009B181A685B680692079384
:1038E000F4E6249B0393239B0293042301932F4B21
:1038F000B4E7202C40D0099D731E0A2128000693AE
:1039000000F0E0FE089B3031195528000A2100F034
:10391000D9FE671C0995092D00D892E0202F2BD0E5
:10392000B11E06910A2100F0CDFE089B3031D95519
:103930000998642100F0C6FE099AA51C0700632AB5
:1039400000D87FE03419013C14E0631B08AA0693F9
:1039500094461723013563440A2138005E1900F0AC
:10396000B1FE3031317038000A2100F0ABFE092F72
:1039700068D90700202DE8D10323249A1340012B96
:1039800025D0202542E7C046FFFFEFFFFFFFEF7F76
:1039900065CDCD4165CDCDC180842E410000E03F95
:1039A00080810010848100109881001090810010A7
:1039B00000220A980B99494B01F032F9002800D0F7
:1039C000BEE62B1E60D1099B01330993B8E6202483
:1039D000239B002B00D10EE70D9B002B03D1249AD3
:1039E0000C33134202D0239B013B2393239BA3421E
:1039F00000D800E708AA9446172330226344202CFD
:103A0000BFD0239901341A558C4200D1F3E6202C03
:103A1000F7D12025FAE6324BF2009B185C681B6850
:103A200006930794202451E6249B5B0720D4249B13
:103A300025001B0700D4E9E62023089A0135135519
:103A4000E4E63D00202D97D008A98C461723069860
:103A5000634442193021002826D001355955202DC4
:103A600030D0AA42F9D12E230899541C8B5485E6F4
:103A70002B23089A651C1355C8E60123AC462B403E
:103A80009C4463460C9379E6DB0700D458E69AE73A
:103A9000249B0393239B029303230193114BDDE6A5
:103AA000012416E72C00A0E62A00DCE7DA001E005D
:103AB0000B4B9B185C681B68069307940EAB0024A5
:103AC000089303E60323249A1340012B00D09DE6BC
:103AD000239B002B00D199E620247DE70000E03FE6
:103AE000988100108C810010F0B54546DE4657469F
:103AF0004E46E0B5A1B01D002A9B90460B93BD4AEF
:103B0000BD4B0A908B461A60002900D10DE20023BC
:103B100028789A46002861D0B84B56469946C24646
:103B200009E0741C320053460A9E5946B0472600ED
:103B30002878002850D001352528F2D10423287890
:103B40009846023B9C460300203B691CDBB20024E4
:103B50000A00102B0ED84F469B00FB589F460123AE
:103B60000D001C432878691C0300203BDBB20A00CF
:103B7000102BF0D90300303B092B41D900272A280C
:103B80006AD000230C932E2851D00300683BDBB28F
:103B9000122B5FD89A499B00CB589F4663460D0075
:103BA0001C43DFE743460D001C43DBE710230D00F9
:103BB0001C43D7E708230D001C43D3E780235B0099
:103BC00068781C43551C0300253BDBB2532BA8D857
:103BD0008C4A9B00D3589F46D046B2465246D045A9
:103BE00001D843465A1E4346594600200A9CA04726
:103BF000504621B03CBC90469946A246AB46F0BD2B
:103C00000027030001E00D000131B800C019400099
:103C1000C0180B7830381A00303A0700092AF2D958
:103C200018000023AA1C0C930D002E28ADD1802370
:103C30006878DB001C430300303B092B00D877E198
:103C40002A2800D1ABE10300683BDBB2150001324A
:103C5000122B9FD91500B6E70B9B80CB002F00DA03
:103C60005BE16878AA1C0B930D008AE768786C28E2
:103C700000D14DE280235B001C43551CA3E7802349
:103C80009B0068781C43551C9DE76878682800D124
:103C900039E28023551C1C4395E70B9B04CB9846C7
:103CA0000C9B0B921078002B00D0A2E1002801D1D0
:103CB00000F071FC02235B425A1C0B9B94461900D6
:103CC0000D92614401E08B4206D001331A78002A3C
:103CD000F9D10B9A9B1A0D938023DB0023400E939E
:103CE00005D00D9B19000C9B994200D90D9302231E
:103CF00023400F9300D140E2002800D126E20E9B22
:103D0000002B00D1E6E141460C9B0C9129009C1947
:103D10000B9B5D469B1B3200B8460B938B460AE01B
:103D2000534629000A9F561CB8470B9B985D0028F4
:103D300000D104E232009442F2D10C9B47469846EF
:103D40005B462600AB461D000F9B002B00D0FDE11B
:103D500043460B93ECE60B9B04CB0B93002A00D15C
:103D600028E121231C43A44610A988461F240F21C3
:103D700044440023884603E0202B00D124E10A00BC
:103D800041461140CFB238003730092900D80738F2
:103D90000133E05411090F2AEED815E10B9B0433CF
:103DA0000C93731C0D939846A30700D406E20B9B5B
:103DB00032001878594653460A9CA047BE19012F75
:103DC00000D8A7E22B0042465546B0469A465E46CA
:103DD0000A9F541C2B0031002020B8472200444584
:103DE000F7D15346B346AA4626001D000C9B0B9301
:103DF0009EE6C046E93A0010C01A0020A07F0010DD
:103E0000E47F001030800010782800D152E258285A
:103E100000D183E16F2800D1F3E0622800D156E39E
:103E2000102322009A438023DB000D92234069284F
:103E300000D0BCE30A220E92002B00D146E20123FF
:103E40000D9A9A430D9280240D9BA40023409C461A
:103E5000692800D1E7E0642800D1E4E06346002B44
:103E600000D094E280230D9A5B001A400B9B904691
:103E700004330F93002A00D02CE30D9B5B0600D582
:103E800044E20D9B1B0600D488E30B9B1B881800A3
:103E9000031E00D04DE20D9A1033110099430D918D
:103EA000520500D445E2002398460D9B05970693E2
:103EB0000C9B04930E9B03930023029343460193B0
:103EC00018AB00933200534659460A98FFF78AF818
:103ED0000F9B06000B932BE6462800D18EE00722AD
:103EE0000B9B04940733934319000C9A0397029297
:103EF0000CC90A98009201930B913200534659461F
:103F0000FFF792FB060013E6741C320053460A9E2C
:103F100059462520B04726000AE602226878144355
:103F20007F42AA1C0B930D002BE6D34B0A93EEE5C0
:103F30000023010000E02A009800C018400040184B
:103F40005178030008003038551C303B0928F2D95D
:103F50000C930800023218E6202302009A43472AF5
:103F600004D180231B011C4302239843452801D11F
:103F700020231C4307220B9B04940733934319000F
:103F80000C9A039702920CC90A98009201930B9124
:103F9000320053465946FFF719F90600C8E50B9B56
:103FA000A87802CBCA43D21711400C91EA1C0B939C
:103FB0000235EAE5102321009943113319438C4659
:103FC0000023610500D4CFE66246069208220592DE
:103FD0000C9A04921022039200220292019318ABD1
:103FE00000933200534659460A98FEF7FBFF06003D
:103FF0009EE5002800D1CDE2013B5DE620231C4375
:104000006DE708230E9322000D948023DB001340FC
:10401000642800D0CEE2002B00D010E780241300EB
:10402000A40023409C466346002B00D0E5E080239B
:104030000D9A5B001A400B9B904604330F93002AA5
:1040400000D0C6E10D9B5B0600D547E10D9B1B062A
:1040500000D499E20B9B00229B5ED9175A184A4064
:104060001000DA0F1492002B09D1802310220D9931
:10407000DB000B4091430D91002B00D050E10D9AD5
:104080006123920600D5412310AA1F249446DBB277
:1040900064440A3B159716960B9346460700A846BC
:1040A00025000E9C0AE03033DBB20136AB55A74247
:1040B00000D231E1202E00D12EE10700210038008E
:1040C00000F000FBCBB20929EDD90B9A944663446A
:1040D000DBB2EAE70B9B32009E1B33005E46AB4629
:1040E00055469A460B970A9F2B003100541CB8473F
:1040F0005346185D22000028F6D1AA460B9F5D4664
:10410000B346260020E6C023A8781C4303355AE5B1
:10411000C0239B00A8781C43033554E50C232200E0
:104120009A4314331A430D92630500D5D3E08023DC
:104130009B001C40F13BFF3BA4460E938EE60C9B7C
:10414000474698465B46AB461D00FDE50D9B320099
:104150009F4200D8FCE5BE19F61A2B005D469B462F
:104160000A9F541C534629002020B8472200B4421D
:10417000F7D15B46AB461D00EAE50D9A531C97420A
:1041800000D812E2BB199B1A0D971F0032005E4641
:10419000AB460A9D541C534631002020A8472200FC
:1041A000BC42F7D15D46B34626000D9F7B1C0D93A4
:1041B0000B9B1878002800D0A1E5C9E5012F00D895
:1041C000F0E1731E3200A846DF190A9E5D460D9C81
:1041D00000E00134534629002020B0472200BC42B1
:1041E000F7D12600AB46454601360B9B3A001878BE
:1041F000594653460A9CA047F8E507220B9B073314
:104200009343013294469C4462460B921A685B6861
:104210009C46DB1712931393129813990300534093
:10422000109364460B0063401193109B119C1B1A62
:104230008C41109311946346DB0F149363461A4329
:1042400050D00D9A6123920600D541230022DBB2A3
:10425000904610AA0A3B1F2494460F935B46644481
:104260001793230015971696AB46109E119F444650
:104270000E9D984610E0C046452F00103032D2B255
:10428000434601341A550023BB4200D167E1202C7C
:1042900000D167E106000F002A000023300039003A
:1042A00000F04EFAD2B2092AE8D90F9B9C4662442C
:1042B000D2B2E5E780231022DB0023400E920C22CD
:1042C00094430D94002B00D1BDE5B8E580239B00FD
:1042D0001C40A446A7E610230E93B0E50B9B1B7869
:1042E0001A00BDE60D9A1023110099430D91520555
:1042F000A7D5002398460D9B059706930C9B049326
:104300000E9B0393149B0293434667E60B9B1B781B
:104310001800BDE50D9E69E54546159FB046169E01
:104320000D9B059706930C9B04930E9B0393149B84
:10433000C3E50D9A6123920600D5412310AA1F24DC
:104340009446DBB264440A3B149715960B93464699
:104350000700A84625000E9C08E03033DBB201368A
:10436000AB55A7420ED3202E0CD0070021003800F9
:1043700000F0A8F9CBB20929EFD90B9A944663440F
:10438000DBB2ECE74546149FB046159E8DE507224B
:104390000B9B07339343013294469C4462460B9235
:1043A0001A6859681300100009910B435CD10D9AEB
:1043B0001033110099430D91520555D500239846AD
:1043C0000D9B059706930C9B04930E9B0393002370
:1043D00099E70B9B1B68D9175A184A401000DA0F4F
:1043E0001692002B08D1802310220D99DB000B4080
:1043F00091430D91002B2CD10D9A6123920600D58B
:10440000412310AA90461F24DBB244440A3B149770
:104410001596A8460B932500070066460E9C08E0FB
:104420003033DBB20136AB55A7420ED3202E0CD071
:1044300007002100380000F045F9CBB20929EFD977
:104440000B9A94466344DBB2ECE74546B446149FAE
:10445000159E0D9B059706930C9B04930E9B03934F
:10446000169B029363462AE50D9A6123920600D5B6
:1044700041230022DBB2904610AA0A3B1F24944637
:104480000F935B46644414971596AB4646461693C5
:10449000A0460E9D099F04000BE03032D2B2434685
:1044A00001369A550023BB4265D0202E65D004000A
:1044B0000F002A0000232000390000F041F9D2B299
:1044C000092AEAD90F9B9C466244D2B2E7E702234D
:1044D0000E9398E50B9B1B68181E08D180231022B1
:1044E0000D99DB000B4091430D91002B2CD10D9ABF
:1044F0006123920600D5412310AA90461F24DBB207
:1045000044440A3B14971596A8460B9325000700D0
:1045100066460E9C08E03033DBB20136AB55A7424D
:104520000ED3202E0CD007002100380000F0CAF86E
:10453000CBB20929EFD90B9A94466344DBB2ECE77E
:104540004546B446149F159E0D9B059706930C9BFC
:1045500004930E9B0393002302936346AFE4B5429A
:1045600000D894E6179B109611975D46159F169EEE
:10457000A0469B46BFE6A54297D9169BB0465D462E
:10458000149F159E9B461BE70B9B1B68D9175A1857
:104590004A4065E500230D93FFF79EFB0B9B1B68CC
:1045A000180075E437000D9E1FE60D9302E60A23FE
:1045B0000E932AE5140082E600B585B0039101212F
:1045C00002900093034813004A4202A9FFF78CFAB5
:1045D00005B000BDBD31001010B5094A84B01468A3
:1045E000002C09D0012200910300524203A9054882
:1045F000A047012004B010BD01F0B6F80020F9E793
:10460000C01A0020AD31001001480421014B1847A9
:10461000E00F002039460010142310B5010018885F
:1046200004331B88984710BD162310B50100188865
:1046300002331B88984710BDF0B5C64600B5002967
:1046400016D014230400012598461827890046181F
:104650004346216818883B88984701C4431E984107
:1046600040420540A642F3D1280004BC9046F0BD6C
:104670000125F9E7124A936F9B0815D29066D1661F
:10468000002905D0FFE7FFE7FFE7516F106F704784
:1046900004B580210906C2175140002800D0C84344
:1046A00003F08EFB002104BDF0B5146E556E576FFC
:1046B000166FFFF7E3FF1466556657671667F0BD80
:1046C000000000D0114A936F9B0813D21066516608
:1046D000002905D0FFE7FFE7FFE7516F106F704734
:1046E00004B5002801D00020C04303F069FB00217D
:1046F00004BDC046F0B5146E556E576F166FFFF7C8
:10470000E5FF1466556657671667F0BD000000D0D8
:1047100094464A4A926F9208624601D228E0C04607
:10472000F0B5464E346E756E776F366F00F020F838
:104730009446424A14665566576716676246F0BD4E
:1047400094463E4A926F9208624601D254E0C046B7
:10475000F0B53A4E346E756E776F366F00F04CF8E8
:104760009446364A14665566576716676246F0BD2A
:10477000002B24DB11D000293EDA00B5C9434042AA
:1047800000D1013100F038F8C943404200D1013175
:10479000DB43524200D1013300BD002AEBD1002897
:1047A00001D1002905D00020C90FC90701D1C0439C
:1047B000410800B503F0F4FA0022002300BD00B563
:1047C00000290ADBDB43524200D1013300F014F828
:1047D000C943404200D1013100BDC943404200D12C
:1047E0000131DB43524200D1013300F005F8DB43D5
:1047F000524200D1013300BD002923D1002B18D132
:10480000002A0CD0BC460D4F38667A660021002382
:10481000FFE7FFE7FFE77A6F386F674670470028CA
:1048200001D00748010000B503F0BAFA00220023C6
:1048300000BD02000B00002000217047000000D0E6
:10484000FFFFFFFF002B00D0BFE0130C28D1002A90
:10485000E7D080B4114F39667A66FFE7FFE730B4DE
:10486000040C7B6F396F1B0423433B667A66FFE7BA
:10487000FFE7FFE7C04684B27B6F3D6F1B04234315
:104880003B667A66FFE7FFE7C04600232C042D0C49
:104890007A6F386F00196941B0BC7047000000D0D2
:1048A000F0B594460025140E01D112020835140FFC
:1048B00001D112010435940F01D192000235D40FB9
:1048C00001D152000135D40B0134254F7C66254CB3
:1048D0003C660E0C93B2FFE7FFE7FFE73C6F6643D1
:1048E000360C7703BE467343DF0B5B04C01AB94135
:1048F000130C7343DB18C91ACE086643360CB64452
:1049000093B273431F0F1B01C01AB941130C7343B9
:104910001F0B1B05C01AB941860D8F023E4366432B
:10492000360C092D24DB520A7243801A7703460A9B
:104930006643360C16235B1BDE40DF40BF1964461E
:104940006643821B7046043506330100D940A840F7
:10495000C01900D30131A24206D20023F0BD0000ED
:10496000000000D0FFFFFFFF121B0130F3D3F1E77F
:1049700009277F1BFE406446A2B27243801A00D210
:104980000139220C7243130C1204821A99410B0054
:104990007046043513370100F940A840801900D350
:1049A0000131002B02D1A2420AD2F0BD013000D366
:1049B0000131121BFAD2013BF8D1A24200D2F0BD64
:1049C000013000D30131121BF7E7F0B51C0C00D009
:1049D00080E00CB400251C0A04D11B02160E3343E0
:1049E000120208351C0B04D11B01160F33431201B0
:1049F00004359C0B04D19B00960F33439200023583
:104A0000DC0B02D192185B4101351C009718644100
:104A10000134464F7C66464C3C660E0CFFE7FFE7D0
:104A2000FFE7C0463C6F6643360C7703BE4697B23D
:104A30007743C01B00D20139C01B00D201399FB29D
:104A40007743C91BC91B170C77437E04FF0B801BE0
:104A5000B941CE086643360C0C2D33DBB644120B3D
:104A60001F053A431B0B97B27743C01B00D2013995
:104A70009FB27743C91B170C77433E043F0C801B42
:104A8000B941860D8F023E43664329277F1BFE40B6
:104A90000C3D7746AF40BF1930BCA2B2ABB27243F7
:104AA0007343801A9941220C7243130C1204801A2A
:104AB000994102000B000137001BA941F9D2781E71
:104AC0000021F0BD0C277F1BFE4077467F0BAF40D7
:104AD000FF19E0E700245D1C07D0144F7D6639669E
:104AE000FFE7FFE7FFE7FFE73C6F95B29EB2654344
:104AF0006643401BB141150C1E0C654366433604EA
:104B00002F0C3E432D04401BB141994204D20200B8
:104B10000B0020000021F0BD01D19042F7D3801A94
:104B2000994101349942F2D3F6E70000000000D029
:104B3000FFFFFFFF48404140484018B41B4B5B68F3
:104B4000FC46019308BD04DFEB4D001018B4174B71
:104B50001B68FC46019308BD00DFF54D001094462C
:104B6000134A926F920809D2624618B40F4BDB6861
:104B7000FC46019308BD0CDFAD5000100C4AF0B5A7
:104B8000146E556E576F166F6246FFF7EEFF084AB8
:104B90001466556657671667F0BD18B4034B9B68DB
:104BA000FC46019308BD08DF514F0010281B002070
:104BB000000000D0FFB550404240504059404B40AB
:104BC000594000E0FFB5154F4C00640D03D0BC42C6
:104BD00004D10C0314D80020090D09055C00640DF4
:104BE00003D0BC4204D11C030AD800221B0D1B05B4
:104BF00001264B4009D44B4003D58B4200D1824261
:104C0000FFBD9942FCD19042FFBD0B43DB1803432B
:104C10001343F5D0C9434918FFBD0000FF0700004A
:104C200000B5FFF7CFFF804100BDC04600B5FFF7DC
:104C3000C1FF01D9002000BD012000BD00B5FFF774
:104C4000B9FF804100BD012040054A00121804D878
:104C50005A00121801D80020704701207047002028
:104C6000704700000021002805D17047C117484057
:104C7000401AFAD0C90713B5064B1B6898470CBCFD
:104C8000441CA2401005120B0349091B09051943D6
:104C9000114310BDEC1A00201F04000010B54C0099
:104CA000620D8023D218DB00D21A5B057E2A10DD4C
:104CB0009E3A13DACC170903490819435242D140EE
:104CC000640001341532202A05DAD04008436043DD
:104CD00010BD002010BD0846604310BDC80FC018AD
:104CE000013810BD18B4044B5B6AFC46019308BD43
:104CF00024DF5D5200100000281B0020132370B534
:104D00001D78012D15D010DD2648FFF78DFC264CAF
:104D100001008022200000F071FB022D06D0234804
:104D2000FFF77AFC224B186070BD1F4C214AA26429
:104D3000F5E71D4C1F4AA3085B421D402FD02B00F6
:104D400022602020A9006118451B0A604A608A6021
:104D5000CA600A614A618A61CA610A624A628A62F9
:104D6000CA620A634A638A63CA630A644A648A64D9
:104D7000CA640A654A658A65CA650A664A668A66B9
:104D8000CA660A674A676D08102D03D18A67CA6729
:104D9000A264C4E71E339B00E250A264BFE7002375
:104DA000CFE7C04653440000281B00204C330000CE
:104DB000EC1A0020B94D001007B5604601880A0AB8
:104DC0000230DF2AFAD1C9B2820804D302884088AF
:104DD0000004104300E00068014A5050039007BDF2
:104DE000281B00200FB403BC0CBCF0B50124E40761
:104DF000634000E0F0B50C0DCF0F661E3605891B31
:104E0000640503D3C943404200D30131640D03D08C
:104E1000661CF60A07D0E41B00207F00791C890776
:104E20008912803C24031D0DDF0F6E1E36059B1B6F
:104E30006D0503D3DB43524200D301336D0D03D024
:104E40006E1CF60A07D0ED1B00227F007B1C9B071F
:104E50009B12803D2D032F1B661B58D4A446202E89
:104E600046DA20371400BC401D00BD40F2403341FB
:104E70002A4380185941CB0F05D0C943C0430022B3
:104E800064425041514162464D0D28D10D0D07D16C
:104E900000281FD0241940414941013A0D0DF9D095
:104EA000640006D3013000D30131002C01D1400849
:104EB0004000013A0BD4941CE40A04D112051144B9
:104EC000DB071944F0BDD907204B194300E0D9078F
:104ED0000020F0BD0029DDD1002CDBD1F0BD013276
:104EE000C6074008CD0728434908002EE1D0D9E77E
:104EF0003C2E29DA203E40371400BC4000D001246B
:104F0000F24014431A00BB401C43D317ACE7AC4635
:104F1000202F08DA20360400B4400D00B540F840D8
:104F200039412843A5E73C2F0CDA203F40360400E6
:104F3000B44000D00124F84004430800B1400C43C1
:104F4000C117EAE710001900002494E70000F07F81
:104F5000F0B50C0D661E3605891BE60A6405640D66
:104F600002D0651CED0A04D0002001210905803C17
:104F70002403A4461C0D671E3F05DB1BE70A6405DE
:104F8000640D02D0651CED0A04D0002201231B052C
:104F9000803C24037740644497B484B296B274434F
:104FA000070C7E43150C6F4380B26843361802D35A
:104FB000012000043F183004350C00197D4184465F
:104FC00088B29AB250430C0C62431F0C7C438EB2E1
:104FD0007E43921902D301263604A4191604170C35
:104FE0003618674101BC81B29AB25143040C624346
:104FF0001B0C5C4380B25843121802D301200004FA
:1050000024181004130C401863412D185E41002031
:10501000474106BC88B293B258430C0C6343120C50
:10502000544389B251435B1802D301210904641827
:1050300019041A0C091862416D18564100204741A5
:1050400018BCF902720D1143F0026A0D1043ED0213
:105050000A0D03D16D1940414941013B124E9B1B82
:105060007600B3420ED26D0007D3013000267141A5
:105070006646354301D1400840001B05C918E407C6
:105080002144F0BD0BDA013306D1013004D10131E6
:105090004F0D01D04908F2E7E1070020F0BD0136CD
:1050A00031050020EBE70000FF030000F0B51C0D08
:1050B000671E3F05DB1BE70A6405640D02D0661C12
:1050C000F60A04D0002201231B05803C2403D025CE
:1050D0002D060026F6432E661E096E66CE0FF619C3
:1050E000B44649004F0D02D07E1CF60A03D00020C2
:1050F0000021403F3F033E1BB600B444013F7F0503
:10510000C91B49082E6F013676089C02950D254370
:105110007543ED137543AD1301356D10F603761B22
:105120000CB4CC02450D2C43A2B2B3B25A43270CA7
:105130007B43350C6F43A4B26C431B1902D301248B
:1051400024043F191C041D0CA4187D4124196D4131
:10515000009A91B2ACB26143170C7C432B0C5F43B5
:1051600092B25A43A41802D301221204BF18220497
:10517000230C52187B41019C6C431B19520ED90120
:105180000A434401A01A81B2B2B2514303145A43F4
:10519000360C734387B27743D617D21900277E4166
:1051A00036049B191704160C7F185E417316ED1810
:1051B000F301002680337541A90F06D16400690A06
:1051C000E8055B0A184309D22FE004229444803397
:1051D0007541A90AA8059B0A184326D340414941B5
:1051E0002404009A019B0D005543641B4343E41AB9
:1051F00095B286B27543170C7E43030C5F4392B29F
:105200005A43B61802D301221204BF183204330CD9
:1052100052197B4152429C41002C02D400220130A1
:1052200051414008CA071043490802B06246D707F7
:105230009210084BD218084B9A4203D212058918D3
:10524000C919F0BD0020002A01DC3900F0BD01338E
:105250001905F5E7FD030000FE070000002200B578
:10526000203200F004F8080000BD000000220B15F9
:105270000AD410B5944600F031F81414013400DA61
:105280000021CB17144C20470020002170476244B6
:10529000343A0CD40C2A07DA040091409040524270
:1052A0002032D440214310BDD843D94310BD203211
:1052B00007D40C469440524220321141D040204342
:1052C00010BD0800C917203203D4524220321041C9
:1052D00010BD1800190010BD8F5200100A0DCC0F20
:1052E000531E1B05C91A520503D3C943404200D3BC
:1052F0000131520D03D0531CDB0A07D0121B0020D2
:105300006400611C89078912803A1203014BD21A8A
:1053100070470000FF03000051434343C9188C4607
:10532000110C83B24B4310B4040C614392B280B2AF
:10533000504362431C041B0C001910BC5941130458
:10534000120CC0185141614470470000132310B57E
:105350001C781348FFF768F9012C0BD004DD01001D
:105360008022104800F04AF80F48FFF755F90F4B1C
:10537000186010BD0B4C01005422200000F03EF8D4
:105380000B4B6365A365E36523666366A366E3660B
:1053900023676367A367E3672362E361E4E7C046CB
:1053A00053460000281C00204C330000EC1A00205B
:1053B000B553001007B5604601880A0A0230DF2A9B
:1053C000FAD1C9B2820804D302884088000410438D
:1053D00000E00068014A5050039007BD281C0020DF
:1053E00001480421014B1847F00F002039460010F6
:1053F000014B1B6818470000F00F0020014B5B6851
:1054000018470000F00F0020030010B508001B68CB
:105410001100984710BDC046F8B54746CE4680B546
:10542000437D80460C001500002B43D0002A34DD5C
:105430000A78037D00200A2A33D0012D1ED0204B8C
:105440000121671E994602E03100B54216D0635C27
:105450007A5C4E1C0A2BF7D10D2AF5D043461B6807
:10546000884204DA091A2018984743461B6802212B
:105470004846984730003100B542E8D1854204DD06
:105480004346291A1B68201898476419013C237861
:105490000D3B5A425341424613750CBC9046994607
:1054A000F8BD002BC9D14346054802211B68984727
:1054B0000120C2E70368110020009847EDE7C046CD
:1054C0004C820010F8B54E46DE4657464546344BF2
:1054D000E0B51C688146002C4ED0324B9A46324BC8
:1054E0009B4602E02469002C46D02368002BF9D0AB
:1054F00052461268002A01D0A242F3D14F46627D83
:1055000040CF002A48D0002EECDD49460979227DA3
:1055100000200A2939D0012E1ED04B4601215D1CE6
:1055200003E001354146464516D04B1C98462B7981
:10553000EA780A2BF5D10D2AF3D02368814203DDE6
:10554000091A3818984723680221584698470135A8
:10555000404641464645E8D1864203DD311A23687C
:1055600038189847BF19013F3B780D3B5A425341C9
:1055700023752469002CB8D14A46002313603CBC33
:1055800090469946A246AB46F8BD002AC3D10648CC
:10559000083998470120BEE7310038009847A1E755
:1055A000B4160020BC1600204C8200100B6870B5A9
:1055B00005000C00802B04D05A1C2260E4182571D1
:1055C00070BD0800FFF77EFF2368F5E7F0B5DE4603
:1055D00057464E464546E0B585B017001C0006000C
:1055E0000D00FCF7C9FD0023324A12184B41002B75
:1055F0005BDB31490800884602F012FC01906B1C0D
:1056000003D1300002F07CFB0500002C28D12B4B8D
:105610009A462B4B1C68002C15D0002F23D1294F04
:1056200002E02469002C0ED02368002BF9D03B68DF
:10563000002B01D0A342F4D120002A003100D04732
:105640002469002CF0D1019B002B2AD1681E8541D2
:10565000E8B205B03CBC90469946A246AB46F0BDC8
:10566000194B9A46D5E7174B9B4602ABDF1D0A2321
:10567000994602E02469002CE5D02368002BF9D07C
:105680005B461B68002B01D0A342F3D12A003100F6
:105690002000D0474B460122390020003B70D04704
:1056A000E8E7404602F074FBD0E70122074B524284
:1056B0009FE7C04640420F004010002019540010E0
:1056C000B4160020BC16002009540010FFFFFF7F15
:1056D000F0B5CE46474680B583B06B46DE1D05006B
:1056E0003070FCF749FD00231A4A12184B41002B79
:1056F0002CDB194F380002F093FB184B80461C68D6
:10570000002C16D0164B994602E02469002C10D0CC
:105710002368002BF9D04B461B68002B01D0A34215
:10572000F3D1200001223100FFF776FE2469002C1E
:10573000EED14346002B05D1280003B00CBC9046A7
:105740009946F0BD380002F023FBF5E70122054B36
:105750005242CEE740420F0040100020B416002015
:10576000BC160020FFFFFF7F70B5040002F0C8FAEE
:1057700000230100050001222000FFF727FF084B4E
:105780001C68002C06D06368002B05D0984724695C
:10579000002CF8D1280070BD2469002CF3D1F9E762
:1057A000B41600200A4A1368002B05D10CE01A0039
:1057B0001B691032002B07D09842F8D1002902D182
:1057C00003691360016170470029FCD01060FAE79B
:1057D000B4160020F0B5A3B004000D00FCF7CCFC1B
:1057E00000231B4A12184B41002B2CDB194E3000B2
:1057F00002F016FB00230700019322002B0001A9F1
:105800001548FEF7D9FE019B0500002B02D001A828
:10581000FFF758FE114B1C68002C06D06368002B64
:1058200008D098472469002CF8D1002F07D1280010
:1058300023B0F0BD2469002CF0D1002FF7D0300048
:1058400002F0A6FAF3E70122054B5242CEE7C0462A
:1058500040420F0040100020AD550010B41600204B
:10586000FFFFFF7F0FB400B583B004A901C9019108
:10587000FFF7B0FF03B008BC04B0184710B500F044
:10588000E1F910BD7047C0460022014B1A70704705
:10589000221B00204B790020FF2B0BD18B79002B92
:1058A00008D1CB79012B05D1082A03D98A78024B7C
:1058B00009301A707047C046221B00200120704733
:1058C00070B5012909D115495379107909781B025E
:1058D00003430020994202D070BD0120FCE75378B9
:1058E000012B08D0022BF7D1002064220021FDF704
:1058F0002BFA0120F0E7D478917824020C430500BC
:10590000E20502D5620A93401D000548FEF784FEB9
:105910007F210300214028009847C046221B002019
:105920005542000001230370004870475082001068
:105930004A780B7812021A438B7810B51B041A436D
:10594000CB781B0613439622D200934200D010BDA1
:105950000348FEF761FE0021030008009847C04697
:1059600055420000024B1860024B19607047C04658
:10597000181600201C160020114B70B51A68002A5A
:105980001AD0EFF3108172B610680028FCD0BFF374
:105990005F8F00220B48596002701B68BFF35F8F56
:1059A0001A6081F3108800240025074B1878FBF754
:1059B000EDFC2900200070BDFA240025A400F4E7C6
:1059C000CC1A0020241B0020231B002010B5024B02
:1059D0001878FBF7DBFC10BD231B002070B5050019
:1059E00000200E0001F03EFB002835D0002001F021
:1059F00051FB002830D0FCF7BFFB0023184A1218D7
:105A00004B41002B24DB174C200002F009FA002840
:105A100022D0002001F026FB00280BD1012000211C
:105A20004042032500F0DEFC6D42200002F0B0F998
:105A3000280070BD002001F02DFB0028EED02900C9
:105A40003200002001F032FB051EEED1033DECE7F1
:105A50000122054B5242D6E703256D42E8E7C046D6
:105A600040420F00F41A0020FFFFFF7FF0B5D6463A
:105A70004F464646C0B507000E00FCF77DFB0023ED
:105A8000394A12184B41002B5EDB38490800884622
:105A900002F0C6F9002804D11CBC90469946A246E3
:105AA000F0BD002001F0DEFA002851D00024002EC5
:105AB00035DD2F4B99469A4615E0002851D101203B
:105AC0000021404200F08EFC002001F027FB002066
:105AD00001F0C8FA002822D0002001F075FB002850
