:020000041000EA
:1000000000B5324B212058609868022188439860DF
:10001000D860186158612E4B002199600221596106
:100020000121F02299502B49196001219960352056
:1000300000F044F80222904214D00621196600F024
:1000400034F8196E01211966002018661A6600F04E
:100050002CF8196E196E196E052000F02FF8012189
:100060000842F9D1002199601B49196000215960AB
:100070001A491B48016001219960EB211966A021F2
:10008000196600F012F800219960164914480160C1
:100090000121996001BC002800D000471248134993
:1000A000086003C880F30888084703B5996A0420EC
:1000B0000142FBD001200142F8D103BD02B5186610
:1000C0001866FFF7F2FF186E186E02BD00000240BE
:1000D000000000180000070000035F00212200005C
:1000E000F4000018222000A00001001008ED00E03C
:1000F00000000000000000000000000074B24E7A12
:1001000000200420F7010010C3010010C5010010F9
:10011000C1010010C1010010C1010010C101001097
:10012000C1010010C1010010C1010010C701001081
:10013000C1010010C1010010C9010010CB01001065
:10014000CD010010CD010010CD010010CD01001037
:10015000CD010010CD010010CD010010CD01001027
:10016000CD010010CD010010CD010010CD01001017
:10017000CD010010CD010010CD010010CD01001007
:10018000CD010010CD010010CD010010CD010010F7
:10019000CD010010CD010010CD010010CD010010E7
:1001A000CD010010CD010010CD010010CD010010D7
:1001B000CD010010CD010010CD010010CD010010C7
:1001C00000BE00BE00BE00BE00BE00BEEFF3058054
:1001D000103800BEF2EB8871448C0010708C001057
:1001E0003402001090A31AE700201F49086006C8D7
:1001F00081F3088810471D48006800282FD10DA4FE
:100200000ECC002902D000F012F8F9E71849194A7B
:10021000002000E001C19142FCD1174988471749ED
:1002200088471749884700BEFDE701C901C29A42C5
:10023000FBD37047708C0010C000002068180020AD
:1002400018A40010000004200000042018A40010CE
:10025000001004200010042000000000704709482E
:1002600004F06EF90047000008ED00E0000000D047
:10027000681800207C230020912D00104D040010F0
:10028000B92E00105756000006005250ABB3605311
:10029000A88A001006005250861C0302B88A00107B
:1002A000060052505422A29DC48A001005005250EC
:1002B000DE65F46818A40010F8B5C0460448054B84
:1002C00010B5834203D0044B002B00D0984710BDDB
:1002D0006818002068180020000000000648074940
:1002E000091A8B10C90FC91810B5491003D0044B57
:1002F000002B00D0984710BD681800206818002017
:100300000000000010B5074C2378002B09D1FFF73F
:10031000D5FF054B002B02D0044800E000BF0123AD
:10032000237010BD901B00200000000068860010A4
:10033000054B10B5002B03D00449054800E000BF71
:10034000FFF7CCFF10BDC04600000000941B00204A
:1003500068860010FA22024B92001A607047C0466D
:10036000380F0020FA22014B1A607047380F002026
:10037000014B024A1A607047380F0020C409000080
:10038000FA22024B92001A607047C046380F0020D4
:1003900030B585B002F066F800290BD0FA220023B0
:1003A000920004F065F9264A1368C01A09280AD891
:1003B00005B030BDFA21890004F01CF9204A136809
:1003C000C01A0928F4D90A3301A8136000F0F0FF1D
:1003D00004001C48210006F001F806F0D3F9051EC0
:1003E00010D0002C02D006F0D5F9E1E7002007F08C
:1003F00047F80028DCD0144C2378002B19D10023B7
:100400002370D5E7002007F03BF80028D0D0002C5F
:10041000F1D06B466A469D81042302950121137237
:100420000020002202AB07F08FF80122064B1A7061
:10043000BEE7002300220121002007F085F8DEE757
:100440005C230020688600107623002070B501F040
:100450006FF807F0B7FB07F079FA00F0AFFE154C24
:10046000154D164E14E0FA220023920004F000F914
:100470002B682268C01A904208D39B1830782B60F2
:1004800007F0AAFB0122337853403370FFF780FF57
:1004900001200021404206F00BFA2368002BF5D022
:1004A00001F0E0FF0029DED1FA21890004F0A2F872
:1004B000DEE7C046380F00205823002078230020B4
:1004C0000020704710B502A80088022A00D010BD95
:1004D0000129FCD10028FAD01B781A4206D000224C
:1004E000064B01201A6007F077FBF0E7002007F0C9
:1004F00073FBFA22014B92001A60E8E7380F0020E4
:10050000F0B54F464646D6460023C0B58027804604
:100510000B269A4699463F01300004F04FFB0B0032
:1005200080210200C905002004F01EFF040040469F
:100530000D00384004F042FB22002B0004F008FBC1
:1005400000280DD00D2E28D01DDC33000B3B5A1E89
:1005500093414A467F00D31A9946BFB20136DBE782
:100560007F000136BFB2102ED6D150464844431CFE
:100570001CD0002802D0023000D10620E0BCBA46D0
:10058000B146A846F0BD0E2EEFD101235B429C463A
:100590007F00E244BFB20136BEE701235B429C46C6
:1005A0007F000E26E144E244BFB2B5E7484642422E
:1005B000504140000530E1E7F0B5DE4657464E4673
:1005C0004546E0B50C788BB00134E4B2042C06D972
:1005D0000BB0F0BCBB46B246A946A046F0BD07F042
:1005E00005FB8146002006F04BFF80460028EFD037
:1005F000032C5ED0042C18D0012C0CD0022CE7D197
:10060000002302930193053300220221009300206E
:1006100006F0E0FFDCE74B46002B59D1404C237835
:10062000002B6FD100232370D2E70B22002107A8F3
:1006300005F012FD00231A785B782C201B0213436F
:100640005BBA9BB29A4605F0EDFC002501240590AB
:10065000280004F0B3FA0B0080210200C905002035
:1006600004F082FE060050460F00204004F0A6FA77
:1006700032003B0004F06CFA002806D05B46059A75
:100680009B009D5001239C46E34464000135A4B2C5
:100690000B2DDDD15046FFF733FF4B46214C002B8D
:1006A00004D12378002B34D100239846434623708D
:1006B0008EE74B4607AA002B19D11B4C13802378D9
:1006C000002BAFD002230321002006F0F5FEA9E79E
:1006D000002302AA0793138304331375012107AB88
:1006E0000022002006F030FF0D4B1C7070E7EA235B
:1006F000032113800020E83B06F0DEFE01220A4BB6
:100700001A7065E7002300220121002006F01CFF7B
:1007100088E70B23042107AA002006F0CDFEC3E7DB
:1007200076230020752300207423002000487047A2
:10073000B887001000487047C8860010004870470E
:10074000A486001010B5002825D003282ED8184BF9
:100750008000C458200007F0ADFDC0B2011C1F2866
:1007600014D8C9B200281FD00023124AE05C01331C
:100770001080D8B202328142F8D8C0230131C9B208
:1007800049009B000B430C48038010BD1F21C9B2D8
:100790000028E9D108E0064B02221968054805F057
:1007A00061FCC1239B00EEE7044BECE70020ECE783
:1007B0003C0F0020FE1B0020FC1B00200203000059
:1007C000F0B54E46DE4657464546E0B583B06B462B
:1007D000DE1C002399463370C046C046C046D02474
:1007E00080252406ED01A561C046C046C046C04B29
:1007F000012298463100180007F0F6FE01AF1920DB
:10080000002101F059FD01233A000021404607F084
:10081000BBFEC046C046C0466561C046C046C04635
:100820001920002101F048FD4B463B702033337006
:10083000C046C046C046A561C046C046C04601226B
:100840003100404607F0D0FE1920002101F034FDB0
:1008500001223900404607F0C7FEC046C046C046E8
:100860006561C046C046C0461920002101F024FD44
:100870003F233B701E3B3370C046C046C046A56157
:10088000C046C046C04601223100404607F0ACFEDB
:100890001920002101F010FD01223900404607F027
:1008A000A3FEC046C046C0466561C046C046C046BD
:1008B0001920002101F000FD0322222392463A7004
:1008C0003370C046C046C046A561C046C046C0465B
:1008D0003100023A404607F087FE1920002101F05E
:1008E000EBFC01223900404607F07EFEC046C046C0
:1008F000C0466561C046C046C0461920002101F0CF
:10090000DBFC524623233A703370C046C046C046D3
:10091000A561C046C046C0463100023A404607F0D5
:1009200063FE1920002101F0C7FC01223900404676
:1009300007F05AFEC046C046C0466561C046C04684
:10094000C0461920002101F0B7FC4A4624233A7022
:100950003370C046C046C046A561C046C046C046CA
:1009600031000132404607F03FFE1920002101F01E
:10097000A3FC01223900404607F036FEC046C046BF
:10098000C0466561C046C046C0461920002101F03E
:1009900093FC01233B7024333370C046C046C046ED
:1009A000A561C046C046C04601223100404607F05E
:1009B0001BFE1920002101F07FFC01223900404676
:1009C00007F012FEC046C046C0466561C046C0463C
:1009D000C0461920002101F06FFC0F222623924609
:1009E0003A703370C046C046C046A561C046C04696
:1009F000C04631000E3A404607F0F6FD19200021AE
:100A000001F05AFC01223900404607F0EDFDC046D6
:100A1000C046C0466561C046C046C0461920002198
:100A200001F04AFC0E233B7019333370C046C046B8
:100A3000C046A561C046C046C046012231004046BE
:100A400007F0D2FD1920002101F036FC0122390007
:100A5000404607F0C9FDC046C046C0466561C04675
:100A6000C046C0461920002101F026FC4A46282332
:100A70003A703370C046C046C046A561C046C04605
:100A8000C04631000132404607F0AEFD192000217A
:100A900001F012FC01223900404607F0A5FDC046D6
:100AA000C046C0466561C046C046C0461920002108
:100AB00001F002FC4A4629233A703370C046C04612
:100AC000C046A561C046C046C0463100013240461E
:100AD00007F08AFD1920002101F0EEFB0122390008
:100AE000404607F081FDC046C046C046656101E052
:100AF00000C00340C046C046C0461920002101F096
:100B0000DBFBD2222A2393463A703370C046C0469C
:100B1000C046A561C046C046C0463100D13A4046F5
:100B200007F062FD1920002101F0C6FB0122390007
:100B3000404607F059FDC046C046C0466561C04604
:100B4000C046C0461920002101F0B6FBE1233B70EE
:100B5000B63B3370C046C046C046A561C046C046DD
:100B6000C04601223100404607F03EFD1920002119
:100B700001F0A2FB01223900404607F035FDC046D6
:100B8000C046C0466561C046C046C0461920002127
:100B900001F092FBC3233B70973B3370C046C046C5
:100BA000C046A561C046C046C0460122310040464D
:100BB00007F01AFD1920002101F07EFB0122390007
:100BC000404607F011FDC046C046C0466561C046BC
:100BD000C046C0461920002101F06EFBC4233B70C3
:100BE000973B3370C046C046C046A561C046C0466C
:100BF000C04601223100404607F0F6FC19200021D2
:100C000001F05AFB01223900404607F0EDFCC046D6
:100C1000C046C0466561C046C046C0461920002196
:100C200001F04AFBC5233B70973B3370C046C0467A
:100C3000C046A561C046C046C046012231004046BC
:100C400007F0D2FC1920002101F036FB0122390007
:100C5000404607F0C9FCC046C046C0466561C04674
:100C6000C046C0461920002101F026FBC6233B7078
:100C7000973B3370C046C046C046A561C046C046DB
:100C8000C04601223100404607F0AEFC1920002189
:100C900001F012FB01223900404607F0A5FCC046D6
:100CA000C046C0466561C046C046C0461920002106
:100CB00001F002FB5A4630233A703370C046C046FA
:100CC000C046A561C046C046C0463100D13A404644
:100CD00007F08AFC1920002101F0EEFA0122390008
:100CE000404607F081FCC046C046C0466561C0462C
:100CF000C046C0461920002101F0DEFA0622312349
:100D000093463A703370C046C046C046A561C0469F
:100D1000C046C0463100053A404607F065FC192040
:100D2000002101F0C9FA01223900404607F05CFCBD
:100D3000C046C046C0466561C046C046C046192090
:100D4000002101F0B9FA5A4632233A703370C04696
:100D5000C046C046A561C046C046C0463100053AFF
:100D6000404607F041FC1920002101F0A5FA0122BC
:100D70003900404607F038FCC046C046C0466561B1
:100D8000C046C046C0461920002101F095FA4A46E7
:100D900033233A703370C046C046C046A561C04692
:100DA000C046C04631000132404607F01DFC192004
:100DB000002101F081FA01223900404607F014FCBD
:100DC000C046C046C0466561C046C046C046192000
:100DD000002101F071FA4A4634233A703370C0465C
:100DE000C046C046A561C046C046C046310001327B
:100DF000404607F0F9FB1920002101F05DFA0122BD
:100E00003900404607F0F0FBC046C046C046656169
:100E1000C046C046C0461920002101F04DFA4A469E
:100E200035233A703370C046C046C046A561C046FF
:100E3000C046C04631000132404607F0D5FB1920BC
:100E4000002101F039FA01223900404607F0CCFBBD
:100E5000C046C046C0466561C046C046C04619206F
:100E6000002101F029FA4A4636233A703370C04611
:100E7000C046C046A561C046C046C04631000132EA
:100E8000404607F0B1FB1920002101F015FA0122BC
:100E90003900404607F0A8FBC046C046C046656121
:100EA000C046C046C0461920002101F005FA1123B2
:100EB0003B7026333370C046C046C046A561C0466D
:100EC000C046C04601223100404607F08DFB192084
:100ED000002101F0F1F901223900404607F084FBBE
:100EE000C046C046C0466561C046C046C0461920DF
:100EF000002101F0E1F94A463C233A703370C046C4
:100F0000C046C046A561C046C046C0463100013259
:100F1000404607F069FB1920002101F0CDF90122BC
:100F20003900404607F060FBC046C046C0466561D8
:100F3000C046C046C0461920002101F0BDF94A460E
:100F40003D233A703370C046C046C046A561C046D6
:100F5000C046C04631000132404607F045FB19202B
:100F6000002101F0A9F901223900404607F03CFBBD
:100F7000C046C046C0466561C046C046C04619204E
:100F8000002101F099F9524620233A703370C0468F
:100F9000C046C046A561C046C046C04631000E3AB4
:100FA000404607F021FB1920002101F085F90122BC
:100FB0003900404607F018FBC046C046C046656190
:100FC000C046C046C0461920002101F075F9002135
:100FD000044801F071F903B0F0BCBB46B246A94623
:100FE000A046F0BDDC050000F0B5C64600B582B0F5
:100FF000C046C046C046D02780233F06DB01984646
:10100000BB61C046C046C0466B46DC1D30231C4D4C
:1010100021002370002228002F3B07F0EDFAD22395
:10102000F0262100237000222800D13B07F0E4FACB
:101030002100012300222800267007F0DDFA21009C
:10104000012300222800267007F0D6FA2100012390
:1010500000222800267007F0CFFA01230022210089
:101060002800267007F0C8FAC046C046C04643466E
:101070007B61C046C046C04602B080BCB846F0BDE9
:1010800000C00340F0B5C64600B582B0C046C046B9
:10109000C046D02780233F06DB019846BB61C0468F
:1010A000C046C0466B46DC1D2A231C4D2100237020
:1010B00000222800293B07F09FFAD223F0262100C6
:1010C000237000222800D13B07F096FA210001236B
:1010D00000222800267007F08FFA21000123002249
:1010E0002800267007F088FA21000123002228003A
:1010F000267007F081FA01230022210028002670C3
:1011000007F07AFAC046C046C04643467B61C046F7
:10111000C046C04602B080BCB846F0BD00C0034027
:10112000F0B5C64600B582B0C046C046C046D0271E
:1011300080233F06DB019846BB61C046C046C046DF
:101140006B46DC1D2B231C4D210023700022280040
:101150002A3B07F051FAE123F026210023700022F8
:101160002800E03B07F048FA210001230022280074
:10117000267007F041FA2100012300222800267082
:1011800007F03AFA2100012300222800267007F018
:1011900033FA0123002221002800267007F02CFAE0
:1011A000C046C046C04643467B61C046C046C046B6
:1011B00002B080BCB846F0BD00C00340F0B5C646E2
:1011C000D024802700B5784E82B03000774906F0F1
:1011D00015FD0121042000F0B5F90121062000F0E1
:1011E000B1F90121072000F0ADF92406FF010E201E
:1011F00000F0C0F967621120676100F0BBF980233D
:101200009B0263621920A361984600F0B3F9802322
:101210009B046362642001F063F8FFF7D1FAFFF7E3
:10122000E3FEFFF72FFF6B46DD1D03236A462B709D
:1012300020339371C046C046C046A761C046C04631
:10124000C0466B460122991D300007F0CDF91920E8
:10125000002101F031F801222900300007F0C4F923
:10126000C046C046C0466761C046C046C046192059
:10127000002101F021F8FFF753FFFFF751FFE223B0
:1012800000222B7029003000E13B07F0B5F9C04681
:10129000C046C04643466361C046C046C0460F20B4
:1012A000002101F009F8C046C046C0464346A3618C
:1012B000C046C046C046E12300222B702900300002
:1012C000E03B07F099F9C046C046C046434663611B
:1012D000C046C046C0460F20002100F0EDFFC046CA
:1012E000C046C0464346A361C046C046C0460F2321
:1012F0006A462B7011339371C046C046C046A76141
:10130000C046C046C0466B460122991D300007F01A
:101310006BF91920002100F0CFFF012229003000D5
:1013200007F062F9C046C046C0466761C046C04685
:10133000C0461920002100F0BFFF0E236A462B7023
:1013400019339371C046C046C046A761C046C04627
:10135000C0466B460122991D300007F045F919205F
:10136000002100F0A9FF01222900300007F03CF91C
:10137000C046C046C0466761C046C046C046192048
:10138000002100F099FFC046C046C0464346636155
:10139000C046C046C0468720002100F08DFF02B045
:1013A00080BCB846F0BDC04600C00340A086010026
:1013B00030B5040083B0062004F034FE00236A46F2
:1013C0002060D370C046C046C046D0248025240685
:1013D000ED01A561C046C046C0466B460122D91C3E
:1013E000524807F001F91920002100F065FF0123A0
:1013F000002101AA4D4807F0C7F8C046C046C046C4
:101400006561C046C046C0461920002100F054FF67
:1014100017236A46D370C046C046C046A561C04681
:10142000C046C0466B460122D91C404807F0DCF894
:101430001920002100F040FF0123002101AA3B48B0
:1014400007F0A2F8C046C046C0466561C046C04627
:10145000C0461920002100F02FFF019B0020DB0770
:1014600061D4C046C046C046A561C046C046C0461D
:1014700061236A4601A913712C480022603B07F0E2
:10148000BBF801AA01230221284807F07DF801AA30
:1014900001230221254807F077F801AA0123022140
:1014A000224807F071F801AA012302211F4807F022
:1014B0006BF801AA012302211C4807F065F80123FB
:1014C000022101AA194807F05FF8C046C046C0468D
:1014D0006561C046C046C04640236A461371193B49
:1014E000D370C046C046C046A561C046C046C0468F
:1014F0006B460122D91C0D4807F076F8192000210F
:1015000000F0DAFE012201A9084807F06DF8C04694
:10151000C046C0466561C046C046C046192000218D
:1015200000F0CAFE012003B030BDC04600C0034039
:1015300010B504F05FFF024804F076FE10BDC0460F
:10154000CC870010094A10B59446402483006344B8
:101550001A68C00062408034144080225201134354
:101560001C60034B9C466044416010BD04C00140B8
:10157000004001400123D022834012069362936110
:10158000094A40219446830063441A68C0004A40D7
:10159000803111408022520113431960034B9C4655
:1015A000052360444360704704C00140004001408F
:1015B000024B18688007C00F7047C04600C0064045
:1015C00070B5EFF3108C72B60D4D2B68002BFCD06C
:1015D000BFF35F8F0724CB08C618C05C01230C4003
:1015E000A3401C000440034207D118433070BFF3EE
:1015F0005F8F2C608CF3108870BD100001F060FCD0
:101600002C0100D0F8B54746CE46884680B5EFF3AA
:10161000108C72B6214D2C68002CFCD0BFF35F8F6C
:101620009A422CD8D4080727055D061901241740D3
:10163000BC402C421FD007210127894609E0D4086D
:10164000055D06194C4639001440A1400C002942A2
:1016500011D001329342F2D201204042BFF35F8F9A
:1016600000220E4B1A608CF3108800280FDBC0BCE0
:10167000B946B046F8BD254310003570EEE7BFF31C
:101680005F8F00232B608CF310880120404243467B
:10169000002BECD0089801F013FCC0462C0100D0C0
:1016A0000021044B044ABFF35F8F02C39342FAD177
:1016B0007047C046000100D0800100D0044A107875
:1016C000431CDBB2172B00D9102313707047C046A0
:1016D0004C0F002010B5064B064C82B00100009361
:1016E00018221F232000FFF78DFF02B010BDC04657
:1016F00018880010DC1E002001238340002904D03C
:10170000034A1360034A13607047034A1360FBE700
:1017100080E200E000E100E080E100E0024B1030F8
:101720009B688000C058704700ED00E070B50D0068
:10173000EFF3108672B60F4A1368002BFCD0BFF38C
:101740005F8F0D4B10309B6884001B590B4A9342EE
:1017500003D09D4201D001F0CBFB074B9B681D518C
:10176000BFF35F8FBFF35F8F0022024B1A6086F3D7
:10177000108870BD240100D000ED00E0CD01001004
:10178000F0B557464E46DE464546E0B585B0060004
:1017900000911700EFF3108B72B66A4A1368002BA2
:1017A000FCD0BFF35F8F0025674B5D579A46002D35
:1017B00000DA8BE06B00654C01935B199B00984647
:1017C000A146C1444B4652469B7910361370604B7C
:1017D000B6009B6899590B1B2F2B33D95D4B99424F
:1017E00000D0ACE0019B42469C465B4B6544AD009B
:1017F00063535A4B0232A218043B9B1A1B05584AEA
:101800005B0D651913436B80564B0121AB80FF23A1
:10181000AB71009BEF71AB604B460B4319004C4B17
:101820009B689951BFF35F8FBFF35F8F0022454BD9
:101830001A608BF3108805B0F0BCBB46B246A946CF
:10184000A046F0BD01200A008243D3798C46BB42FA
:1018500031D84546130044491B1B5B415943090DD0
:101860003D4B63533D4B02356519043B5B1B1B0528
:101870003B4D5B0D2B43AA464D466B800425AC4681
:101880005546E044131F44441B1B1B055B0D1D43C1
:101890004B46997100999D8099604946DF71334BA1
:1018A00001431360BBE75800C01880002018C179BD
:1018B000B94211D902000623D356002BF3DA029362
:1018C000131D9A462A4B6146039319E001F010FB61
:1018D000002553465D576DE7908802934005131D20
:1018E0009A46031561469C464046D44463460430FC
:1018F0002018181AE0230005400D1B02184303901E
:1019000004235B429C46E14450464B461B1A1B0590
:101910005B0D9C46124B95719846634640460343C7
:101920009380019B5A199200039BA418A380029BE9
:101930000E4AA371009B2260E771A3606FE701F07C
:10194000D7FA4FE7240100D077230020500F002062
:1019500000ED00E0CD01001000A1FFFF800F00208E
:1019600000E0FFFF01BDFFFFAAAA00000148804779
:1019700001BD0000F0B5DE4657464E464546E0B58F
:101980000C0083B0EFF3108872B65D4A1368002B29
:10199000FCD0BFF35F8F5B4B5B499A680300103349
:1019A0009F00D5598D4239D0A5424AD0574EAA1B27
:1019B0002F2A33D801229246824091464846544A03
:1019C0001268104001904846524A1060BFF35F8F82
:1019D000EFF305829346002A35D0934201D001F0FF
:1019E00087FA2A0053469A439068844208D175E0EA
:1019F0004B005B189B00F3189868A04234D01A0083
:101A0000062151560029F3DA844253D0019B002B62
:101A100026D04A46404B1A603D4B1A60394B9B68B2
:101A2000DD51BFF35F8FBFF35F8F0022344B1A602D
:101A300088F3108803B0F0BCBB46B246A946A04666
:101A4000F0BD0D00EAE72A0053469A4390688442AD
:101A5000D6D1062010561300002809DA0D0031E017
:101A60004A462C4B1A60D9E706201856002822DB7C
:101A700042001118890074188A46A1689960E179BA
:101A8000D971062161569971002925DBA488F11AC4
:101A90006405241554440919E0240905490D24025C
:101AA0002143998013181D4A9B001178F3189971EE
:101AB0001070ABE713005946002914D1FF31917122
:101AC0001749918015490A789A71164A9B1B5B4108
:101AD0005A43120D0A7099E71349E2E7062010569F
:101AE00013000028C4DA114A1149D21A083A5002E8
:101AF000400D014399800F4952080A43DA8085E777
:101B0000240100D000ED00E0CD010010500F0020B6
:101B100000E100E080E100E080E200E077230020C7
:101B200001BDFFFFAAAA000001BD00008A0F00202E
:101B300000F0FFFF00F8FFFF70B5EFF3058101240F
:101B40000443EFF3108C72B6214A1368002BFCD0CB
:101B5000BFF35F8F1F4B05001F4AED1A6D416A43AB
:101B6000120D1E4D8900AE6852B27658A6421CD0A6
:101B70000621595691421CD012215956914222D029
:101B80001E215956914220D02A21595603249142B0
:101B900010D0134B19781A708171BFF35F8F002238
:101BA0000B4B1A608CF3108870BDAB680D4C5C5009
:101BB000EFE700246100091989005B18FF21997182
:101BC00009499980E5E70124F4E70224F2E7C046D9
:101BD000240100D0500F0020AAAA000000ED00E070
:101BE00077230020CD01001001BDFFFF054B064A01
:101BF0001360064A136053609360D36013615361AE
:101C0000936170478080808000E400E004E400E09D
:101C1000024B9C46614489000160704740000034DB
:101C200010B50400FFF74AFD01002000FFF7F0FFA8
:101C3000FF232371BFF35F8F10BDC04610B50400B2
:101C4000FFF73CFD01002000FFF7E2FFFF23A38028
:101C5000BFF35F8F10BDC04610B504000120FFF731
:101C600039FD034BC3189B002360BFF35F8F10BD8A
:101C70004000003483680B4810B5844661446244D8
:101C80001201090159189B185C684A6801209442A6
:101C900001D802D00020C0B210BD1A680B689A4269
:101CA000F9D8F7E7FFFFFF0F0A4B1968EFF3108031
:101CB00072B60A68002AFCD0BFF35F8F1B68BFF3BF
:101CC0005F8F00221A6080F3108840BF002000213F
:101CD0007047C04654230020F8B5574645464E4647
:101CE000DE46E0B598460CAB1C780DAB1B780700C0
:101CF00091469A460568002C5ED1AC7B002C3BD007
:101D0000660029683619033E89194B78AB73002B9E
:101D100000D1EB7300238B704B700B702D4BE218CE
:101D2000BB6812019B184A461A6042465A600A9ADA
:101D30009A600B9ADA6000238B704B700B706B7B90
:101D40009B46002B2BD022005946A8686B68984709
:101D50002A68002816D05B4658465B005B449619FB
:101D6000033BB070D118D35C002B00D073705B467E
:101D70000C706B735C4513D0F0BCBB46B246A946F1
:101D8000A046F8BD5B465B005B44033BD3189C70E8
:101D90009119925D002A00D05A705B460B706C73EB
:101DA0004A464346387D00F0BDFB051E0AD10E9B16
:101DB000002BE1D01D70DFE7660029683619033E6D
:101DC0008919ABE75346002BF1D12100386800F0A8
:101DD000D3FDECE7FFFFFF0FF0B5DE4657464E465A
:101DE00045460023E0B58BB00893674B8200D4587A
:101DF00000239B46099000F035FB02000B00606851
:101E0000EFF3108A72B6564601680029FCD0B2463C
:101E1000BFF35F8F21684F7B8C46002F2ED0A568C3
:101E20005A49A94679180901894449460868496808
:101E300005000E00AD1A9E41002E5FDD02000B0072
:101E4000099800F06FFB00230022994600230692B8
:101E50000793002398466368BFF35F8F5A461A6062
:101E60008AF310884346002B12D10028C3D10BB04F
:101E7000F0BCBB46B246A946A046F0BD00230022F6
:101E80009946002306920793002300209846E2E734
:101E9000089B494618023843C047626805000E0097
:101EA000EFF3108A72B61368002BFCD0BFF35F8F7C
:101EB000002E40DB2B00334302D02369002B55D189
:101EC0002368D97B002905D01A68480041185218A8
:101ED000033A57709A7B002A00D19F73DF73E26840
:101EE000013FD35D0133D3555B4623616368BFF384
:101EF0005F8F5A461A608AF310887CE7002E01D162
:101F0000002D9BD10021604600F0B4FC4B461A68BE
:101F10005B68069207934B469B6898464B46DB6886
:101F20009946E368DB19013B1B7808931B020343C6
:101F3000236100208FE72369002BC1D0069A079BFD
:101F40008021521BB34109068B4202D30122104B60
:101F500052420021049101310391494601914146C9
:101F6000200002970091FFF7B7FEBDE700F07AFA74
:101F70002A00330012184B41802109068B42E8D316
:101F80000122034B5242E4E738230020FFFFFF0FFA
:101F9000FFFFFF7F10B5144C6368002B04D00A21AB
:101FA0001248FFF735FE10BD2300114A10212068AA
:101FB00000F076FB032000F049FA032000F020FB3C
:101FC00003200C4900F068FAFFF778FB0A4B9C46A7
:101FD00003232375D0231B061B6860446375074BDE
:101FE00080006060DC60DAE7980F00205423002056
:101FF000751C0010D91D001040000034382300204B
:10200000F0B557464E464546DE46E0B585B00193ED
:1020100010AB1B780600039300239A469846009263
:102020007268EFF3108B72B61368002BFCD0BFF30D
:102030005F8F3568AC7B002C00D16FE067002B68A8
:102040003F19033FDB195A78AA73002A00D1EA73BB
:102050004B4AA118B2680901521800980199106002
:1020600051600E9991600F99D16042469A705A70F2
:102070001A706B7B9946002B00D170E02200494614
:10208000A8686B6898472A6800285BD04B4648468A
:102090005B004B44D719033BB870D118D35C002BBD
:1020A00000D07B704B460C706B734C4558D0F36876
:1020B0001B19013B18787368BFF35F8F42461A60A3
:1020C0008BF310885346002B08D10002204305B043
:1020D000F0BCBB46B246A946A046F0BD039B002B10
:1020E0004BD00E9B00200F999847030004000D0071
:1020F0000B4342D000291ADA009A019B121BAB4114
:102100000092019380221206934204D301231D4CB6
:102110005B4200930194039B9A4681E77368BFF387
:102120005F8F1C608BF3108801204042CFE700F0E6
:1021300099F9802224184D41120600940195954288
:10214000E9D3E3E74B465B004B44033BD3189C7059
:10215000D119D25D002A00D05A704B460B706C73B7
:10216000307D009A019B00F0DDF9824600289ED068
:102170002100306800F000FC99E70020A7E7C04686
:10218000FFFFFF0FFFFFFF7FF8B50B000400416862
:10219000EFF3108572B60A68002AFCD0BFF35F8F98
:1021A0002068D9B2427B8A4209D0FF261E400268CD
:1021B0007700BE199219033A9278002A12D0FF26AE
:1021C000E2681E409219013A1B0A1278DBB29A4269
:1021D0000DD000206368BFF35F8F00221A6085F383
:1021E0001088F8BD21699942F3D12261F1E700F02E
:1021F000C3FBEFE7F0B504000D0006267642F717A3
:10220000C64636196F4100B584B08F4214D811D03C
:1022100000F028F932003B00121A8B41002B15DC2C
:10222000002B3ED02000290000F026F904B080BC2D
:10223000B846F0BD8642EBD90026002700F012F91F
:1022400032003B00121A8B41002BE9DD0023029380
:102250000193154B3200009314483B00FFF7D0FE6A
:102260000028DFDB00239846BC46114A114F7B6AE9
:102270009C4504D8B96AB142D4D29C45D2D11168E8
:10228000EFF3108072B60B68002BFCD0BFF35F8FAA
:102290001368BFF35F8F4146196080F3108820BF39
:1022A000E5E7002ABED0D1E7A91C0010980F002056
:1022B000542300200040054070B504000D0000F0DC
:1022C000D1F88023001969411B06994202D30120ED
:1022D00002494042FFF78EFF70BDC046FFFFFF7FFF
:1022E00070B5060000F0BEF8FA2204000D000023CD
:1022F00030000021920003F033FE80230019694171
:102300001B06994202D3012002494042FFF772FFA7
:1023100070BDC046FFFFFF7F70B5EFF3058305007A
:102320000C0084B0002B0AD0164A0020536A9C424D
:1023300003D8926A0130AA421FD304B070BD124E76
:1023400002930193114B0200009330000B00FFF742
:1023500057FE011EE8DD20BF3000FFF715FF094BD7
:1023600000205A6A9442E8D89B6A0130AB42E4D21A
:10237000A41A631E9C41E0B2DFE7E31A5A1E9341A0
:10238000D8B2DAE700400540980F0020A91C0010E1
:10239000F0B5EFF30582D6464F4646461000C0B56D
:1023A0001038EFF3108872B6214C2368002BFCD054
:1023B000BFF35F8F0123190081401E4D1F00696329
:1023C000AA461D4D29601D4D2E78AC463500C540EE
:1023D0002F402B4215D053465F6A194B8500EB58AE
:1023E0009F4218D36246174B8E43EB581670BFF3CB
:1023F0005F8F0022226088F31088002B06D0984758
:1024000004E0BFF35F8F276088F31088E0BCBA4612
:10241000B146A846F0BD0C4B92009C46624413683E
:102420001360BFF35F8F0023236088F31088EDE70C
:10243000280100D0004005403C7005407923002071
:1024400060230020CC1D0020D03F054010B5034B79
:1024500001001800024AFFF7B3F810BD73230020F3
:1024600034880010034B596A0A00986A596A8A42F4
:10247000FAD1704700400540064A536A9942FCD899
:1024800007D1044B02E05A6A914202D19A6A824211
:10249000F9D370470040054070B504000D00EFF31C
:1024A000108672B61A4A1368002BFCD0BFF35F8FF8
:1024B000002D1BD02000FFF731F9164981420AD0C8
:1024C0002000FFF733F901212000FFF715F9012360
:1024D000A340114A1360114BA400E550BFF35F8F76
:1024E00000220B4B1A6086F3108870BD0121A140B9
:1024F0000A4BA200D5500A4B20001A788A4305499E
:102500001A70FFF737FA00212000FFF7F5F8E5E72A
:10251000280100D09123001038600540CC1D002018
:1025200079230020F0B54F46D6464646C0B5070091
:102530002E4C616A0D00A66A616AA942FAD18B42EB
:1025400008D805D00120E0BCBA46B146A846F0BD87
:10255000B242F7D9EFF3108A72B625480168002914
:10256000FCD0BFF35F8F0125BD4022491F4C884638
:10257000097889462943C9B28C46414660460870AD
:10258000391D890065630A511B49B8004350216A0F
:102590000020294219D0616A0800A66A616A814256
:1025A000FAD18B4219D801D1B24216D8CC450BD002
:1025B0000E4B1F221D625D6301233A4093400F4A78
:1025C000136043464A461A700120BFF35F8F002212
:1025D000074B1A608AF31088B5E70020BFF35F8FBE
:1025E0000022034B1A608AF31088ACE700400540D4
:1025F000280100D0792300206023002080E200E041
:10260000EFF3108C72B60A490B68002BFCD0BFF3B5
:102610005F8F01238340074A0748136202789A4379
:102620000270BFF35F8F00230B608CF3108870473C
:10263000280100D0004005407923002070B5050036
:102640000E001400002923D0002A12D080686B6885
:102650009847296800280ED063001B197200033BBD
:102660009219CB18033A9E7088188A5C002A11D1FF
:102670000470300070BD73009B196200033B121997
:10268000CB18033A9C7088188A5C002A05D1067022
:102690002000EFE75A700470EBE75A700670F7E716
:1026A00030B583600023CCB24373013304734260BE
:1026B0008373C4730D000068012C06D9421C0133DA
:1026C000DBB2137003329C42F9D1FF2129404B0049
:1026D0005B18C01800230338437030BD70B5050087
:1026E0000C1E07D0630001681B19033BCB185A78F6
:1026F000002A01D1200070BD50008018033809184D
:1027000000204E784870210058702800FFF796FF8F
:10271000310004002800FFF7E1FF0600002C26D05E
:102720000028E7D021003200A8686B689847296824
:1027300000280ED073009B196200033B1219CB18BE
:10274000033A9C7088188A5C002A00D05A70067080
:10275000D0E763001B197200033B9219CB18033AB0
:102760009E7088188A5C002A00D05A700470340069
:10277000C0E7C046F0B557464546DE464E46E0B592
:102780000D006F0001687F19033F0400C85D83B02E
:102790000192CA19002850D043001B18033BCB18E4
:1027A0005E78B446002E1AD1019E002E42D0E67B00
:1027B000002E04D073009B19CB18033B5D70A37BE4
:1027C000002B00D1A573E57300282FD1002353708F
:1027D00003B0F0BCBB46B246A946A046F0BD7200AD
:1027E0006244033A8A18517888460021517089461C
:1027F0005970320001002000FFF720FF4346824657
:10280000002B07D05B0021684344033BCB185A7868
:10281000002A16D1424651462000FFF70FFF2168DB
:10282000019BCA19002BC2D10028CFD043001B182E
:10283000033BCB1800219970C8E7019B002BB6D150
:10284000C4E7500080180338091848788346484682
:102850004870587041462000FFF7F0FE5946804608
:102860002000FFF73BFF414602002000FFF7E6FE95
:102870008046CFE7F0B557464546DE464E46E0B5C2
:1028800083B00191457B04006F0000687F19033F0E
:10289000C15DC219002952D04B005B18033BC3181D
:1028A0005E78B446002E1CD1019E002E44D0E67BFB
:1028B000002E04D073009B19C318033B5D70A37BEB
:1028C000002B00D1A573E573002931D10023280026
:1028D0005370617303B0F0BCBB46B246A946A04634
:1028E000F0BD72006244033A82185078804600209E
:1028F00050708146587032002000FFF79FFE43461B
:102900008246002B07D05B0021684344033BCB1871
:102910005A78002A17D1424651462000FFF78EFE12
:10292000019B01002068C219002BC0D10029CDD025
:102930004B005B18033BC31800209870C6E7019B4F
:10294000002BB4D1C2E7500080180338091848782A
:10295000834648464870587041462000FFF76EFE97
:10296000594680462000FFF7B9FE4146020020008C
:10297000FFF764FE8046CEE770B5050000292CD035
:10298000437B8B422ED04C0000686418033C041932
:10299000A278002A21D053009B18033BC25CC618C2
:1029A0008A4202D11BE0002A08D053009B18033B47
:1029B000C3185A788A42F6D162785A7000230122ED
:1029C0002800A3706370FFF7D5FE697B0200280022
:1029D000FFF734FE6873012000E0002070BD6378CB
:1029E0003370EBE701221900FFF7C4FEF2E7C0469F
:1029F00010B50C2082B000F0AFF9FEF7D9FD002829
:102A000010D0864B86488649864A1860596098607F
:102A1000D960186159619861D961186259625A6226
:102A200002B010BD804CA06700F09EF901227F4BE0
:102A30001A60636C012BFCD103227D4B1A607A4A29
:102A4000936B012BFCD1013301217A4A7A48009320
:102A5000043300F02DF90523784A009301217848CA
:102A600000F026F9774B5A68FF2A02D880225200DC
:102A70005A6080226E4B694C12011A60216900294C
:102A800005D0606901F0B6FD01300138FDD1E022CA
:102A90006C4B6D4819680A40026002221968514067
:102AA00001320A40042102609A681142FCD0802160
:102AB000664A09011160802252005A60644B23610A
:102AC000644B5968FF2900D85A6003220121574BF3
:102AD0001A60604A93681942FCD0E02310680340F2
:102AE0005D480360126803234A4002211340594A9B
:102AF000036093681942FCD08021584B090119608A
:102B00008021574B490051606361564B5A68FF2A38
:102B100000D859608022544B12011A60E1690029E3
:102B200005D0606901F066FD01300138FDD1E02378
:102B30004C4A11680B404D490B6080214C4B0901F8
:102B400019608021364B49005160E361494B5A6856
:102B5000FF2A00D859608022474B12011A60216A6F
:102B6000002905D0606901F045FD01300138FDD133
:102B7000E023404A11680B4040490B608021404BE4
:102B80000901196080235B0053608022244BD2022C
:102B900023623C4B5968914200D25A6080223A4BE2
:102BA00012011A60616A002905D0606901F022FDF6
:102BB00001300138FDD1E023324A11680B4033491E
:102BC0000B608021324B090119608023DB025360C6
:102BD000144B63622F4B5A68FF2A02D8802252009E
:102BE0005A6080222C4B12011A60A169002905D07D
:102BF000606901F0FFFC01300138FDD1E023254A76
:102C000011680B4025490B608021254B0901196093
:102C100080235B005360124BA36101E7681800201A
:102C2000006CDC021BB70000008000403CB000409C
:102C300030B00040002F685900800240008C864769
:102C400000C00240308000403090004030A0004082
:102C5000001BB7003C8000403C9000403CA000407E
:102C6000405973075480004054B0004054900040D5
:102C700054A000406080004060B000406090004080
:102C800060A000406C8000406CB000406C90004040
:102C90006CA000404880004048B000404890004090
:102CA00048A00040014B8000C058704768180020C1
:102CB000F8B504000C2017001D000E0001F09AFC6E
:102CC00043011B1A9901C91AC90009188901380062
:102CD00001F090FC069B29041B0319432368002B79
:102CE00020DB194B194DE3185A42534180225201FF
:102CF00094461B03164A63441360164A13601F0070
:102D0000AA689743FBD1C023221D9B0113432122B4
:102D10002660A0601A602268002AFCDA0822E160BE
:102D20001A60F8BD3F2322681340B342D9D1A3688B
:102D30001B051B0D8342D4D1EE22E368D20213405F
:102D40008B42CED1EDE7C0460040FDBF00C0004041
:102D500000E0004000F000408023024A9B00034353
:102D6000D362704700800540AA23064A1B01136006
:102D70002F230549D360054B19605368002BFCDAFB
:102D80007047C0460040024000B0FA0000600240B8
:102D90002C4B2D4A70B51A602C4A2D4B2D491A60C8
:102DA00014008B689C43FBD12B4D2C4EB54208D2AE
:102DB000013E761BB60808CD984723000134B34284
:102DC000F9D1FFF715FE264A214B1A60214A936874
:102DD000DB43DB01DD09002BF9D14022214B224CE2
:102DE000224E9A675A671A67DA66B44208D2236895
:102DF0002000002B20D00834FEF720FFB442F6D389
:102E00001B4C1C4EC022B168200003F02BF9B460AB
:102E1000FEF746FCFEF7EAFEFFF7BCF8164C174E2D
:102E2000B44208D2013E361BB60808CC98472B00A6
:102E300001359E42F9D170BD0834FEF7F1FEB4426F
:102E4000D5D3DDE700E00040BFCDFBFEFE7F3C00B8
:102E500000F0004000C00040501800206018002022
:102E6000FFFFFF0100F0014048180020501800202B
:102E70000000002000ED00E060180020681800202D
:102E800000BEFDE7094A03001068002805D0084984
:102E9000C3188B4207D81360704706480449C3180B
:102EA00010608B42F7D901204042F5E72C1F00202B
:102EB000000004207C23002010B5FFF7E1FFC0468E
:102EC0000FB400B5084883B003F0AEF9049B002BA3
:102ED00007D005A91800019101F012FB034803F087
:102EE000A3F90120FFF7CCFF588800106888001074
:102EF00010B50148FFF7E4FF6C8800107047C0462A
:102F0000F8B557464546DE464E46E0B598460A9B1C
:102F100006009A460D9B0F00934615009B0710D1A3
:102F20000B9B0C9A93420CD213005C460B9A9D1A91
:102F30005D4422004346013439002020B047A542B9
:102F4000F7D10B9C6319002C09D01D0053462A1B96
:102F5000013C185D39004346B047002CF6D10D9B6B
:102F60009B070ED55B46EC1A0C9BA34209D99946E8
:102F70002A004346390020200134B0470135A145DD
:102F8000F6D82800F0BCBB46B246A946A046F8BD1C
:102F9000F0B54F464646D646C0B584B098460EAB0F
:102FA0001B7894469946129B0D9C109F119E9A0780
:102FB00024D4002E6AD1BC4220D201221A4092466B
:102FC000202C00D1CBE00C9A551E302201E0202CA1
:102FD00030D001342A55A742F9D85246002A0DD0E4
:102FE000B4420BD20C9A551E3022202C02D126E07E
:102FF000202C61D001342A55B442F9D1DA0634D5F7
:103000005A0562D4002C5CD10F9A102A00D191E0AD
:10301000022A00D1A1E030220C9C227001244A46F1
:10302000002A5CD15A0700D47DE02B220C9D2A5542
:1030300001341CE05246002A02D0202E3CD9202424
:10304000DA0614D55A0512D4202F00D197E0202E8D
:103050003BD120261F2234000F9D102D00D181E08E
:10306000022D4CD030250C9FBD54202CD7D103937A
:103070000C9B62460093029643460194FFF740FF83
:1030800004B0E0BCBA46B146A846F0BD0122150026
:103090001D40AA461A4227D04A46002A33D10C3294
:1030A0001A4230D1BC429BD2202C00D08BE7202E7C
:1030B000C5D8DA06A4D4DAE72024DA06D7D55A052B
:1030C00003D4A74221D0B4421FD00F9A102A21D096
:1030D000022A10D0202CCAD022000134C2E72D22AF
:1030E0000C9D2A550134C2E7BC4200D386E7202C50
:1030F00000D068E7E1E7202CB9D022000134622536
:103100000C9FBD54E6E7013ECCE7621E012C00D1C6
:103110007AE7A1E79A0616D4202CA8D078220C9D35
:103120002A550134D6E71A07A1D520220C9D2A552D
:1031300001349CE79A060ED478220C9C227030222F
:10314000627002246BE7202C91D058250C9A12193A
:1031500015700134BEE75822EFE76222EDE7002A3E
:10316000A7D1AAE7023C9D0604D478250C9F3D55C3
:103170001400B1E758250C9F3D551400ACE71F2201
:103180006AE7C04610B5002800D110BD03F000F872
:10319000FBE7C0460B0010B5002802D049681B6849
:1031A000984710BDF0B557464E464546DE46E0B559
:1031B00099B08246894690460993229A239B100033
:1031C000190001F0E8FC002800D0C8E022982399FB
:1031D0000122D54B524201F0D9FC002800D0BEE0BC
:1031E000229823990122D14B524201F0B9FC0028C8
:1031F00000D0B4E0229823990022002301F0B0FC13
:10320000002800D0E9E1229E239F8023269ADB003C
:103210001A400D92269A1A4201D1062324933B00AC
:10322000334300D0B4E0269B1B0500D5BFE100234B
:1032300000240A930B94002304250C93259B00245F
:10324000AB4200D95C1B0223269A1A400D92269AA3
:10325000134203D06B426B415B421C400C9B002B22
:1032600007D00A9A0B9B3000390001F010FC0600D1
:103270000F00229823990022002301F071FC0028FE
:1032800003D0802109067B181F00269AA84B0096C0
:1032900001971340099E0493249B03940293424692
:1032A00033004946504600F0A7F90400002D67D0CE
:1032B0002020269A4946024013005A4253415B425D
:1032C000621C18400A92330022004530D0470C9A05
:1032D0006F1ED317D4185C40D30F9B46002501E026
:1032E000202D13D008AA94461F23200063440A21EE
:1032F00001355E1901F07EF93031317020000A216C
:1033000001F078F926000400092EE9D80523069378
:10331000002304930A3303935B46099E029310AB88
:103320000A9A009349463300504605970195FFF7E6
:103330002FFE0D9A0400002A22D04246851A259AB3
:10334000AA421DD9B04657461600220043464946B8
:1033500020200135B8470134AE42F6D810E0269B54
:1033600042460493259B49460393249B504602936F
:10337000229B239C00930194099B00F03DF90400DB
:10338000200019B0F0BCBB46B246A946A046F0BD2D
:10339000684B78009C46400D604401F00FFC664A83
:1033A000664B01F092FB664A664B01F067FB664A8A
:1033B0003B031B0B1A4304000D00644B110030004B
:1033C000002201F052FB624A624B01F07EFB0200D8
:1033D0000B002000290001F051FB01F007FC0C90CC
:1033E00001F0ECFB5C4A5D4B04000D0001F06DFB4D
:1033F00000225B4B01F042FB01F0F8FB594A834687
:10340000594B2000290001F060FB040058460D00D4
:1034100001F0D4FB554A564B01F057FB02000B005C
:103420002000290001F021FB02000B000A900B9103
:1034300001F04BFB04000D000A980B9902000B00F1
:1034400001F01CFB00220E900F914A4B2000290036
:1034500001F01DFB0022484B01F010FB02000B00A5
:103460002000290001F013FB0022444B01F006FB71
:1034700002000B002000290001F009FB0A9A0B9BB7
:103480000D0080210400C905002001F0EEFA0200C1
:103490000B002000290001F0F1FA394C02000B006A
:1034A0000E980F9901F0F3FA5C440022264B01F0CC
:1034B000E5FA2305002201F008FB04000D000200DC
:1034C0000B00300039000A940B9501F049FB0028ED
:1034D0005ED123002A00C6250C9963318D42AD418F
:1034E00026996D420435090500D4A7E6134364D03C
:1034F00030003900234A244B01F040FB002807D05C
:10350000002230003900214B01F02AFB002854D161
:10351000249B002B00D191E60D9B5A1E9341249AC7
:10352000D31A24938AE6C046FFFFEF7FFFFFEFFF29
:10353000FFF7FFFF01FCFFFFFB799F501344D33FD0
:10354000B3C8608B288AC63F0000F03F0000F83FF8
:1035500061436F63A787D23F71A379094F930A40F4
:103560000000E03F1655B5BBB16B0240EF39FAFEE3
:10357000422EE63F00002C4000002440000018408E
:10358000FF0300002D431CEBE2361A3F80842E41DE
:103590000C9B0022013B0C932000164B290001F0EC
:1035A00076FA0A00010003000A910B9293E70023C8
:1035B00000240A930B9400230C93249A0C9B9A42A8
:1035C00014DDD31A013B24938023269ADB001A438F
:1035D0000023002526920C9330E6802212069446A2
:1035E000229B1E00239B63441F000EE600232493AE
:1035F000EAE7C04600002440F0B54546DE464E46A8
:103600005746E0B595B08B46904699461E9A1F9B4B
:103610000A9019001000209D01F0BDFA002800D08A
:10362000B0E11E981F990122C74B524201F098FA4F
:10363000002800D037E11E981F990122C34B524247
:1036400001F0A4FA002800D0A7E01E981F990022DC
:10365000BF4B01F09BFA002800D088E01E981F990C
:103660000022BC4B01F07CFA002800D07FE01E98BD
:103670001F990022002301F073FA002800D0FAE01D
:1036800000230B938023229C229ADB001C401A42C9
:1036900000D102E1092D00D87EE106A98C462C005C
:1036A000172200233021093C62440133D154EF1A20
:1036B000202B00D132E1A342F7D10022A44B069285
:1036C00007931E981F9901F091FA050001F076FA10
:1036D00002000B001E981F9901F0C7F9069A079B7C
:1036E00001F0F3F90890099101F0A4FA060001F045
:1036F00061FA02000B000898099901F0B6F900225E
:10370000954B0890099101F041FA002800D1D2E0D0
:103710000136300001F04EFA069A079B01F02EFAAE
:10372000002801D000260135AA46002F00D098E0DD
:10373000280001F043FA02000B001E981F9901F0C7
:1037400094F9854B002206000F0001F009FA0CAB3A
:103750009A46002845D10022300039007E4B01F006
:1037600015FA00283DD1EB073BD5013539E0229B06
:1037700042460493219B594603930A981E9B1F9C23
:103780000295009301944B46FFF70CFD15B0F0BC79
:10379000BB46B246A946A046F0BD229B5B0767D454
:1037A00003226E4B22990192039121990291009379
:1037B00042464B4659460A98FFF7A2FBE6E706AA9F
:1037C00094461723280063440A2101341E1900F08F
:1037D000E9FE3031280031700A2100F0E3FE051EB9
:1037E00076D0202CEBD10323229A1340012B1DD13C
:1037F000219B002B1AD00B9B002B00D0BBE0229A00
:103800000C33134200D0B6E0219BA34200D887E0DE
:1038100006AB9C4617223023624404E02199013410
:1038200013558C4259D0202CF8D12024229B01948E
:103830000393219B02935346B9E706AA94461723A4
:103840000A216344300001341D1900F0D3FE3031E9
:10385000297030000A21013F00F0CCFE092E46D924
:103860000600202CE9D155460CAB20249A46B8E737
:1038700004223B4B96E71E9A1F9B0020002101F07B
:10388000F4F801230B938023229C229ADB001E90E4
:103890001F911C401A4200D0FCE60022314B062743
:1038A000069207930DE7229B0393219B0293042327
:1038B00001932D4B7BE7002208980999264B01F0D4
:1038C0004FF9002800D02FE7002E4FD101362BE70B
:1038D0000323229A1340012B68D0202CA6D00B9BE7
:1038E000002B1FD02D235246135501349EE7554619
:1038F000202CB9D030223B19002F4BD0172006A91D
:10390000013409180A55202CAED09C42F6D10CAADD
:1039100092462E2251465C1CCA5462E72024CCE613
:10392000202C83D0229B5B0708D4229B1B0700D44A
:103930007CE7202352461355013477E72B23524668
:103940001355013472E7C046FFFFEFFFFFFFEF7F23
:1039500065CDCD4165CDCDC10000E03F8088001030
:103960007888001080842E4188880010F30700D4E6
:10397000DAE60136D8E6219B013B2193A34200D928
:1039800046E7AAE7229B0393219B0293032301931B
:10399000084B0CE72300BAE7074BEA009B185C686A
:1039A0001B682F000693079400248AE6219B002BB6
:1039B00093D020E784880010308A0010F0B5DE46EE
:1039C00057464E464546E0B59FB01C00289B93469F
:1039D0000A93CC4ACC4B8A4609901A60002900D140
:1039E0004DE1002320789946002800D14FE1C74BD4
:1039F0004D460893C64B0D930AE02A006E1C5B46A9
:103A0000099D5146A847350001342078002872D01E
:103A10002528F2D110239946083B9846043B002103
:103A20009C4602270134207826000300203BDBB2AD
:103A3000102B03D8089A9B00D3589F460300303BB5
:103A4000092B6ED900272A2800D18AE000230B9386
:103A50002E2800D176E00300683BDBB2122B1BD886
:103A6000AC4C9B00E3589F46012301341943DAE72D
:103A700039430134D7E7634601341943D3E74B4652
:103A800001341943CFE7434601341943CBE7802380
:103A90005B0070781943013667280AD824281FD99B
:103AA0000300253BDBB2422B1AD80D9A9B00D3585A
:103AB0009F460300693BDBB20F2B11D801249C40C9
:103AC000954AA446904614400C94624644462242CD
:103AD00000D025E20A2B00D101E1072B00D1D8E06C
:103AE000099C2A005B465146A04770786F1C741CE5
:103AF0003D0000288CD1A9462C00CB4503D80123DA
:103B00005B425B4499465B464A4651460020099D0C
:103B1000A84720001FB0F0BCBB46B246A946A0464D
:103B2000F0BD0027BB00DF1901367F003F18307859
:103B3000303F0300303B092BF4D900230B932E2890
:103B400000D088E780237078DB0019430300303B06
:103B5000741C092B00D82CE12A2800D138E126005A
:103B600079E70A9B80CB002F03DB60780A93661C01
:103B70006CE70222607811437F420A93661C65E776
:103B8000672800D1C8E1472800D104E2452800D1C8
:103B900004E207200A9B04910733834319000B9A20
:103BA000039702920CC90998009201930A912A0086
:103BB0005B465146FFF7F6FA741C050025E770785E
:103BC0006C2800D10DE280235B001943013663E7C6
:103BD00080239B007078194301365DE77078682870
:103BE00000D1F9E180230136194355E7462800D179
:103BF0008FE107200A9B04910733834319000B9A36
:103C0000039702920CC90998009201930A912A0025
:103C10005B465146FFF7F0FC741C0500F5E62A00F0
:103C2000099C5B46514625206F1CA0473D00741C33
:103C3000EBE6890700D4DEE10A9B2A0098466B1C5C
:103C40009946434601CB51469846099C5B46C0B213
:103C5000A047ED19012F00D893E24C46B1465646D5
:103C6000099F22005B46013431002020B847AC4256
:103C7000F7D1B24643464E460A93741CC5E6274B1D
:103C80002078099300239946002800D0AFE600244D
:103C900033E70A9B1A0008CA9046002B00D1A7E020
:103CA000212008430EA98C461F2262440F27AC46F0
:103CB000814615000C9C02E0202C0CD0130038002B
:103CC000184001003731092800D807390134295537
:103CD0001A090F2BF0D8654648460C9494E00A9BCD
:103CE0001A0008CA12920B9A002A7BD102241A7871
:103CF0006442002A1DD0013418199C461C000300A0
:103D000010E0C046BD39001030230020908800101C
:103D100020890010D488001041900000FD2E001072
:103D20009C4203D0607801340028F9D16346E01A40
:103D30000C908020C00084460840804660460142C6
:103D400004D00B980C9C844200D90C90022084462D
:103D500008400A906046084200D189E1101E00D157
:103D600070E14246002A00D11BE10B9A5B1B904692
:103D7000A84444462A00B84699465746B246099E8A
:103D800009E05B463900551CB0474B46585D00289A
:103D900000D12CE12A009442F3D156462500BA46C0
:103DA00047460A9B002B00D04CE1129B741C0A93DF
:103DB0002BE6002293009B185B0001341A18207830
:103DC000303A0300303B092BF4D926000B9242E62F
:103DD0000A9B023604CBD043C01702400B923078C6
:103DE0000A9338E61A78002AA3D00B98441E82E77B
:103DF0001023080080279843113318430B00FF005D
:103E00003B40394200D14DE7082305930B9B2A0024
:103E1000049310230393002302930C9B06900193B9
:103E200016AB009351465B460998FFF7B1F843463D
:103E30000500741C0A93E8E5622800D1A6E1582821
:103E400000D1B1E180230A00DB001A4090461942FC
:103E500000D189E1112399438C46802362469B005F
:103E60001A40100062461A4200D023E180236446C3
:103E70005B001C401A4200D032E263465B0600D56C
:103E80006BE163460A991B0600D4DBE208C91BB24A
:103E9000DA179818504080B20A91DA0F0C92002B72
:103EA00000D118E280460EAA91461F234B44139579
:103EB000E14645461297B0461E0001E0202C0FD087
:103EC00028000A2100F096FB01343719303139708F
:103ED00028000A2100F08EFB2F000500092FEDD8E5
:103EE0004646CC46129F139D634606930B9B05974F
:103EF00004930A2303930C9B029316AB2A000194AC
:103F0000009351465B460998FFF742F8741C050080
:103F10007BE5202319436CE680231B01194338E617
:103F2000782800D07CE180230A00DB001A4091460B
:103F3000194200D1A5E20D239943080003330C93E5
:103F4000802302009B001A409046184200D078E17E
:103F5000802304005B001C40184200D007E24306A7
:103F600000D453E2FF210A9B04CB0A4090460A93F7
:103F70004346002B00D026E1103398434B46002BDC
:103F800000D120E100240B9B069004930C9B059725
:103F900003930023B0E780231B0119432023194317
:103FA000F7E55B1B99460C9B099C98465B46B3461C
:103FB0005646BA461F002A003B003100A0474B4638
:103FC0000135585D0028F6D143460C933B00574617
:103FD000B2465E469B46E4E6C023B07819430236FB
:103FE0005AE5C0239B00B0781943023654E5564683
:103FF000BA464746D5E6012F00D832E26B1E9846F6
:10400000B8442C00A9464546B8465746B246099ED4
:1040100022005B46013439002020B047AC42F7D182
:104020000A9B564601CBBA464746984622005B4655
:10403000099C5146C0B2A0474D464346ED190A932C
:10404000741CE2E40C9BA8469F4200D8ADE64446AF
:10405000B04656467D19099FED1A22005B46013491
:1040600031002020B847AC42F7D1B24646469CE624
:104070000C98874200D8F0E1424698467919B94633
:104080005746B246099E0C1A0C922A005B4601352F
:1040900039002020B047A542F7D15646BA464F46D0
:1040A00043460C9A90467A1C0C921A78101E00D047
:1040B00057E67AE60822072191460A9B07338B438D
:1040C00099444A460ACB0C000A921C43DA0F002C92
:1040D0004ED0D817040010904C4011900E941098B8
:1040E00011990C005C400F940E9B0F9C1B1A8C4185
:1040F0000E930F940EA988461F2300244344129761
:10410000B046270013951E000E9C0F9DE1460C92B1
:1041100001E0202F10D0200029000A22002300F007
:10412000A7FA013730322B00F2550D0022000400AF
:10413000002BEED1092AECD84646CC460E940F95BA
:104140000C9A3C00139D129F634606930B9B0597A8
:1041500004930A2302920393CFE6FF230A9904C92A
:10416000134018000A9198E6102399438C4674E690
:1041700043460024002BE7D1002300240E930F9424
:10418000B8E743464D460A93741C3EE480230A0078
:10419000DB001A409146194200D140E10D239943BA
:1041A0000B3B08000C93CBE680230A00DB001A408F
:1041B0009146194200D162E10D2320209943033337
:1041C00008430C93BCE66123810600D541230EA968
:1041D0001F228C46DBB262440A3B1397149581463A
:1041E00045460C9FB0461293160008E03033DBB210
:1041F00001343355BD420ED3202C0CD005003900BC
:10420000280000F0F7F9CBB20929EFD9129A9446A9
:104210006344DBB2ECE746464846139F149DB2E682
:104220006F2800D03CE10C230800984380230A004B
:10423000DB001A409146194200D02AE108230C9372
:104240007EE60A99FA3BFF3B0731994301339C46CE
:104250008C4463464A680A930B6890469C46134315
:10426000191E06D14B46103100248843002B00D084
:1042700089E66121830600D541210EAA91461F23BC
:104280004B449946C9B20C9B0A391397149515965D
:1042900045464E46002467469846814612910CE0FA
:1042A0003032D2B2002301343255AB4200D1BCE0EF
:1042B000202C00D1BCE007000D004246002338004E
:1042C000290000F0D5F9D2B2092AE9D9129B9C46FF
:1042D0006244D2B2E6E74346002B00D004E6E2E5B2
:1042E0000A9C08CCDA0F1392002B00D1A5E0D91755
:1042F0005B184B4098460EAA91461F234B440C95E1
:10430000A14645461296E04606001C000A9701E0C9
:10431000202E0FD028000A2100F06CF90136A719D1
:104320003031397028000A2100F064F92F000500AF
:10433000092FEDD8C4464C4630000A9F0C9D129EB2
:10434000634606930B9B2A0004930A230393139B53
:104350000190029316AB009351465B46099805976E
:10436000FEF716FE0A940500741CFFF74EFB0A9B2D
:1043700010CB1493002C04D1102398434B46002BF0
:104380002CD16123810600D541230EA91F228C4622
:10439000DBB262440A3B12971395814645460C9F57
:1043A000B0460A93160008E03033DBB2013573558E
:1043B000BC420ED3202D0CD004003900200000F0A8
:1043C00019F9CBB20929EFD90A9A94466344DBB2B2
:1043D000ECE748464646129FA846139D0B9B2A00D1
:1043E00004930C9B0690039300230293434601938E
:1043F00016AB009351465B4609980597FEF7C8FD3A
:10440000149B05000A93741CFFF7FFFA03061FD5DF
:104410000A9B02CB09040A0C90460A93A8E50C23D8
:1044200099430A3B08000C938AE5B84500D83FE75A
:104430004846139F149D159EA5E54346002B00D0CA
:104440007EE758E708C9DA17981850400A9124E522
:104450000A9B04CB90460A938AE5010001310C9136
:1044600024E60A9F6C1C01CF2A005B46099D514639
:10447000C0B2A84725000A97741CFFF7C6FA20238C
:1044800019430C23994300239946103308000C93D9
:1044900056E508238C460C930D23604698434FE560
:1044A00010230A009A439446692808D180230A0001
:1044B000DB001A409046194200D1CEE4CAE41C2326
:1044C0000800984380230A00DB001A4091461942F5
:1044D00002D10A230C9333E50A230C93DCE7C04690
:1044E00000B585B0039101210290009303481300A9
:1044F0004A4202A9FFF762FA05B000BD95310010EB
:1045000010B5094A0300146884B0002C08D00122B9
:1045100000910648524203A9A047012004B010BDF3
:1045200001F082FE0020F9E73023002085310010E1
:1045300001480421014B1847C00F002061450010BD
:10454000142310B50100188804331B88984710BD48
:10455000162310B50100188802331B88984710BD38
:10456000F8B54746CE4680B50F1E19D0142399469C
:10457000043304000025012698464B46188843461C
:1045800021681B88984701C4431E98410135404269
:104590000640AF42F1D13000C0BCB946B046F8BDCC
:1045A0000126F8E7124A936F9B0815D29066D166F0
:1045B000002905D0FFE7FFE7FFE7516F106F704755
:1045C00004B580210906C2175140002800D0C84315
:1045D00003F0FAFF002104BDF0B5146E556E576F5D
:1045E000166FFFF7E3FF1466556657671667F0BD51
:1045F000000000D0114A936F9B0813D210665166D9
:10460000002905D0FFE7FFE7FFE7516F106F704704
:1046100004B5002801D00020C04303F0D5FF0021DD
:1046200004BDC046F0B5146E556E576F166FFFF798
:10463000E5FF1466556657671667F0BD000000D0A9
:1046400094464A4A926F9208624601D228E0C046D8
:10465000F0B5464E346E756E776F366F00F020F809
:104660009446424A14665566576716676246F0BD1F
:1046700094463E4A926F9208624601D254E0C04688
:10468000F0B53A4E346E756E776F366F00F04CF8B9
:104690009446364A14665566576716676246F0BDFB
:1046A000002B24DB11D000293EDA00B5C94340427B
:1046B00000D1013100F038F8C943404200D1013146
:1046C000DB43524200D1013300BD002AEBD1002868
:1046D00001D1002905D00020C90FC90701D1C0436D
:1046E000410800B503F060FF0022002300BD00B5C3
:1046F00000290ADBDB43524200D1013300F014F8F9
:10470000C943404200D1013100BDC943404200D1FC
:104710000131DB43524200D1013300F005F8DB43A5
:10472000524200D1013300BD002923D1002B18D102
:10473000002A0CD0BC460D4F38667A660021002353
:10474000FFE7FFE7FFE77A6F386F6746704700289B
:1047500001D00748010000B503F026FF0022002326
:1047600000BD02000B00002000217047000000D0B7
:10477000FFFFFFFF002B00D0BFE0130C28D1002A61
:10478000E7D080B4114F39667A66FFE7FFE730B4AF
:10479000040C7B6F396F1B0423433B667A66FFE78B
:1047A000FFE7FFE7C04684B27B6F3D6F1B042343E6
:1047B0003B667A66FFE7FFE7C04600232C042D0C1A
:1047C0007A6F386F00196941B0BC7047000000D0A3
:1047D000F0B594460025140E01D112020835140FCD
:1047E00001D112010435940F01D192000235D40F8A
:1047F00001D152000135D40B0134254F7C66254C84
:104800003C660E0C93B2FFE7FFE7FFE73C6F6643A1
:10481000360C7703BE467343DF0B5B04C01AB94105
:10482000130C7343DB18C91ACE086643360CB64422
:1048300093B273431F0F1B01C01AB941130C73438A
:104840001F0B1B05C01AB941860D8F023E436643FC
:10485000360C092D24DB520A7243801A7703460A6C
:104860006643360C16235B1BDE40DF40BF196446EF
:104870006643821B7046043506330100D940A840C8
:10488000C01900D30131A24206D20023F0BD0000BE
:10489000000000D0FFFFFFFF121B0130F3D3F1E750
:1048A00009277F1BFE406446A2B27243801A00D2E1
:1048B0000139220C7243130C1204821A99410B0025
:1048C0007046043513370100F940A840801900D321
:1048D0000131002B02D1A2420AD2F0BD013000D337
:1048E0000131121BFAD2013BF8D1A24200D2F0BD35
:1048F000013000D30131121BF7E7F0B51C0C00D0DA
:1049000080E00CB400251C0A04D11B02160E3343B0
:10491000120208351C0B04D11B01160F3343120180
:1049200004359C0B04D19B00960F33439200023553
:10493000DC0B02D192185B4101351C0097186441D1
:104940000134464F7C66464C3C660E0CFFE7FFE7A1
:10495000FFE7C0463C6F6643360C7703BE4697B20E
:104960007743C01B00D20139C01B00D201399FB26E
:104970007743C91BC91B170C77437E04FF0B801BB1
:10498000B941CE086643360C0C2D33DBB644120B0E
:104990001F053A431B0B97B27743C01B00D2013966
:1049A0009FB27743C91B170C77433E043F0C801B13
:1049B000B941860D8F023E43664329277F1BFE4087
:1049C0000C3D7746AF40BF1930BCA2B2ABB27243C8
:1049D0007343801A9941220C7243130C1204801AFB
:1049E000994102000B000137001BA941F9D2781E42
:1049F0000021F0BD0C277F1BFE4077467F0BAF40A8
:104A0000FF19E0E700245D1C07D0144F7D6639666E
:104A1000FFE7FFE7FFE7FFE73C6F95B29EB2654314
:104A20006643401BB141150C1E0C654366433604BA
:104A30002F0C3E432D04401BB141994204D2020089
:104A40000B0020000021F0BD01D19042F7D3801A65
:104A5000994101349942F2D3F6E70000000000D0FA
:104A6000FFFFFFFF48404140484018B41B4B5B68C4
:104A7000FC46019308BD04DFB756001018B4174B6D
:104A80001B68FC46019308BD00DFC1560010944628
:104A9000134A926F920809D2624618B40F4BDB6832
:104AA000FC46019308BD0CDF795900100C4AF0B5A3
:104AB000146E556E576F166F6246FFF7EEFF084A89
:104AC0001466556657671667F0BD18B4034B9B68AC
:104AD000FC46019308BD08DF1D5800109019002006
:104AE000000000D0FFB550404240504059404B407C
:104AF000594000E0FFB5154F4C00640D03D0BC4297
:104B000004D10C0314D80020090D09055C00640DC4
:104B100003D0BC4204D11C030AD800221B0D1B0584
:104B200001264B4009D44B4003D58B4200D1824231
:104B3000FFBD9942FCD19042FFBD0B43DB180343FC
:104B40001343F5D0C9434918FFBD0000FF0700001B
:104B500000B5FFF7CFFF01D0002000BD012000BD50
:104B600000B5FFF7C7FF804100BDC04600B5FFF7A5
:104B7000C1FF01D9002000BD012000BD00B5FFF735
:104B8000B1FF01D9002000BD012000BD00B5FFF735
:104B9000A9FF804100BD012040054A00121804D839
:104BA0005A00121801D800207047012070470020D9
:104BB000704700000021002805D17047C117484008
:104BC000401AFAD0C90713B5064B1B6898470CBCAE
:104BD000441CA2401005120B0349091B0905194387
:104BE000114310BD502300201F04000010B54C00DD
:104BF000620D8023D218DB00D21A5B057E2A10DDFD
:104C00009E3A13DACC170903490819435242D1409E
:104C1000640001341532202A05DAD040084360438D
:104C200010BD002010BD0846604310BDC80FC0185D
:104C3000013810BD18B4044B5B6AFC46019308BDF3
:104C400024DF295B001000009019002018B4044BE9
:104C5000DB6CFC46019308BD4CDFF95C00100000E2
:104C60009019002018B4044B1B6DFC46019308BD3D
:104C700050DF955D0010000090190020132370B5DF
:104C80001D78012D15D010DD1D48FFF761FC1D4C6E
:104C900001008022200001F0E5F9022D2DD01A48F4
:104CA000FFF74EFC194B186070BD194B154CA364EF
:104CB000F5E7174B134C23606360A360E360236147
:104CC0006361A361E36123626362A362E3622363BE
:104CD0006363A363E36323646364A364E36423659E
:104CE0006365A365E36523666366A366E36623677E
:104CF0006367A367E367A364D1E7054BA364CEE7CB
:104D000053440000901900204C3300005023002031
:104D100085560010F0B54646D6464F461D00894BD5
:104D2000C0B598464E00760D140088B0B044002EF1
:104D30002FD0854B9E422CD00022844FBF1B3B05B9
:104D400080185941FFF78EFF814A824BFFF79FFE83
:104D50000022814B00900191FFF718FF002826D117
:104D60004346002B31D00022200029007B4BFFF767
:104D700005FF002832D1002220002900784BFFF7E0
:104D8000F5FE002835D043460020002B2ADB002109
:104D900029E0FFF767FF6E4A6E4BFFF778FE0022AF
:104DA0006D4B00900191FFF7F1FE0028DBD00098D9
:104DB00001996C4B0022FFF758FE6B4B009001915C
:104DC0009846B0444346002BCDD10098019922006B
:104DD0002B00FFF77AFE00F069FA04E0434600205A
:104DE000002BD4DB614908B0E0BCBA46B146A84606
:104DF000F0BD2000290000F00BFA0B0002000600B5
:104E00000F0020002900FFF730FE1A2202900391C4
:104E100000F0D8F900F0FCF94B0004000D005B0D28
:104E200009D0494A934206D000241A2B00DC7FE0C7
:104E30004F4D24184D4139003000FFF7D7FE824610
:104E40004046FFF7BBFE22002B0006000F00FFF7D5
:104E50003CFE0490059100F0DBF902000B00049881
:104E6000059906920793FFF700FE22002B0004909D
:104E7000059102980399FFF7F8FD32003B00FFF718
:104E800024FE049A059BFFF7F9FD04900591504616
:104E9000FFF794FE009A019BFFF717FE04000D0038
:104EA00000F0B6F902000B0006000F0020002900F8
:104EB000FFF7DBFD049A059BFFF7E0FD009A019BDD
:104EC00004000D0002980399FFF7FFFD2B0022005C
:104ED000FFF7D4FD00F0EAF94B005B0D04000D0074
:104EE0009946002B00D17EE7174B994500D17AE710
:104EF000514643464B43069807999A46FFF776FE7C
:104F0000390082443000FFF771FE4B465044C3180D
:104F1000002B09DD174A93420DDD144AEB0FDB0726
:104F20001A43002011005EE7EB0F0020D9075AE773
:104F3000C90FCD077FE70022030512196B4110004E
:104F4000190050E701FCFFFFFF070000FF0300000E
:104F5000EF39FAFE422EE63F0000E03F0000B0408D
:104F60000000B0C00000F03F02FCFFFF0000F07F37
:104F7000000060FEFE070000F0B54646D6464F46EC
:104F80000400C0B50D001600012A56D0D70FBF1877
:104F90007F10012F47D00323D21713409B199B107A
:104FA0009846012B35D0072313409B19DB109946F7
:104FB000012B27D00F2313409B191B119A46012B5D
:104FC00015D03300203B1F2B06D90022FFF7D4FF5A
:104FD00002000B00FFF779FD0B000200FFF775FDE3
:104FE0005346DB0703D522002B00FFF76EFD0B00B5
:104FF0000200FFF76AFD4B46DB0703D522002B00BA
:10500000FFF763FD0B000200FFF75FFD4346DB0780
:1050100018D402000B00FFF758FDFF0703D522004C
:105020002B00FFF752FD02000B00FFF74EFDF607C5
:1050300003D522002B00FFF748FDE0BCBA46B1467D
:10504000A846F0BD22002B00FFF73FFDE1E7C04678
:10505000F0B5C64600B582B016001F0004000D0072
:1050600000900191002927DA7B004F4A5B0D9B18C5
:105070001CD43422D31A19D41800203845D4353A18
:105080008446824001214942994030008843010012
:105090003800904302000A4308D1342B49D06246BD
:1050A000002A3CDB3B00D340DB0742D480231B06B5
:1050B000EB181D000094019530003900FFF796FDB4
:1050C0002B0D80460200002B42D038498B423FD046
:1050D0002903090B21433BD1354988425CDB802100
:1050E00009018A4256DA30498C4663445A43314BAF
:1050F000D318002B52DD304900208B4251DC1105C2
:1051000000222E4B801859411EE0012220215242DC
:1051100084461000C91AC8409A400243B2E72022D0
:105120003900D21A91400A003100D9400B001343D4
:10513000BAE780231B062000E91832003B008024D8
:10514000FFF786FF2406091902B080BCB846F0BDFF
:105150004346002B14D02033402B14D84346002B59
:1051600009DA009A019B00201449FFF790FC43469E
:10517000009001915A4200980199FFF7FDFEE3E784
:1051800000200E49E0E73200009801993B00FFF74C
:10519000C1FDD9E7054AA6E70A00A0E700200021E3
:1051A000D2E70749D0E7C04601FCFFFFFF07000038
:1051B00000F8FFFFFF030000FE0700000000F03FC3
:1051C0000000F07F4B0070B55B0D04000D00002B5C
:1051D0000ED00C4EB3420BD0D318002B09DD0A4978
:1051E0008B420ADD094AEB0FDB071A43002011004E
:1051F00070BDCB0F0020D907FAE700201105001978
:105200006941F5E7FF070000FE0700000000F07F9E
:10521000244A4B0094465B0D6344F0B504000D0036
:105220005A1C21DB5A1C35D0342B1CDA3326F61AD3
:105230003700203F1CD40121B9400B000121B140AF
:105240000A0012196B41002F1EDB0224BC40210012
:105250000224B44020001600002544428D4126401F
:105260002B4030001900F0BDCB0F0020D907FAE722
:1052700020210120891BC8400121B14003000A0000
:1052800012196B41002FE0DA20240225A41BE5400F
:105290002900DDE7CB0F044ADB071A430020110089
:1052A000E1E7C04601FCFFFF0000F03F264B70B570
:1052B0000A0D04000D009A423AD00022234BFFF75A
:1052C00055FC002834D1002220002900204BFFF794
:1052D00055FC002802D000201E4970BD2000290086
:1052E000FFF796FFFFF782FC0600FFF767FC02005E
:1052F0000B0020002900FFF7B8FB174B174AFFF7F8
:10530000E4FBFFF7A3FC4B0004000D005B0DE4D0B1
:10531000134A9342E1D0F318002B0CDD114A93425B
:105320000DDDCB0F0B4ADB071A4300201100D4E739
:1053300000200021D1E7CB0F0020D907CDE70020C6
:10534000310500196941C8E7FF0F00000000B0C037
:105350000000B0400000F07F422EE63FEF39FAFE39
:10536000FF070000FE070000F0B5D6464F46464650
:10537000C0B516001F000022BA4B04000D00FFF755
:10538000E7FB22002B0000283BD13B0D99465B0533
:105390005A0D90460022002B3BD020002900B24B32
:1053A000FFF7D6FB002836D0B04B984530D0994552
:1053B0006AD0AF4B99456AD0AB494346AD4A9A187B
:1053C00000D5F2E034239B1A9C46002B11DD180017
:1053D000203800D503E10122524282400120634679
:1053E000404298403300834338009043034300D049
:1053F000DBE032003B0020002900FFF729FE02001D
:105400000B0010001900E0BCBA46B146A846F0BD3A
:105410000022944BF5E72A0D53052900580D002B67
:1054200029D14346934A002F34DB9B182FD43421D3
:10543000C91A2CD40800203856D401235B42844674
:105440008340012252428A403000904302003800DB
:105450009843030013431AD122002B003429D0D0E3
:105460006346002B00DAACE03E00DE40F6070ED5C6
:1054700022002B00C5E77D4B9A469A4248D1002274
:10548000002F02DA0023BCE700227B4BB9E70022A1
:105490000023B6E79A18F7D434239B1AF4D41800E3
:1054A00020382BD4012252428446824001214942B5
:1054B00099403000884301003800904302000A43BD
:1054C000E2D1342B07D06246002A00DA80E03E00A9
:1054D000D640F607D8D5684AEB0FDB071A43110010
:1054E00000200B0002008CE7012320225B4284464F
:1054F0001800521AD0408B400343A2E7012220211A
:10550000524284461000C91AC8409A400243CDE76F
:10551000574B9A4200D092E04346564A002F20DB78
:105520009A18B1D434239B1AAED4180020386AD408
:1055300001225242824001214942994034008C4369
:1055400021003C00944322000A439DD1342B71D0AA
:10555000002868DB3E00C6400022F60795D5474B81
:105560004FE79A1893D434239B1A90D4180020380C
:1055700040D40122524282400121494299403400E4
:105580008C4321003C00944322000A4300D07EE774
:10559000342B52D000283FDB3E00C6400022F607E5
:1055A00000D46FE780231B062BE7002900DA6BE7A6
:1055B00032003B0020002900FFF7ACFB02000B008B
:1055C0001FE720233A005B1A9A40CE4016434DE76E
:1055D00020223900D21A9140DE400E4379E70122A1
:1055E00020205242C01A1300C340180063469A405C
:1055F0000243F3E60122202152421400C91ACC4092
:105600009A402243B8E70122202152421400C91ACD
:10561000CC409A4022438EE720223900D21A914092
:10562000DE400E43BAE720223900D21A9140DE4014
:105630000E4391E70022114BE3E60022B2E7D14589
:1056400009D0994500D0B8E60D4B0022984200DD04
:1056500018E7094BD5E60A4B0022984200DD14E713
:105660000023CEE60000F03F0000F0BFFF0700007F
:10567000FF0F000001FCFFFF0000F07F0000F0FFC3
:10568000FE03000007B5604601880A0A0230DF2ADF
:10569000FAD1C9B2820804D30288408800041043BA
:1056A00000E00068014A5050039007BD90190020A7
:1056B0000FB403BC0CBCF0B50124E407634000E068
:1056C000F0B50C0DCF0F661E3605891B640503D39C
:1056D000C943404200D30131640D03D0661CF60A71
:1056E00007D0E41B00207F00791C89078912803CC9
:1056F00024031D0DDF0F6E1E36059B1B6D0503D3A6
:10570000DB43524200D301336D0D03D06E1CF60A09
:1057100007D0ED1B00227F007B1C9B079B12803D66
:105720002D032F1B661B58D4A446202E46DA2037A3
:105730001400BC401D00BD40F24033412A43801894
:105740005941CB0F05D0C943C043002264425041A8
:10575000514162464D0D28D10D0D07D100281FD0B3
:10576000241940414941013A0D0DF9D0640006D396
:10577000013000D30131002C01D140084000013A32
:105780000BD4941CE40A04D112051144DB0719441C
:10579000F0BDD907204B194300E0D9070020F0BD28
:1057A0000029DDD1002CDBD1F0BD0132C607400855
:1057B000CD0728434908002EE1D0D9E73C2E29DA4D
:1057C000203E40371400BC4000D00124F240144376
:1057D0001A00BB401C43D317ACE7AC46202F08DAB5
:1057E00020360400B4400D00B540F840394128434C
:1057F000A5E73C2F0CDA203F40360400B44000D02F
:105800000124F84004430800B1400C43C117EAE703
:1058100010001900002494E70000F07FF0B50C0D93
:10582000661E3605891BE60A6405640D02D0651CF8
:10583000ED0A04D0002001210905803C2403A44680
:105840001C0D671E3F05DB1BE70A6405640D02D0D3
:10585000651CED0A04D0002201231B05803C2403B3
:105860007740644497B484B296B27443070C7E4385
:10587000150C6F4380B26843361802D30120000430
:105880003F183004350C00197D41844688B29AB225
:1058900050430C0C62431F0C7C438EB27E43921922
:1058A00002D301263604A4191604170C36186741D2
:1058B00001BC81B29AB25143040C62431B0C5C439D
:1058C00080B25843121802D3012000042418100497
:1058D000130C401863412D185E410020474106BC5F
:1058E00088B293B258430C0C6343120C544389B2F0
:1058F00051435B1802D301210904641819041A0CDE
:10590000091862416D1856410020474118BCF90240
:10591000720D1143F0026A0D1043ED020A0D03D11E
:105920006D1940414941013B124E9B1B7600B34229
:105930000ED26D0007D30130002671416646354313
:1059400001D1400840001B05C918E4072144F0BDFF
:105950000BDA013306D1013004D101314F0D01D0F2
:105960004908F2E7E1070020F0BD013631050020CB
:10597000EBE70000FF030000F0B51C0D671E3F05BC
:10598000DB1BE70A6405640D02D0661CF60A04D02E
:10599000002201231B05803C2403D0252D06002670
:1059A000F6432E661E096E66CE0FF619B446490000
:1059B0004F0D02D07E1CF60A03D000200021403F8C
:1059C0003F033E1BB600B444013F7F05C91B490895
:1059D0002E6F013676089C02950D25437543ED1315
:1059E0007543AD1301356D10F603761B0CB4CC0274
:1059F000450D2C43A2B2B3B25A43270C7B43350C5E
:105A00006F43A4B26C431B1902D3012424043F1931
:105A10001C041D0CA4187D4124196D41009A91B2FB
:105A2000ACB26143170C7C432B0C5F4392B25A43D8
:105A3000A41802D301221204BF182204230C521806
:105A40007B41019C6C431B19520ED9010A4344014E
:105A5000A01A81B2B2B2514303145A43360C7343B5
:105A600087B27743D617D21900277E4136049B1997
:105A70001704160C7F185E417316ED18F30100260B
:105A800080337541A90F06D16400690AE8055B0AF5
:105A9000184309D22FE00422944480337541A90AA7
:105AA000A8059B0A184326D3404149412404009A83
:105AB000019B0D005543641B4343E41A95B286B223
:105AC0007543170C7E43030C5F4392B25A43B618DA
:105AD00002D301221204BF183204330C52197B4145
