:020000041000EA
:1000000000B5324B212058609868022188439860DF
:10001000D860186158612E4B002199600221596106
:100020000121F02299502B49196001219960352056
:1000300000F044F80222904214D00621196600F024
:1000400034F8196E01211966002018661A6600F04E
:100050002CF8196E196E196E052000F02FF8012189
:100060000842F9D1002199601B49196000215960AB
:100070001A491B48016001219960EB211966A021F2
:10008000196600F012F800219960164914480160C1
:100090000121996001BC002800D000471248134993
:1000A000086003C880F30888084703B5996A0420EC
:1000B0000142FBD001200142F8D103BD02B5186610
:1000C0001866FFF7F2FF186E186E02BD00000240BE
:1000D000000000180000070000035F00212200005C
:1000E000F4000018222000A00001001008ED00E03C
:1000F00000000000000000000000000074B24E7A12
:1001000000200420F7010010C3010010C5010010F9
:10011000C1010010C1010010C1010010C101001097
:10012000C1010010C1010010C1010010C701001081
:10013000C1010010C1010010C9010010CB01001065
:10014000CD010010CD010010CD010010CD01001037
:10015000CD010010CD010010CD010010CD01001027
:10016000CD010010CD010010CD010010CD01001017
:10017000CD010010CD010010CD010010CD01001007
:10018000CD010010CD010010CD010010CD010010F7
:10019000CD010010CD010010CD010010CD010010E7
:1001A000CD010010CD010010CD010010CD010010D7
:1001B000CD010010CD010010CD010010CD010010C7
:1001C00000BE00BE00BE00BE00BE00BEEFF3058054
:1001D000103800BEF2EB88711C7100104C710010D9
:1001E0003402001090A31AE700201F49086006C8D7
:1001F00081F3088810471D48006800282FD10DA4FE
:100200000ECC002902D000F012F8F9E71849194A7B
:10021000002000E001C19142FCD1174988471749ED
:1002200088471749884700BEFDE701C901C29A42C5
:10023000FBD370474C710010C0000020EC1600206A
:100240007887001000000420000004207887001048
:10025000001004200010042000000000704709482E
:1002600002F04AFE0047000008ED00E0000000D068
:10027000F01600200C2100203D2D00109D050010DF
:10028000652E00105756000006005250ABB3605365
:10029000786F001006005250861C0302886F001011
:1002A000060052505422A29D946F00100500525037
:1002B000DE65F46878870010F8B5C0460448054B41
:1002C00010B5834203D0044B002B00D0984710BDDB
:1002D000EC160020EC16002000000000064807493C
:1002E000091A8B10C90FC91810B5491003D0044B57
:1002F000002B00D0984710BDEC160020EC16002013
:100300000000000010B5074C2378002B09D1FFF73F
:10031000D5FF054B002B02D0044800E000BF0123AD
:10032000237010BD181A002000000000206E00107D
:10033000054B10B5002B03D00449054800E000BF71
:10034000FFF7CCFF10BDC046000000001C1A0020C3
:10035000206E0010FA22024B92001A607047C046CD
:10036000A00D0020FA22014B1A607047A00D00205A
:10037000014B024A1A607047A00D0020C40900001A
:10038000FA22024B92001A607047C046A00D00206E
:100390000020704710B502A80088022A00D010BDC6
:1003A0000129FCD10028FAD01B781A4206D000227D
:1003B000064B01201A6006F005F8F0E7002006F071
:1003C00001F8FA22014B92001A60E8E7A00D002024
:1003D000F0B54F464646D6460023C0B58027804636
:1003E0000B269A4699463F01300003F087F80B0030
:1003F00080210200C905002003F04AFC04004046A9
:100400000D00384003F07AF822002B0003F054F876
:1004100000280DD00D2E28D01DDC33000B3B5A1EBA
:1004200093414A467F00D31A9946BFB20136DBE7B3
:100430007F000136BFB2102ED6D150464844431C2F
:100440001CD0002802D0023000D10620E0BCBA4601
:10045000B146A846F0BD0E2EEFD101235B429C466B
:100460007F00E244BFB20136BEE701235B429C46F7
:100470007F000E26E144E244BFB2B5E7484642425F
:10048000504140000530E1E7F0B5DE4657464E46A4
:100490004546E0B587B001F04BFF002910D0FA22A5
:1004A0000023920002F098FD3A4A1368C01A092806
:1004B0000FD807B0F0BCBB46B246A946A046F0BD77
:1004C000FA21890002F04AFD324A1368C01A09284D
:1004D000EFD90A3302A8136000F0DAFE834604F075
:1004E000D1FD002805D05B46002B02D004F0D2FDE0
:1004F000DFE70020029C05F043FC01900028D8D0E3
:100500000B22002103A804F0FBF9637822781B0278
:1005100013435BBA9BB22C20984604F0D7F900270E
:1005200082460126380002F0E9FF0B00802102001C
:10053000C905002003F0ACFB040040460D0030402C
:1005400002F0DCFF22002B0002F0B6FF002806D0EC
:100550004B4652469B009F5001239C46E144760047
:100560000137B6B20B2FDDD14046FFF731FF5B46B6
:10057000094C002B04D12378002B04D100230193D4
:10058000019B237095E70B23042103AA002005F0AB
:1005900013FCF3E7E42000200721002070B505F0EC
:1005A000F9FE05F0BBFD00F079FD154C154D164E1A
:1005B00014E0FA220023920002F00EFD2B6822685C
:1005C000C01A904208D39B1830782B6005F0FAFED1
:1005D0000122337853403370FFF756FF012000218A
:1005E000404204F0E5FD2368002BF5D001F0A0FEA9
:1005F0000029DED1FA21890002F0B0FCDEE7C04616
:10060000A00D0020E02000200921002000487047B4
:10061000AC6E001000487047686E001000487047CC
:10062000446E001010B5002825D003282ED8184B92
:100630008000C458200006F02BFAC0B2011C1F280D
:1006400014D8C9B200281FD00023124AE05C01333D
:100650001080D8B202328142F8D8C0230131C9B229
:1006600049009B000B430C48038010BD1F21C9B2F9
:100670000028E9D108E0064B02221968054804F079
:1006800045F9C1239B00EEE7044BECE70020ECE7C3
:10069000A40D0020861A0020841A00200203000006
:1006A000F0B54E46DE4657464546E0B583B06B464C
:1006B000DE1C002399463370C046C046C046D02495
:1006C00080252406ED01A561C046C046C046C04B4A
:1006D000012298463100180006F07AFB01AF19207C
:1006E000002101F04FFD01233A000021404606F0B1
:1006F0002FFBC046C046C0466561C046C046C046E6
:100700001920002101F03EFD4B463B702033337031
:10071000C046C046C046A561C046C046C04601228C
:100720003100404606F054FB1920002101F02AFD5B
:1007300001223900404606F04BFBC046C046C04689
:100740006561C046C046C0461920002101F01AFD6F
:100750003F233B701E3B3370C046C046C046A56178
:10076000C046C046C04601223100404606F030FB7C
:100770001920002101F006FD01223900404606F053
:1007800027FBC046C046C0466561C046C046C0465D
:100790001920002101F0F6FC0322222392463A7030
:1007A0003370C046C046C046A561C046C046C0467C
:1007B0003100023A404606F00BFB1920002101F0FF
:1007C000E1FC01223900404606F002FBC046C0466B
:1007D000C0466561C046C046C0461920002101F0F0
:1007E000D1FC524623233A703370C046C046C046FF
:1007F000A561C046C046C0463100023A404606F0F8
:10080000E7FA1920002101F0BDFC01223900404621
:1008100006F0DEFAC046C046C0466561C046C04626
:10082000C0461920002101F0ADFC4A4624233A704D
:100830003370C046C046C046A561C046C046C046EB
:1008400031000132404606F0C3FA1920002101F0C0
:1008500099FC01223900404606F0BAFAC046C0466B
:10086000C0466561C046C046C0461920002101F05F
:1008700089FC01233B7024333370C046C046C04618
:10088000A561C046C046C04601223100404606F080
:100890009FFA1920002101F075FC01223900404621
:1008A00006F096FAC046C046C0466561C046C046DE
:1008B000C0461920002101F065FC0F222623924634
:1008C0003A703370C046C046C046A561C046C046B7
:1008D000C04631000E3A404606F07AFA192000214F
:1008E00001F050FC01223900404606F071FAC04682
:1008F000C046C0466561C046C046C04619200021BA
:1009000001F040FC0E233B7019333370C046C046E3
:10091000C046A561C046C046C046012231004046DF
:1009200006F056FA1920002101F02CFC01223900B2
:10093000404606F04DFAC046C046C0466561C04616
:10094000C046C0461920002101F01CFC4A4628235D
:100950003A703370C046C046C046A561C046C04626
:10096000C04631000132404606F032FA192000211B
:1009700001F008FC01223900404606F029FAC04681
:10098000C046C0466561C046C046C0461920002129
:1009900001F0F8FB4A4629233A703370C046C0463E
:1009A000C046A561C046C046C0463100013240463F
:1009B00006F00EFA1920002101F0E4FB01223900B3
:1009C000404606F005FAC046C046C046656101E0F3
:1009D00000C00340C046C046C0461920002101F0B7
:1009E000D1FBD2222A2393463A703370C046C046C8
:1009F000C046A561C046C046C0463100D13A404617
:100A000006F0E6F91920002101F0BCFB01223900B3
:100A1000404606F0DDF9C046C046C0466561C046A6
:100A2000C046C0461920002101F0ACFBE1233B7019
:100A3000B63B3370C046C046C046A561C046C046FE
:100A4000C04601223100404606F0C2F919200021BB
:100A500001F098FB01223900404606F0B9F9C04682
:100A6000C046C0466561C046C046C0461920002148
:100A700001F088FBC3233B70973B3370C046C046F0
:100A8000C046A561C046C046C0460122310040466E
:100A900006F09EF91920002101F074FB01223900B3
:100AA000404606F095F9C046C046C0466561C0465E
:100AB000C046C0461920002101F064FBC4233B70EE
:100AC000973B3370C046C046C046A561C046C0468D
:100AD000C04601223100404606F07AF91920002173
:100AE00001F050FB01223900404606F071F9C04682
:100AF000C046C0466561C046C046C04619200021B8
:100B000001F040FBC5233B70973B3370C046C046A5
:100B1000C046A561C046C046C046012231004046DD
:100B200006F056F91920002101F02CFB01223900B2
:100B3000404606F04DF9C046C046C0466561C04615
:100B4000C046C0461920002101F01CFBC6233B70A3
:100B5000973B3370C046C046C046A561C046C046FC
:100B6000C04601223100404606F032F9192000212A
:100B700001F008FB01223900404606F029F9C04681
:100B8000C046C0466561C046C046C0461920002127
:100B900001F0F8FA5A4630233A703370C046C04626
:100BA000C046A561C046C046C0463100D13A404665
:100BB00006F00EF91920002101F0E4FA01223900B3
:100BC000404606F005F9C046C046C0466561C046CD
:100BD000C046C0461920002101F0D4FA0622312374
:100BE00093463A703370C046C046C046A561C046C1
:100BF000C046C0463100053A404606F0E9F81920E3
:100C0000002101F0BFFA01223900404606F0E0F869
:100C1000C046C046C0466561C046C046C0461920B1
:100C2000002101F0AFFA5A4632233A703370C046C1
:100C3000C046C046A561C046C046C0463100053A20
:100C4000404606F0C5F81920002101F09BFA012268
:100C50003900404606F0BCF8C046C046C046656153
:100C6000C046C046C0461920002101F08BFA4A4612
:100C700033233A703370C046C046C046A561C046B3
:100C8000C046C04631000132404606F0A1F81920A6
:100C9000002101F077FA01223900404606F098F869
:100CA000C046C046C0466561C046C046C046192021
:100CB000002101F067FA4A4634233A703370C04687
:100CC000C046C046A561C046C046C046310001329C
:100CD000404606F07DF81920002101F053FA012268
:100CE0003900404606F074F8C046C046C04665610B
:100CF000C046C046C0461920002101F043FA4A46CA
:100D000035233A703370C046C046C046A561C04620
:100D1000C046C04631000132404606F059F819205D
:100D2000002101F02FFA01223900404606F050F868
:100D3000C046C046C0466561C046C046C046192090
:100D4000002101F01FFA4A4636233A703370C0463C
:100D5000C046C046A561C046C046C046310001320B
:100D6000404606F035F81920002101F00BFA012267
:100D70003900404606F02CF8C046C046C0466561C2
:100D8000C046C046C0461920002101F0FBF91123DE
:100D90003B7026333370C046C046C046A561C0468E
:100DA000C046C04601223100404606F011F8192025
:100DB000002101F0E7F901223900404606F008F869
:100DC000C046C046C0466561C046C046C046192000
:100DD000002101F0D7F94A463C233A703370C046EF
:100DE000C046C046A561C046C046C046310001327B
:100DF000404605F0EDFF1920002101F0C3F9012262
:100E00003900404605F0E4FFC046C046C046656173
:100E1000C046C046C0461920002101F0B3F94A4639
:100E20003D233A703370C046C046C046A561C046F7
:100E3000C046C04631000132404605F0C9FF1920C6
:100E4000002101F09FF901223900404605F0C0FF62
:100E5000C046C046C0466561C046C046C04619206F
:100E6000002101F08FF9524620233A703370C046BA
:100E7000C046C046A561C046C046C04631000E3AD5
:100E8000404605F0A5FF1920002101F07BF9012261
:100E90003900404605F09CFFC046C046C04665612B
:100EA000C046C046C0461920002101F06BF9002160
:100EB000044801F067F903B0F0BCBB46B246A9464E
:100EC000A046F0BDDC050000F0B5C64600B582B016
:100ED000C046C046C046D02780233F06DB01984667
:100EE000BB61C046C046C0466B46DC1D30231C4D6E
:100EF00021002370002228002F3B05F071FFD22330
:100F0000F0262100237000222800D13B05F068FF65
:100F10002100012300222800267005F061FF210036
:100F2000012300222800267005F05AFF210001232A
:100F300000222800267005F053FF01230022210023
:100F40002800267005F04CFFC046C046C046434608
:100F50007B61C046C046C04602B080BCB846F0BD0A
:100F600000C00340F0B5C64600B582B0C046C046DA
:100F7000C046D02780233F06DB019846BB61C046B0
:100F8000C046C0466B46DC1D2A231C4D2100237041
:100F900000222800293B05F023FFD223F026210060
:100FA000237000222800D13B05F01AFF2100012305
:100FB00000222800267005F013FF210001230022E3
:100FC0002800267005F00CFF2100012300222800D4
:100FD000267005F005FF012300222100280026705D
:100FE00005F0FEFEC046C046C04643467B61C04693
:100FF000C046C04602B080BCB846F0BD00C0034049
:10100000F0B5C64600B582B0C046C046C046D0273F
:1010100080233F06DB019846BB61C046C046C04600
:101020006B46DC1D2B231C4D210023700022280061
:101030002A3B05F0D5FEE123F02621002370002293
:101040002800E03B05F0CCFE21000123002228000F
:10105000267005F0C5FE210001230022280026701D
:1010600005F0BEFE2100012300222800267005F0B5
:10107000B7FE0123002221002800267005F0B0FEF3
:10108000C046C046C04643467B61C046C046C046D7
:1010900002B080BCB846F0BD00C00340F0B5C64603
:1010A000D024802700B5784E82B03000774905F013
:1010B00093F90121042000F0ABF90121062000F092
:1010C000A7F90121072000F0A3F92406FF010E2053
:1010D00000F0B6F967621120676100F0B1F9802372
:1010E0009B0263621920A361984600F0A9F980234E
:1010F0009B046362642001F059F8FFF7D1FAFFF70F
:10110000E3FEFFF72FFF6B46DD1D03236A462B70BE
:1011100020339371C046C046C046A761C046C04652
:10112000C0466B460122991D300005F051FE192082
:10113000002101F027F801222900300005F048FEC7
:10114000C046C046C0466761C046C046C04619207A
:10115000002101F017F8FFF753FFFFF751FFE223DB
:1011600000222B7029003000E13B05F039FEC0461B
:10117000C046C04643466361C046C046C0460F20D5
:10118000002100F0FFFFC046C046C0464346A361B1
:10119000C046C046C046E12300222B702900300023
:1011A000E03B05F01DFEC046C046C04643466361B5
:1011B000C046C046C0460F20002100F0E3FFC046F5
:1011C000C046C0464346A361C046C046C0460F2342
:1011D0006A462B7011339371C046C046C046A76162
:1011E000C046C046C0466B460122991D300005F03E
:1011F000EFFD1920002100F0C5FF01222900300079
:1012000005F0E6FDC046C046C0466761C046C04620
:10121000C0461920002100F0B5FF0E236A462B704E
:1012200019339371C046C046C046A761C046C04648
:10123000C0466B460122991D300005F0C9FD1920FA
:10124000002100F09FFF01222900300005F0C0FDC1
:10125000C046C046C0466761C046C046C046192069
:10126000002100F08FFFC046C046C0464346636180
:10127000C046C046C0468720002100F083FF02B070
:1012800080BCB846F0BDC04600C00340A086010047
:1012900030B5040083B0062003F018FB00236A4633
:1012A0002060D370C046C046C046D02480252406A6
:1012B000ED01A561C046C046C0466B460122D91C5F
:1012C000524805F085FD1920002100F05BFF012345
:1012D000002101AA4D4805F03BFDC046C046C0466E
:1012E0006561C046C046C0461920002100F04AFF93
:1012F00017236A46D370C046C046C046A561C046A3
:10130000C046C0466B460122D91C404805F060FD2E
:101310001920002100F036FF0123002101AA3B48DB
:1013200005F016FDC046C046C0466561C046C046D1
:10133000C0461920002100F025FF019B0020DB079B
:1013400061D4C046C046C046A561C046C046C0463E
:1013500061236A4601A913712C480022603B05F005
:101360003FFD01AA01230221284805F0F1FC01AA52
:1013700001230221254805F0EBFC01AA01230221EB
:10138000224805F0E5FC01AA012302211F4805F0CF
:10139000DFFC01AA012302211C4805F0D9FC01232E
:1013A000022101AA194805F0D3FCC046C046C04638
:1013B0006561C046C046C04640236A461371193B6A
:1013C000D370C046C046C046A561C046C046C046B0
:1013D0006B460122D91C0D4805F0FAFC19200021AA
:1013E00000F0D0FE012201A9084805F0F1FCC0463A
:1013F000C046C0466561C046C046C04619200021AF
:1014000000F0C0FE012003B030BDC04600C0034064
:10141000094A10B594464024830063441A68C0000A
:101420006240803414408022520113431C60034BFD
:101430009C466044416010BD04C001400040014032
:101440000123D0228340120693629361094A40210E
:101450009446830063441A68C0004A4080311140BA
:101460008022520113431960034B9C4605236044BC
:101470004360704704C0014000400140024B1868BF
:101480008007C00F7047C04600C0064070B5EFF33C
:10149000108C72B60D4D2B68002BFCD0BFF35F8F04
:1014A0000724CB08C618C05C01230C40A3401C00D5
:1014B0000440034207D118433070BFF35F8F2C60A4
:1014C0008CF3108870BD100001F0D0FC2C0100D00E
:1014D000F8B54746CE46884680B5EFF3108C72B615
:1014E000214D2C68002CFCD0BFF35F8F9A422CD882
:1014F000D4080727055D061901241740BC402C427B
:101500001FD007210127894609E0D408055D061987
:101510004C4639001440A1400C00294211D0013240
:101520009342F2D201204042BFF35F8F00220E4B64
:101530001A608CF3108800280FDBC0BCB946B04697
:10154000F8BD254310003570EEE7BFF35F8F002331
:101550002B608CF31088012040424346002BECD0D6
:10156000089801F083FCC0462C0100D00021044BF8
:10157000044ABFF35F8F02C39342FAD17047C0465B
:10158000000100D0800100D0044A1078431CDBB277
:10159000172B00D9102313707047C046B40D0020DC
:1015A00010B5064B064C82B00100009318221F2391
:1015B0002000FFF78DFF02B010BDC046F06E001096
:1015C0006C1C002001238340002904D0034A1360CF
:1015D000034A13607047034A1360FBE780E200E0B0
:1015E00000E100E080E100E0024B10309B688000E9
:1015F000C058704700ED00E070B50D00EFF31086A5
:1016000072B60F4A1368002BFCD0BFF35F8F0D4BEF
:1016100010309B6884001B590B4A934203D09D42B3
:1016200001D001F03BFC074B9B681D51BFF35F8F5E
:10163000BFF35F8F0022024B1A6086F3108870BDE3
:10164000240100D000ED00E0CD010010F0B55746B8
:101650004E46DE464546E0B585B0060000911700CF
:10166000EFF3108B72B66A4A1368002BFCD0BFF3FD
:101670005F8F0025674B5D579A46002D00DA8BE09F
:101680006B00654C01935B199B009846A146C144D1
:101690004B4652469B7910361370604BB6009B68E0
:1016A00099590B1B2F2B33D95D4B994200D0ACE0DD
:1016B000019B42469C465B4B6544AD0063535A4BCD
:1016C0000232A218043B9B1A1B05584A5B0D651990
:1016D00013436B80564B0121AB80FF23AB71009B02
:1016E000EF71AB604B460B4319004C4B9B68995113
:1016F000BFF35F8FBFF35F8F0022454B1A608BF300
:10170000108805B0F0BCBB46B246A946A046F0BD65
:1017100001200A008243D3798C46BB4231D845462A
:10172000130044491B1B5B415943090D3D4B635357
:101730003D4B02356519043B5B1B1B053B4D5B0DA7
:101740002B43AA464D466B800425AC465546E044E3
:10175000131F44441B1B1B055B0D1D434B46997116
:1017600000999D8099604946DF71334B01431360B6
:10177000BBE75800C01880002018C179B94211D9C0
:1017800002000623D356002BF3DA0293131D9A4668
:101790002A4B6146039319E001F080FB0025534674
:1017A0005D576DE7908802934005131D9A46031517
:1017B00061469C464046D444634604302018181ABB
:1017C000E0230005400D1B021843039004235B42F5
:1017D0009C46E14450464B461B1A1B055B0D9C463C
:1017E000124B957198466346404603439380019B94
:1017F0005A199200039BA418A380029B0E4AA3715E
:10180000009B2260E771A3606FE701F047FB4FE7A1
:10181000240100D008210020B80D002000ED00E0D8
:10182000CD01001000A1FFFFE80D002000E0FFFF48
:1018300001BDFFFFAAAA00000148804701BD0000CA
:10184000F0B5DE4657464E464546E0B50C0083B03F
:10185000EFF3108872B65D4A1368002BFCD0BFF31B
:101860005F8F5B4B5B499A68030010339F00D5592B
:101870008D4239D0A5424AD0574EAA1B2F2A33D8C1
:1018800001229246824091464846544A12681040CE
:1018900001904846524A1060BFF35F8FEFF3058214
:1018A0009346002A35D0934201D001F0F7FA2A007E
:1018B00053469A439068844208D175E04B005B1808
:1018C0009B00F3189868A04234D01A0006215156A4
:1018D0000029F3DA844253D0019B002B26D04A46DC
:1018E000404B1A603D4B1A60394B9B68DD51BFF38A
:1018F0005F8FBFF35F8F0022344B1A6088F310882C
:1019000003B0F0BCBB46B246A946A046F0BD0D00F0
:10191000EAE72A0053469A4390688442D6D10620CB
:1019200010561300002809DA0D0031E04A462C4B0E
:101930001A60D9E706201856002822DB4200111849
:10194000890074188A46A1689960E179D9710621E5
:1019500061569971002925DBA488F11A64052415C4
:1019600054440919E0240905490D240221439980B2
:1019700013181D4A9B001178F31899711070ABE78A
:1019800013005946002914D1FF31917117499180F4
:1019900015490A789A71164A9B1B5B415A43120DEE
:1019A0000A7099E71349E2E7062010561300002851
:1019B000C4DA114A1149D21A083A5002400D0143C3
:1019C00099800F4952080A43DA8085E7240100D044
:1019D00000ED00E0CD010010B80D002000E100E0B6
:1019E00080E100E080E200E00821002001BDFFFF6F
:1019F000AAAA000001BD0000F20D002000F0FFFFC8
:101A000000F8FFFF70B5EFF3058101240443EFF305
:101A1000108C72B6214A1368002BFCD0BFF35F8F85
:101A20001F4B05001F4AED1A6D416A43120D1E4DF2
:101A30008900AE6852B27658A6421CD0062159568B
:101A400091421CD012215956914222D01E21595642
:101A5000914220D02A2159560324914210D0134B91
:101A600019781A708171BFF35F8F00220B4B1A60D7
:101A70008CF3108870BDAB680D4C5C50EFE7002410
:101A80006100091989005B18FF2199710949998042
:101A9000E5E70124F4E70224F2E7C046240100D080
:101AA000B80D0020AAAA000000ED00E008210020E7
:101AB000CD01001001BDFFFF054B064A1360064A29
:101AC000136053609360D3601361536193617047F7
:101AD0008080808000E400E004E400E0024B9C464B
:101AE00061448900016070474000003410B5040073
:101AF000FFF74AFD01002000FFF7F0FFFF232371ED
:101B0000BFF35F8F10BDC04610B50400FFF73CFD6A
:101B100001002000FFF7E2FFFF23A380BFF35F8FE8
:101B200010BDC04610B504000120FFF739FD034B7E
:101B3000C3189B002360BFF35F8F10BD40000034CB
:101B400083680B4810B58446614462441201090160
:101B500059189B185C684A680120944201D802D049
:101B60000020C0B210BD1A680B689A42F9D8F7E796
:101B7000FFFFFF0F0A4B1968EFF3108072B60A6877
:101B8000002AFCD0BFF35F8F1B68BFF35F8F00227A
:101B90001A6080F3108840BF002000217047C046C3
:101BA000DC200020F8B5574645464E46DE46E0B5F7
:101BB00098460CAB1C780DAB1B78070091469A46F3
:101BC0000568002C5ED1AC7B002C3BD066002968F8
:101BD0003619033E89194B78AB73002B00D1EB7398
:101BE00000238B704B700B702D4BE218BB681201F9
:101BF0009B184A461A6042465A600A9A9A600B9AA3
:101C0000DA6000238B704B700B706B7B9B46002B54
:101C10002BD022005946A8686B6898472A6800288C
:101C200016D05B4658465B005B449619033BB07088
:101C3000D118D35C002B00D073705B460C706B73B3
:101C40005C4513D0F0BCBB46B246A946A046F8BDE1
:101C50005B465B005B44033BD3189C709119925D1B
:101C6000002A00D05A705B460B706C734A4643469C
:101C7000387D00F0BDFB051E0AD10E9B002BE1D084
:101C80001D70DFE7660029683619033E8919ABE746
:101C90005346002BF1D12100386800F0D3FDECE76A
:101CA000FFFFFF0FF0B5DE4657464E464546002380
:101CB000E0B58BB00893674B8200D45800239B4655
:101CC000099000F035FB02000B006068EFF3108A0A
:101CD00072B6564601680029FCD0B246BFF35F8F4A
:101CE00021684F7B8C46002F2ED0A5685A49A94603
:101CF00079180901894449460868496805000E00B9
:101D0000AD1A9E41002E5FDD02000B00099800F025
:101D10006FFB0023002299460023069207930023BD
:101D200098466368BFF35F8F5A461A608AF310883B
:101D30004346002B12D10028C3D10BB0F0BCBB46E8
:101D4000B246A946A046F0BD0023002299460023D2
:101D500006920793002300209846E2E7089B494635
:101D600018023843C047626805000E00EFF3108A7E
:101D700072B61368002BFCD0BFF35F8F002E40DBE0
:101D80002B00334302D02369002B55D12368D97B24
:101D9000002905D01A68480041185218033A5770B4
:101DA0009A7B002A00D19F73DF73E268013FD35D05
:101DB0000133D3555B4623616368BFF35F8F5A4697
:101DC0001A608AF310887CE7002E01D1002D9BD188
:101DD0000021604600F0B4FC4B461A685B6806922E
:101DE00007934B469B6898464B46DB689946E368E9
:101DF000DB19013B1B7808931B020343236100207E
:101E00008FE72369002BC1D0069A079B8021521BC4
:101E1000B34109068B4202D30122104B52420021EA
:101E200004910131039149460191414620000297F6
:101E30000091FFF7B7FEBDE700F07AFA2A00330001
:101E400012184B41802109068B42E8D30122034B33
:101E50005242E4E7C8200020FFFFFF0FFFFFFF7F93
:101E600010B5144C6368002B04D00A211248FFF708
:101E700035FE10BD2300114A1021206800F076FBCA
:101E8000032000F049FA032000F020FB03200C4956
:101E900000F068FAFFF778FB0A4B9C460323237592
:101EA000D0231B061B6860446375074B800060608D
:101EB000DC60DAE7000E0020DC200020411B00106F
:101EC000A51C001040000034C8200020F0B5574683
:101ED0004E464546DE46E0B585B0019310AB1B7813
:101EE0000600039300239A46984600927268EFF327
:101EF000108B72B61368002BFCD0BFF35F8F356870
:101F0000AC7B002C00D16FE067002B683F19033FCA
:101F1000DB195A78AA73002A00D1EA734B4AA11838
:101F2000B2680901521800980199106051600E9929
:101F300091600F99D16042469A705A701A706B7B0B
:101F40009946002B00D170E022004946A8686B68D2
:101F500098472A6800285BD04B4648465B004B44B4
:101F6000D719033BB870D118D35C002B00D07B701D
:101F70004B460C706B734C4558D0F3681B19013BF2
:101F800018787368BFF35F8F42461A608BF310882E
:101F90005346002B08D10002204305B0F0BCBB46DD
:101FA000B246A946A046F0BD039B002B4BD00E9B2A
:101FB00000200F999847030004000D000B4342D006
:101FC00000291ADA009A019B121BAB41009201937F
:101FD00080221206934204D301231D4C5B420093DE
:101FE0000194039B9A4681E77368BFF35F8F1C607F
:101FF0008BF3108801204042CFE700F099F980224E
:1020000024184D411206009401959542E9D3E3E767
:102010004B465B004B44033BD3189C70D119D25DF7
:10202000002A00D05A704B460B706C73307D009ABA
:10203000019B00F0DDF9824600289ED02100306827
:1020400000F000FC99E70020A7E7C046FFFFFF0F64
:10205000FFFFFF7FF8B50B0004004168EFF3108528
:1020600072B60A68002AFCD0BFF35F8F2068D9B22D
:10207000427B8A4209D0FF261E4002687700BE19C3
:102080009219033A9278002A12D0FF26E2681E4085
:102090009219013A1B0A1278DBB29A420DD0002045
:1020A0006368BFF35F8F00221A6085F31088F8BD64
:1020B00021699942F3D12261F1E700F0C3FBEFE718
:1020C000F0B504000D0006267642F717C64636190D
:1020D0006F4100B584B08F4214D811D000F028F9B8
:1020E00032003B00121A8B41002B15DC002B3ED036
:1020F0002000290000F026F904B080BCB846F0BDED
:102100008642EBD90026002700F012F932003B008E
:10211000121A8B41002BE9DD002302930193154B2A
:102120003200009314483B00FFF7D0FE0028DFDBAD
:1021300000239846BC46114A114F7B6A9C4504D83F
:10214000B96AB142D4D29C45D2D11168EFF3108064
:1021500072B60B68002BFCD0BFF35F8F1368BFF320
:102160005F8F4146196080F3108820BFE5E7002AA1
:10217000BED0D1E7751B0010000E0020DC2000202F
:102180000040054070B504000D0000F0D1F8802338
:10219000001969411B06994202D3012002494042BD
:1021A000FFF78EFF70BDC046FFFFFF7F70B50600D2
:1021B00000F0BEF8FA2204000D00002330000021D8
:1021C000920002F021FB8023001969411B0699420D
:1021D00002D3012002494042FFF772FF70BDC046A2
:1021E000FFFFFF7F70B5EFF3058305000C0084B09F
:1021F000002B0AD0164A0020536A9C4203D8926AE8
:102200000130AA421FD304B070BD124E0293019355
:10221000114B0200009330000B00FFF757FE011E28
:10222000E8DD20BF3000FFF715FF094B00205A6A98
:102230009442E8D89B6A0130AB42E4D2A41A631EF0
:102240009C41E0B2DFE7E31A5A1E9341D8B2DAE7C5
:1022500000400540000E0020751B0010F0B5EFF3A4
:102260000582D6464F4646461000C0B51038EFF3FB
:10227000108872B6214C2368002BFCD0BFF35F8F0F
:102280000123190081401E4D1F006963AA461D4DA0
:1022900029601D4D2E78AC463500C5402F402B429D
:1022A00015D053465F6A194B8500EB589F4218D3EF
:1022B0006246174B8E43EB581670BFF35F8F0022B8
:1022C000226088F31088002B06D0984704E0BFF303
:1022D0005F8F276088F31088E0BCBA46B146A846F5
:1022E000F0BD0C4B92009C46624413681360BFF330
:1022F0005F8F0023236088F31088EDE7280100D06A
:10230000004005403C7005400A210020E8200020E4
:10231000541C0020D03F054010B5034B01001800AD
:10232000024AFFF7B3F810BD062100200C6F001021
:10233000034B596A0A00986A596A8A42FAD170476F
:1023400000400540064A536A9942FCD807D1044B25
:1023500002E05A6A914202D19A6A8242F9D37047E6
:102360000040054070B504000D00EFF3108672B612
:102370001A4A1368002BFCD0BFF35F8F002D1BD0CF
:102380002000FFF731F9164981420AD02000FFF7FB
:1023900033F901212000FFF715F90123A340114A69
:1023A0001360114BA400E550BFF35F8F00220B4B6D
:1023B0001A6086F3108870BD0121A1400A4BA2006B
:1023C000D5500A4B20001A788A4305491A70FFF746
:1023D00037FA00212000FFF7F5F8E5E7280100D0E3
:1023E0005D22001038600540541C00200A210020A6
:1023F000F0B54F46D6464646C0B507002E4C616A3A
:102400000D00A66A616AA942FAD18B4208D805D0AC
:102410000120E0BCBA46B146A846F0BDB242F7D9A9
:10242000EFF3108A72B6254801680029FCD0BFF38B
:102430005F8F0125BD4022491F4C88460978894697
:102440002943C9B28C46414660460870391D89004F
:1024500065630A511B49B8004350216A0020294294
:1024600019D0616A0800A66A616A8142FAD18B427A
:1024700019D801D1B24216D8CC450BD00E4B1F2231
:102480001D625D6301233A4093400F4A1360434647
:102490004A461A700120BFF35F8F0022074B1A6073
:1024A0008AF31088B5E70020BFF35F8F0022034B4B
:1024B0001A608AF31088ACE700400540280100D07C
:1024C0000A210020E820002080E200E0EFF3108CD9
:1024D00072B60A490B68002BFCD0BFF35F8F012353
:1024E0008340074A0748136202789A430270BFF399
:1024F0005F8F00230B608CF310887047280100D099
:10250000004005400A21002070B505000E001400AF
:10251000002923D0002A12D080686B689847296868
:1025200000280ED063001B197200033B9219CB18D0
:10253000033A9E7088188A5C002A11D1047030001A
:1025400070BD73009B196200033B1219CB18033A4C
:102550009C7088188A5C002A05D106702000EFE77D
:102560005A700470EBE75A700670F7E730B5836075
:102570000023CCB243730133047342608373C4738A
:102580000D000068012C06D9421C0133DBB2137028
:1025900003329C42F9D1FF2129404B005B18C0183F
:1025A00000230338437030BD70B505000C1E07D002
:1025B000630001681B19033BCB185A78002A01D12C
:1025C000200070BD500080180338091800204E7894
:1025D0004870210058702800FFF796FF3100040072
:1025E0002800FFF7E1FF0600002C26D00028E7D0E6
:1025F00021003200A8686B689847296800280ED02F
:1026000073009B196200033B1219CB18033A9C70AC
:1026100088188A5C002A00D05A700670D0E76300E0
:102620001B197200033B9219CB18033A9E7088184D
:102630008A5C002A00D05A7004703400C0E7C0469B
:10264000F0B557464546DE464E46E0B50D006F00F4
:1026500001687F19033F0400C85D83B00192CA1965
:10266000002850D043001B18033BCB185E78B446BB
:10267000002E1AD1019E002E42D0E67B002E04D0FF
:1026800073009B19CB18033B5D70A37B002B00D11B
:10269000A573E57300282FD10023537003B0F0BC5D
:1026A000BB46B246A946A046F0BD72006244033A5A
:1026B0008A18517888460021517089465970320035
:1026C00001002000FFF720FF43468246002B07D081
:1026D0005B0021684344033BCB185A78002A16D18B
:1026E000424651462000FFF70FFF2168019BCA199F
:1026F000002BC2D10028CFD043001B18033BCB18BE
:1027000000219970C8E7019B002BB6D1C4E75000A7
:10271000801803380918487883464846487058702E
:1027200041462000FFF7F0FE594680462000FFF7A3
:102730003BFF414602002000FFF7E6FE8046CFE760
:10274000F0B557464546DE464E46E0B583B00191AA
:10275000457B04006F0000687F19033FC15DC2190B
:10276000002952D04B005B18033BC3185E78B44677
:10277000002E1CD1019E002E44D0E67B002E04D0FA
:1027800073009B19C318033B5D70A37B002B00D122
:10279000A573E573002931D10023280053706173BC
:1027A00003B0F0BCBB46B246A946A046F0BD7200DD
:1027B0006244033A82185078804600205070814667
:1027C000587032002000FFF79FFE43468246002BE0
:1027D00007D05B0021684344033BCB185A78002A9A
:1027E00017D1424651462000FFF78EFE019B0100A3
:1027F0002068C219002BC0D10029CDD04B005B1836
:10280000033BC31800209870C6E7019B002BB4D18E
:10281000C2E75000801803380918487883464846B4
:102820004870587041462000FFF76EFE59468046BA
:102830002000FFF7B9FE414602002000FFF764FECA
:102840008046CEE770B5050000292CD0437B8B4233
:102850002ED04C0000686418033C0419A278002AAA
:1028600021D053009B18033BC25CC6188A4202D198
:102870001BE0002A08D053009B18033BC3185A786A
:102880008A42F6D162785A70002301222800A37090
:102890006370FFF7D5FE697B02002800FFF734FE66
:1028A0006873012000E0002070BD63783370EBE7AF
:1028B00001221900FFF7C4FEF2E7C046F8B5040094
:1028C00006200D0000F0C4F9002844D02A4B2B4903
:1028D000E21853425A418023DB039C469205284B61
:1028E00062441A60274B1A6010008B689843FBD132
:1028F000214B254AE31859424B4180215B00490096
:102900000620995200F0A4F92900C00000F026FB2F
:10291000C30921D140270121260080256162A362DD
:1029200000232C36AD0135432B60062000F090F9D2
:102930003900800000F012FB6022E36A53400E323F
:102940001A4080235B0133431A60104B236310232A
:102950002B600D3BA364F8BD0D4A934203D90023BD
:102960000C4F0D49D8E77F220240013252089F01E7
:102970001900BF181300CFE70080FCBF00C0004063
:1029800000E0004000F00040F820002001030000BB
:10299000FEFF0000C0FF3F00FFFF000010B50C204D
:1029A00082B000F0AFF9FEF769FD002810D0864B29
:1029B00086488649864A186059609860D9601861CF
:1029C00059619861D961186259625A6202B010BDAA
:1029D000804CA06700F09EF901227F4B1A60636C67
:1029E000012BFCD103227D4B1A607A4A936B012B99
:1029F000FCD1013301217A4A7A480093043300F074
:102A00002DF90523784A00930121784800F026F932
:102A1000774B5A68FF2A02D8802252005A608022DF
:102A20006E4B694C12011A602169002905D060695A
:102A300000F094FA01300138FDD1E0226C4B6D4872
:102A400019680A40026002221968514001320A40A6
:102A5000042102609A681142FCD08021664A090173
:102A60001160802252005A60644B2361644B5968A4
:102A7000FF2900D85A6003220121574B1A60604A8F
:102A800093681942FCD0E023106803405D4803605E
:102A9000126803234A4002211340594A0360936895
:102AA0001942FCD08021584B090119608021574BF5
:102AB000490051606361564B5A68FF2A00D859603B
:102AC0008022544B12011A60E169002905D0606927
:102AD00000F044FA01300138FDD1E0234C4A11687E
:102AE0000B404D490B6080214C4B0901196080213E
:102AF000364B49005160E361494B5A68FF2A00D8C0
:102B000059608022474B12011A60216A002905D0C2
:102B1000606900F023FA01300138FDD1E023404A1A
:102B200011680B4040490B608021404B090119603E
:102B300080235B0053608022244BD20223623C4BF3
:102B40005968914200D25A6080223A4B12011A60B1
:102B5000616A002905D0606900F000FA013001388F
:102B6000FDD1E023324A11680B4033490B608021CC
:102B7000324B090119608023DB025360144B6362FE
:102B80002F4B5A68FF2A02D8802252005A608022B6
:102B90002C4B12011A60A169002905D0606900F070
:102BA000DDF901300138FDD1E023254A11680B40E1
:102BB00025490B608021254B0901196080235B00AA
:102BC0005360124BA36101E7F0160020006CDC0299
:102BD0001BB70000008000403CB0004030B0004017
:102BE000002F685900800240008C864700C00240D8
:102BF000308000403090004030A00040001BB70003
:102C00003C8000403C9000403CA00040405973078D
:102C10005480004054B000405490004054A0004004
:102C20006080004060B000406090004060A00040C4
:102C30006C8000406CB000406C9000406CA0004084
:102C40004880004048B000404890004048A0004004
:102C5000014B8000C0587047F0160020F8B5040002
:102C60000C2017001D000E0000F078F943011B1A1C
:102C70009901C91AC90009188901380000F06EF9D4
:102C8000069B29041B0319432368002B20DB194BE7
:102C9000194DE3185A4253418022520194461B03B6
:102CA000164A63441360164A13601F00AA689743CC
:102CB000FBD1C023221D9B01134321222660A0606B
:102CC0001A602268002AFCDA0822E1601A60F8BD66
:102CD0003F2322681340B342D9D1A3681B051B0DC3
:102CE0008342D4D1EE22E368D20213408B42CED18C
:102CF000EDE7C0460040FDBF00C0004000E00040DE
:102D000000F000408023024A9B000343D3627047D7
:102D100000800540AA23064A1B0113602F230549A2
:102D2000D360054B19605368002BFCDA7047C0462E
:102D30000040024000B0FA00006002402C4B2D4AD7
:102D400070B51A602C4A2D4B2D491A6014008B68FF
:102D50009C43FBD12B4D2C4EB54208D2013E761B35
:102D6000B60808CD984723000134B342F9D1FFF7E4
:102D700015FE264A214B1A60214A9368DB43DB018A
:102D8000DD09002BF9D14022214B224C224E9A67BB
:102D90005A671A67DA66B44208D223682000002B0B
:102DA00020D00834FEF7B0FEB442F6D31B4C1C4EC4
:102DB000C022B168200001F0A9FDB460FEF7D6FB87
:102DC000FEF77AFEFFF74CF8164C174EB44208D2C5
:102DD000013E361BB60808CC98472B0001359E42B1
:102DE000F9D170BD0834FEF781FEB442D5D3DDE7DA
:102DF00000E00040BFCDFBFEFE7F3C0000F0004045
:102E000000C00040D8160020E8160020FFFFFF0198
:102E100000F00140D0160020D8160020000000204D
:102E200000ED00E0E8160020EC16002000BEFDE7F3
:102E3000094A03001068002805D00849C3188B42CE
:102E400007D81360704706480449C31810608B42C6
:102E5000F7D901204042F5E7BC1C00200000042007
:102E60000C21002010B5FFF7E1FFC0460FB400B5FC
:102E7000084883B001F0FAFD049B002B07D005A998
:102E80001800019100F018F8034801F0EFFD01204F
:102E9000FFF7CCFF306F0010406F001010B50148F5
:102EA000FFF7E4FF446F001010B5002800D110BDFB
:102EB00001F090FDFBE7C04610B5094A0300146815
:102EC00084B0002C08D0012200910648524203A988
:102ED000A047012004B010BD01F0C8FD0020F9E7B3
:102EE000C0200020A92E001001480421014B1847E2
:102EF000300E0020192F0010142310B5010018887F
:102F000004331B88984710BD162310B5010018889C
:102F100002331B88984710BDF8B54746CE4680B5AA
:102F20000F1E19D0142399460433040000250126EE
:102F300098464B461888434621681B88984701C429
:102F4000431E9841013540420640AF42F1D1300066
:102F5000C0BCB946B046F8BD0126F8E7114A936FE8
:102F60009B0813D210665166002905D0FFE7FFE7E2
:102F7000FFE7516F106F704704B5002801D00020A3
:102F8000C04303F00DFF002104BDC046F0B5146E30
:102F9000556E576F166FFFF7E5FF14665566576756
:102FA0001667F0BD000000D094464A4A926F92081E
:102FB000624601D228E0C046F0B5464E346E756ECA
:102FC000776F366F00F020F89446424A14665566D3
:102FD000576716676246F0BD94463E4A926F920864
:102FE000624601D254E0C046F0B53A4E346E756E7A
:102FF000776F366F00F04CF89446364A1466556683
:10300000576716676246F0BD002B24DB11D00029FC
:103010003EDA00B5C943404200D1013100F038F832
:10302000C943404200D10131DB43524200D1013358
:1030300000BD002AEBD1002801D1002905D00020D5
:10304000C90FC90701D1C043410800B503F090FE84
:103050000022002300BD00B500290ADBDB435242F9
:1030600000D1013300F014F8C943404200D10131CE
:1030700000BDC943404200D10131DB43524200D17F
:10308000013300F005F8DB43524200D1013300BDAB
:10309000002923D1002B18D1002A0CD0BC460D4F9B
:1030A00038667A6600210023FFE7FFE7FFE77A6FC3
:1030B000386F67467047002801D00748010000B507
:1030C00003F056FE0022002300BD02000B0000208A
:1030D00000217047000000D0FFFFFFFF002B00D051
:1030E000BFE0130C28D1002AE7D080B4114F396615
:1030F0007A66FFE7FFE730B4040C7B6F396F1B047F
:1031000023433B667A66FFE7FFE7FFE7C04684B2EA
:103110007B6F3D6F1B0423433B667A66FFE7FFE747
:10312000C04600232C042D0C7A6F386F00196941BA
:10313000B0BC7047000000D0F0B594460025140ED6
:1031400001D112020835140F01D112010435940F78
:1031500001D192000235D40F01D152000135D40BB8
:103160000134254F7C66254C3C660E0C93B2FFE77C
:10317000FFE7FFE73C6F6643360C7703BE467343B9
:10318000DF0B5B04C01AB941130C7343DB18C91A77
:10319000CE086643360CB64493B273431F0F1B012F
:1031A000C01AB941130C73431F0B1B05C01AB94158
:1031B000860D8F023E436643360C092D24DB520AEE
:1031C0007243801A7703460A6643360C16235B1B4C
:1031D000DE40DF40BF1964466643821B70460435FB
:1031E00006330100D940A840C01900D30131A242E2
:1031F00006D20023F0BD0000000000D0FFFFFFFF5B
:10320000121B0130F3D3F1E709277F1BFE40644610
:10321000A2B27243801A00D20139220C7243130CFD
:103220001204821A99410B007046043513370100CD
:10323000F940A840801900D30131002B02D1A242ED
:103240000AD2F0BD013000D30131121BFAD2013B8A
:10325000F8D1A24200D2F0BD013000D30131121BDF
:10326000F7E7F0B51C0C00D080E00CB400251C0A78
:1032700004D11B02160E3343120208351C0B04D175
:103280001B01160F3343120104359C0B04D19B0024
:10329000960F334392000235DC0B02D192185B414A
:1032A00001351C00971864410134464F7C66464C3A
:1032B0003C660E0CFFE7FFE7FFE7C0463C6F664346
:1032C000360C7703BE4697B27743C01B00D2013954
:1032D000C01B00D201399FB27743C91BC91B170C11
:1032E00077437E04FF0B801BB941CE086643360C42
:1032F0000C2D33DBB644120B1F053A431B0B97B260
:103300007743C01B00D201399FB27743C91B170C0A
:1033100077433E043F0C801BB941860D8F023E432C
:10332000664329277F1BFE400C3D7746AF40BF19FF
:1033300030BCA2B2ABB272437343801A9941220CE3
:103340007243130C1204801A994102000B000137DA
:10335000001BA941F9D2781E0021F0BD0C277F1B6C
:10336000FE4077467F0BAF40FF19E0E700245D1C6D
:1033700007D0144F7D663966FFE7FFE7FFE7FFE7F9
:103380003C6F95B29EB265436643401BB141150C3C
:103390001E0C6543664336042F0C3E432D04401B30
:1033A000B141994204D202000B0020000021F0BD7F
:1033B00001D19042F7D3801A994101349942F2D356
:1033C000F6E70000000000D0FFFFFFFF484041404B
:1033D000484018B41B4B5B68FC46019308BD04DFF2
:1033E000DF3F001018B4174B1B68FC46019308BD63
:1033F00000DFE93F00109446134A926F920809D209
:10340000624618B40F4BDB68FC46019308BD0CDF25
:10341000A14200100C4AF0B5146E556E576F166F2E
:103420006246FFF7EEFF084A14665566576716674F
:10343000F0BD18B4034B9B68FC46019308BD08DF40
:103440004541001018180020000000D0FFB5504082
:103450004240504059404B40594000E0FFB5154FA5
:103460004C00640D03D0BC4204D10C0314D80020DE
:10347000090D09055C00640D03D0BC4204D11C0396
:103480000AD800221B0D1B0501264B4009D44B40D6
:1034900003D58B4200D18242FFBD9942FCD19042BC
:1034A000FFBD0B43DB1803431343F5D0C943491851
:1034B000FFBD0000FF07000000B5FFF7CFFF01D000
:1034C000002000BD012000BD00B5FFF7C7FF01D9F6
:1034D000002000BD012000BD00B5FFF7B7FF01D9F6
:1034E000002000BD012000BD00B5FFF7AFFF804107
:1034F00000BD00000021002805D17047C1174840D9
:10350000401AFAD0C90713B5064B1B6898470CBC84
:10351000441CA2401005120B0349091B090519435D
:10352000114310BDD82000201F04000010B54C002E
:10353000620D8023D218DB00D21A5B057E2A10DDD3
:103540009E3A13DACC170903490819435242D14075
:10355000640001341532202A05DAD0400843604364
:1035600010BD002010BD0846604310BDC80FC01834
:10357000013810BD18B4044BDB6CFC46019308BD48
:103580004CDFA145001000001818002018B4044BAF
:103590001B6DFC46019308BD50DF3D460010000046
:1035A00018180020132370B51D78012D15D010DDDB
:1035B0001D48FFF7A9FC1D4C01008022200001F0EE
:1035C000A5F9022D2DD01A48FFF796FC194B18606B
:1035D00070BD194B154CA364F5E7174B134C2360D2
:1035E0006360A360E36023616361A361E3612362BD
:1035F0006362A362E36223636363A363E36323649D
:103600006364A364E36423656365A365E36523667C
:103610006366A366E36623676367A367E367A364E0
:10362000D1E7054BA364CEE75344000018180020EF
:103630004C330000D8200020AD3F0010F0B54646C6
:10364000D6464F461D00894BC0B598464E00760DB4
:10365000140088B0B044002E2FD0854B9E422CD051
:103660000022844FBF1B3B0580185941FFF78EFF96
:10367000814A824BFFF7BFFE0022814B00900191EF
:10368000FFF732FF002826D14346002B31D000221D
:10369000200029007B4BFFF71FFF002832D10022BA
:1036A00020002900784BFFF70FFF002835D0434654
:1036B0000020002B2ADB002129E0FFF767FF6E4A7C
:1036C0006E4BFFF798FE00226D4B00900191FFF7C3
:1036D0000BFF0028DBD0009801996C4B0022FFF70C
:1036E00078FE6B4B009001919846B0444346002B06
:1036F000CDD10098019922002B00FFF79AFE00F02F
:1037000069FA04E043460020002BD4DB614908B08D
:10371000E0BCBA46B146A846F0BD2000290000F042
:103720000BFA0B00020006000F0020002900FFF733
:1037300050FE1A220290039100F0D8F900F0FCF933
:103740004B0004000D005B0D09D0494A934206D09E
:1037500000241A2B00DC7FE04F4D24184D41390026
:103760003000FFF7E3FE82464046FFF7C7FE220027
:103770002B0006000F00FFF75CFE0490059100F09F
:10378000DBF902000B000498059906920793FFF7F6
:1037900020FE22002B000490059102980399FFF768
:1037A00018FE32003B00FFF744FE049A059BFFF72A
:1037B00019FE049005915046FFF7A0FE009A019B68
:1037C000FFF737FE04000D0000F0B6F902000B0011
:1037D00006000F0020002900FFF7FBFD049A059B5F
:1037E000FFF700FE009A019B04000D000298039968
:1037F000FFF71FFE2B002200FFF7F4FD00F0EAF9AF
:103800004B005B0D04000D009946002B00D17EE7B4
:10381000174B994500D17AE7514643464B430698EA
:1038200007999A46FFF782FE390082443000FFF77D
:103830007DFE4B465044C318002B09DD174A9342C6
:103840000DDD144AEB0FDB071A43002011005EE781
:10385000EB0F0020D9075AE7C90FCD077FE70022F9
:10386000030512196B411000190050E701FCFFFF1E
:10387000FF070000FF030000EF39FAFE422EE63F8B
:103880000000E03F0000B0400000B0C00000F03F8A
:1038900002FCFFFF0000F07F000060FEFE0700005A
:1038A000F0B54646D6464F460400C0B50D0016009A
:1038B000012A56D0D70FBF187F10012F47D00323FE
:1038C000D21713409B199B109846012B35D0072324
:1038D00013409B19DB109946012B27D00F2313406F
:1038E0009B191B119A46012B15D03300203B1F2B2F
:1038F00006D90022FFF7D4FF02000B00FFF799FD65
:103900000B000200FFF795FD5346DB0703D52200AD
:103910002B00FFF78EFD0B000200FFF78AFD4B46E0
:10392000DB0703D522002B00FFF783FD0B0002000D
:10393000FFF77FFD4346DB0718D402000B00FFF7BB
:1039400078FDFF0703D522002B00FFF772FD020070
:103950000B00FFF76EFDF60703D522002B00FFF7E3
:1039600068FDE0BCBA46B146A846F0BD22002B0077
:10397000FFF75FFDE1E7C046F0B5C64600B582B08F
:1039800016001F0004000D0000900191002927DAA5
:103990007B004F4A5B0D9B181CD43422D31A19D4D8
:1039A0001800203845D4353A8446824001214942E6
:1039B00099403000884301003800904302000A43D8
:1039C00008D1342B49D06246002A3CDB3B00D3406F
:1039D000DB0742D480231B06EB181D0000940195E1
:1039E00030003900FFF7A2FD2B0D80460200002BAE
:1039F00042D038498B423FD02903090B21433BD1A8
:103A0000354988425CDB802109018A4256DA304917
:103A10008C4663445A43314BD318002B52DD304956
:103A200000208B4251DC110500222E4B8018594199
:103A30001EE001222021524284461000C91AC840CB
:103A40009A400243B2E720223900D21A91400A007C
:103A50003100D9400B001343BAE780231B06200036
:103A6000E91832003B008024FFF786FF240609197D
:103A700002B080BCB846F0BD4346002B14D02033C2
:103A8000402B14D84346002B09DA009A019B0020F2
:103A90001449FFF7B0FC4346009001915A42009848
:103AA0000199FFF7FDFEE3E700200E49E0E7320051
:103AB000009801993B00FFF7C1FDD9E7054AA6E749
:103AC0000A00A0E700200021D2E70749D0E7C0465E
:103AD00001FCFFFFFF07000000F8FFFFFF030000ED
:103AE000FE0700000000F03F0000F07F4B0070B5C3
:103AF0005B0D04000D00002B0ED00C4EB3420BD01A
:103B0000D318002B09DD0A498B420ADD094AEB0F65
:103B1000DB071A430020110070BDCB0F0020D9072E
:103B2000FAE70020110500196941F5E7FF070000D9
:103B3000FE0700000000F07F244A4B0094465B0D16
:103B40006344F0B504000D005A1C21DB5A1C35D02B
:103B5000342B1CDA3326F61A3700203F1CD40121FF
:103B6000B9400B000121B1400A0012196B41002F2E
:103B70001EDB0224BC4021000224B44020001600B9
:103B8000002544428D4126402B4030001900F0BDF5
:103B9000CB0F0020D907FAE720210120891BC8405C
:103BA0000121B14003000A0012196B41002FE0DA35
:103BB00020240225A41BE5402900DDE7CB0F044AA1
:103BC000DB071A4300201100E1E7C04601FCFFFFBC
:103BD0000000F03F264B70B50A0D04000D009A421C
:103BE0003AD00022234BFFF76FFC002834D100228B
:103BF00020002900204BFFF76FFC002802D0002096
:103C00001E4970BD20002900FFF796FFFFF78EFCCC
:103C10000600FFF773FC02000B0020002900FFF7ED
:103C2000D8FB174B174AFFF704FCFFF7A3FC4B0028
:103C300004000D005B0DE4D0134A9342E1D0F31869
:103C4000002B0CDD114A93420DDDCB0F0B4ADB0735
:103C50001A4300201100D4E700200021D1E7CB0F48
:103C60000020D907CDE70020310500196941C8E7D8
:103C7000FF0F00000000B0C00000B0400000F07F67
:103C8000422EE63FEF39FAFEFF070000FE07000074
:103C9000F0B5D6464F464646C0B516001F00002276
:103CA000BA4B04000D00FFF707FC22002B00002890
:103CB0003BD13B0D99465B055A0D90460022002BE7
:103CC0003BD020002900B24BFFF7F6FB002836D08E
:103CD000B04B984530D099456AD0AF4B99456AD0E2
:103CE000AB494346AD4A9A1800D5F2E034239B1AFB
:103CF0009C46002B11DD1800203800D503E101227D
:103D00005242824001206346404298403300834340
:103D100038009043034300D0DBE032003B0020003A
:103D20002900FFF729FE02000B0010001900E0BC7B
:103D3000BA46B146A846F0BD0022944BF5E72A0DDD
:103D400053052900580D002B29D14346934A002FD3
:103D500034DB9B182FD43421C91A2CD40800203806
:103D600056D401235B4284468340012252428A405A
:103D700030009043020038009843030013431AD1E7
:103D800022002B003429D0D06346002B00DAACE0AF
:103D90003E00DE40F6070ED522002B00C5E77D4B26
:103DA0009A469A4248D10022002F02DA0023BCE74B
:103DB00000227B4BB9E700220023B6E79A18F7D41C
:103DC00034239B1AF4D4180020382BD401225242F9
:103DD00084468240012149429940300088430100D5
:103DE0003800904302000A43E2D1342B07D06246E8
:103DF000002A00DA80E03E00D640F607D8D5684AAF
:103E0000EB0FDB071A43110000200B0002008CE7C8
:103E1000012320225B4284461800521AD0408B4076
:103E20000343A2E701222021524284461000C91A0E
:103E3000C8409A400243CDE7574B9A4200D092E0E7
:103E40004346564A002F20DB9A18B1D434239B1ADC
:103E5000AED4180020386AD4012252428240012197
:103E60004942994034008C4321003C009443220095
:103E70000A439DD1342B71D0002868DB3E00C64038
:103E80000022F60795D5474B4FE79A1893D4342371
:103E90009B1A90D41800203840D40122524282400C
:103EA00001214942994034008C4321003C00944355
:103EB00022000A4300D07EE7342B52D000283FDB9B
:103EC0003E00C6400022F60700D46FE780231B06A1
:103ED0002BE7002900DA6BE732003B0020002900C5
:103EE000FFF7ACFB02000B001FE720233A005B1A30
:103EF0009A40CE4016434DE720223900D21A914015
:103F0000DE400E4379E7012220205242C01A1300FE
:103F1000C340180063469A400243F3E60122202181
:103F200052421400C91ACC409A402243B8E70122F9
:103F3000202152421400C91ACC409A4022438EE7F5
:103F400020223900D21A9140DE400E43BAE72022E7
:103F50003900D21A9140DE400E4391E70022114B06
:103F6000E3E60022B2E7D14509D0994500D0B8E692
:103F70000D4B0022984200DD18E7094BD5E60A4BAD
:103F80000022984200DD14E70023CEE60000F03F57
:103F90000000F0BFFF070000FF0F000001FCFFFF63
:103FA0000000F07F0000F0FFFE03000007B5604650
:103FB00001880A0A0230DF2AFAD1C9B2820804D382
:103FC000028840880004104300E00068014A505015
:103FD000039007BD181800200FB403BC0CBCF0B54B
:103FE0000124E407634000E0F0B50C0DCF0F661E1E
:103FF0003605891B640503D3C943404200D3013110
:10400000640D03D0661CF60A07D0E41B00207F0075
:10401000791C89078912803C24031D0DDF0F6E1E59
:1040200036059B1B6D0503D3DB43524200D301339E
:104030006D0D03D06E1CF60A07D0ED1B00227F0029
:104040007B1C9B079B12803D2D032F1B661B58D4A6
:10405000A446202E46DA20371400BC401D00BD4087
:10406000F24033412A4380185941CB0F05D0C94350
:10407000C043002264425041514162464D0D28D157
:104080000D0D07D100281FD0241940414941013AA4
:104090000D0DF9D0640006D3013000D30131002C9E
:1040A00001D140084000013A0BD4941CE40A04D129
:1040B00012051144DB071944F0BDD907204B194301
:1040C00000E0D9070020F0BD0029DDD1002CDBD1B4
:1040D000F0BD0132C6074008CD0728434908002E2D
:1040E000E1D0D9E73C2E29DA203E40371400BC400D
:1040F00000D00124F24014431A00BB401C43D317E4
:10410000ACE7AC46202F08DA20360400B4400D009E
:10411000B540F84039412843A5E73C2F0CDA203F51
:1041200040360400B44000D00124F84004430800A5
:10413000B1400C43C117EAE710001900002494E7CE
:104140000000F07FF0B50C0D661E3605891BE60AEF
:104150006405640D02D0651CED0A04D00020012125
:104160000905803C2403A4461C0D671E3F05DB1B8C
:10417000E70A6405640D02D0651CED0A04D0002234
:1041800001231B05803C24037740644497B484B228
:1041900096B27443070C7E43150C6F4380B268439C
:1041A000361802D3012000043F183004350C0019E2
:1041B0007D41844688B29AB250430C0C62431F0C76
:1041C0007C438EB27E43921902D301263604A41991
:1041D0001604170C3618674101BC81B29AB25143DC
:1041E000040C62431B0C5C4380B25843121802D388
:1041F0000120000424181004130C401863412D18EA
:104200005E410020474106BC88B293B258430C0C73
:104210006343120C544389B251435B1802D301210A
:104220000904641819041A0C091862416D185641E2
:104230000020474118BCF902720D1143F0026A0DCB
:104240001043ED020A0D03D16D1940414941013B74
:10425000124E9B1B7600B3420ED26D0007D3013085
:10426000002671416646354301D1400840001B05D8
:10427000C918E4072144F0BD0BDA013306D101303F
:1042800004D101314F0D01D04908F2E7E1070020C8
:10429000F0BD013631050020EBE70000FF03000010
:1042A000F0B51C0D671E3F05DB1BE70A6405640DB6
:1042B00002D0661CF60A04D0002201231B05803CB4
:1042C0002403D0252D060026F6432E661E096E66B1
:1042D000CE0FF619B44649004F0D02D07E1CF60AE7
:1042E00003D000200021403F3F033E1BB600B444F2
:1042F000013F7F05C91B49082E6F013676089C02D5
:10430000950D25437543ED137543AD1301356D10C0
:10431000F603761B0CB4CC02450D2C43A2B2B3B20B
:104320005A43270C7B43350C6F43A4B26C431B19D3
:1043300002D3012424043F191C041D0CA4187D4140
:1043400024196D41009A91B2ACB26143170C7C43C1
:104350002B0C5F4392B25A43A41802D301221204D9
:10436000BF182204230C52187B41019C6C431B197B
:10437000520ED9010A434401A01A81B2B2B251438C
:1043800003145A43360C734387B27743D617D219B6
:1043900000277E4136049B191704160C7F185E41D6
:1043A0007316ED18F301002680337541A90F06D16D
:1043B0006400690AE8055B0A184309D22FE0042269
:1043C000944480337541A90AA8059B0A184326D353
:1043D000404149412404009A019B0D005543641B50
:1043E0004343E41A95B286B27543170C7E43030C1F
:1043F0005F4392B25A43B61802D301221204BF1887
:104400003204330C52197B4152429C41002C02D49D
:104410000022013051414008CA071043490802B048
:104420006246D7079210084BD218084B9A4203D223
:1044300012058918C919F0BD0020002A01DC3900D5
:10444000F0BD01331905F5E7FD030000FE0700008C
:1044500000210A00002104E000210A00C11704E045
:104460000022002306E0C0460022CB1758405940E6
:10447000C01A994130B5184CA21A002903D1010085
:1044800010D00020203A4C1512D104D2013A001865
:1044900049414C0DFAD3114CA24204D2120589189D
:1044A000DB07C91830BDD243520D00200021F5E7CB
:1044B00003D4013A00184941FBD50B324405C00A28
:1044C0004D052843C90A640003D0002460416141BE
:1044D000E1E7E0D34408F8E732040000FE070000FB
:1044E0000A0DCC0F531E1B05C91A520503D3C9432D
:1044F000404200D30131520D03D0531CDB0A07D0D8
:10450000121B00206400611C89078912803A120383
:10451000014BD21A70470000FF030000023225D47D
:104520000C2A1CDA1125AD1A0B002B410832073575
:104530000600EE40904091403143F0CC63431A15A1
:1045400000235A41554356435743BF02F4127605A0
:1045500076196741ED177F19801BB94170470C220E
:104560000020C917490001310905DBE70902030EE4
:10457000194300025342203208D40C0019419440E0
:10458000D840204300225041514170470800C917CC
:10459000203B2032F1D5002000210022704700008E
:1045A000F0B5FFF79DFF54A4FFF7B8FF002904DA28
:1045B000204C214D00196941013A04B4012752A64B
:1045C000002201239B0730CEB446001BA9410BD427
:1045D0007E4220361D003D411C00B4401600FE40C6
:1045E000344362416B4101E000196941664601377D
:1045F000212FE8D185B29EB2754307147E43190C72
:104600004F4384B24C43F117361900246141090429
:104610007F183404310C64197941A40F88002043B9
:1046200089178018594104BC52423E32FFF71DFFE2
:10463000F0BD00006BDE73F4FD855C2CF0B54F001F
:1046400050D27F154ED001374FD0FFF749FF04B449
:104650004902C20D1143400201272BA6B446002295
:1046600000237E4220360D003D410C00B440060080
:10467000FE40344344414D41AE0F05D12000290096
:10468000664630CE121BAB410824A4440137212FCB
:10469000E7D18900891012184B4180BC17A413CCB4
:1046A0000137784379437C434F05C912CD17C019B0
:1046B0006941A702A415CD17C9196C41DD178018EF
:1046C00059416C413E22CD17AC4208D000090E077B
:1046D00030430909260731432411043AF3E7FFF771
:1046E000C4FEF0BD02490020F0BD02490020F0BD2B
:1046F0000000F0FF0000F07FAAB800006BDE13009E
:10470000A3EF0F0021170B00F34B98BFEC23F31915
:10471000D6104DCDE3FB470E7AB9BC8ADBC18907C1
:10472000CC542C021846E103053083E7B029F80188
:104730001E1FE0874505FE00249E41ACA9807F0036
:104740008117624515E03F00E610ABA902F81F0093
:104750008858455500FE0F00C4AAA90A80FF07002B
:1047600056455501E0FF0300ABA92A00F8FF010000
:1047700045550500FEFF0000AAAA0080FF7F00004B
:10478000551500E0FF3F0000AB0200F8FF1F0000DE
:10479000550000FEFF0F00000B0080FFFF07000028
:1047A0000100E0FFFF0300000000F8FFFF01000030
:1047B0000000FEFFFF0000000080FFFF7F00000000
:1047C00000E0FFFF3F00000000F8FFFF1F000000B7
:1047D00000FEFFFF0F00000080FFFFFF070000004A
:1047E000E0FFFFFF03000000F8FFFFFF01000000F3
:1047F000FEFFFFFF0000000000000080000000003E
:10480000000000400000000051434343C9188C469B
:10481000110C83B24B4310B4040C614392B280B2CA
:10482000504362431C041B0C001910BC5941130473
:10483000120CC0185141614470470000132310B599
:1048400012481C78FEF760FB0100012C0AD003DD42
:1048500080220F4800F05AF80E48FEF74DFB0E4B31
:10486000186010BD0A4C5422200000F04FF80B4B8A
:104870006365A365E36523666366A366E3662367F2
:104880006367A367E3672362E361E5E753460000DC
:10489000181900204C330000D8200020A148001037
:1048A00007B5604601880A0A0230DF2AFAD1C9B288
:1048B000820804D3028840880004104300E00068A6
:1048C000014A5050039007BD1819002010B504008C
:1048D00001F0FAFD002804D0034B04199C4200D8D3
:1048E00010BD0248FEF7C2FA00000420506F00100D
:1048F00001480421014B1847400E0020192F0010D9
:10490000014B1B6818470000400E0020014B5B68FC
:1049100018470000400E0020F0B546464F46D646E8
:10492000C0B5437D80460E001700002B4BD0002AF7
:1049300032DD274B01259A464B1E00240020994664
:1049400007E0335D0A2B2CD02B0001340135BB422C
:1049500013DA002CF5D133780A2BF5D143461B7DB1
:10496000002BF1D14346504602211B68984728008E
:104970002B0001340135BB42EBDB874204DD4346AB
:10498000391A1B6830189847F619013E33780D3BE9
:104990005A42534142461375E0BCBA46B146A84656
:1049A000F0BD4B461B5D0D2BCED0A042DADA43465C
:1049B000211A1B68301898474346504602211B684D
:1049C00098472800D4E70368110030009847E3E7D0
:1049D000C46F0010F0B5CE46474680B583B06B4635
:1049E0000600DD1D2870FDF7A3FC00231A4A1218EB
:1049F0004B41802109068B4202D30122174B5242C0
:104A000017490800884602F0F3F9164B81461C68E6
:104A1000002C14D0144F02E02469002C0FD023681E
:104A2000002BF9D03B68002B01D0A342F4D1200029
:104A300001222900FFF770FF2469002CEFD14B46BB
:104A4000002B05D1300003B0C0BCB946B046F0BD64
:104A5000404602F085F9F5E740420F00FFFFFF7F77
:104A6000D0160020B01C0020B81C0020F0B5DE4697
:104A700057464E464546E0B585B0070002F008F8B7
:104A80000600FDF755FC00232B4A12184B418021EC
:104A900009068B4202D30122284B524228490800C2
:104AA0008B4602F0A5F9274B01901C689A46002C12
:104AB0003BD0254B984602ABDD1D0A23994602E008
:104AC0002469002C17D02368002BF9D043461B68BB
:104AD000002B01D0A342F3D1200032003900FFF7B0
:104AE0001BFF4B462000012229002B70FFF714FF0B
:104AF0002469002CE7D1019B002B18D153461C6878
:104B0000002C06D06368002B0BD098472469002C3A
:104B1000F8D1300005B0F0BCBB46B246A946A0466D
:104B2000F0BD2469002CEDD1F3E70028F1D0584600
:104B300002F016F9E2E7C04640420F00FFFFFF7F98
:104B4000D0160020B01C0020B81C00200A4A1368B0
:104B5000002B05D10CE01A001B691032002B07D086
:104B60009842F8D1002902D10369136001617047AE
:104B70000029FCD01060FAE7B01C0020F0B5002935
:104B800015DD0E4B0D271A680D4B0E4CD3185D42E8
:104B90006B41451820215B001E5F0478A64207D0B8
:104BA00093691942FCD101301460A842F5D1F0BDDF
:104BB00093691942FCD11760F2E7C046002100203A
:104BC0000080FCBFF820002030B504000D1E30DD51
:104BD00000201021204B013C1A689369194217D11B
:104BE000013093691942FCD1136823548542F4D1F2
:104BF0001A4B1B68002B09D0502338219363536B49
:104C00003432194080235B011343196028000FE000
:104C1000124B1B68002B09D0502338219363536B30
:104C20003432194080235B011A431160002810D0F0
:104C300030BD0A4B1B68002B0BD050223821064B8D
:104C40001B689A635A6B343311408022520113431C
:104C5000196003204042EBE700210020641C002083
:104C6000064B10B51B68002B06D00021044A1268C1
:104C70009163044A1068984710BDC046641C002028
:104C800000210020681C00201D4BF0B51A68C646A4
:104C900098461C4B0E00D31859424B411A4F1433FF
:104CA0001C00050000B53B68002807D0002B11D080
:104CB000164B3D601E6080BCB846F0BD002BF7D09F
:104CC000906300212000FCF77DFC20001049FCF7D8
:104CD000B7FDEDE720000E49FCF78EFC0121200016
:104CE000FCF770FC4346502238211B689A635A6BCC
:104CF000343311408022520113431960D8E7C04673
:104D0000002100200080FCBF641C0020681C0020E3
:104D1000614C001070B50C4E0D001C003060002A74
:104D200003DB02211000FCF773FB002C03DB0221E4
:104D30002000FCF76DFB29003068FDF7BFFD012165
:104D40000248FFF703FF70BD00210020500E002035
:104D500010B501210520FCF735FC10BD10B500226F
:104D60000021024800F066F910BDC046E01C00209A
:104D700080219022034B8902995080225201DA64EB
:104D80007047C046002011508022024B5202DA6464
:104D90007047C04600201150F0B5C64600B5060069
:104DA00000F022F90C231B4DFF22AB6705201A49A6
:104DB000FCF74CFC40239846184C40220021200070
:104DC000FFF79EFD43460127238321210023144A38
:104DD0006770A260136063545F316184414621872C
:104DE000053963540F4A10496360E260A1620B60A9
:104DF0006362E26201F0CCFF80239B052F64EB64C9
:104E000090230A4A3000EA50FFF7BEFF80BCB84644
:104E1000F0BDC0460000115029030020C01C002036
:104E200084001050000110508000105010D001007C
:104E30000B785B0602D14B78052B00D070478A783F
:104E4000014B1A60FAE7C04600001150F0B5C646A3
:104E500000B5CC7888780A794B797F21A407014086
:104E60001B02C50913434F00A20F1400324E7A19DA
:104E70005201B218907001206840507000205B050C
:104E80005B0DD0701383D4768046CA00012D33D0D9
:104E90002A488446880162448446B444604682605D
:104EA00040461060002933D0254AC900904662462A
:104EB000414451603F223F339343022C00D15B00B9
:104EC00020487A1901685201B218D1601E4ACB18E5
:104ED000036051405A40802388465B019A4228D89B
:104EE0004346A4061C4380237F197F01F61972688C
:104EF0001B062343136011E0144884468801624472
:104F00008446B4446046826240461060002909D15C
:104F100000236D0175196B600D4BEB60012080BCA7
:104F2000B846F0BD084AC900904662464144516205
:104F3000C0E7FDF7B3FFD3E7C01C0020840010508A
:104F400004001050C42000200000105080001050B9
:104F50000001105010B501F01BFF10BD10B57F20EF
:104F60000C0020404000E409110000191A00034B16
:104F70004001C01800F05EF8012010BDC01C0020E8
:104F80007F23180010B508400B420BD0C9098022BE
:104F90004000074B401840010021C018120101F0E9
:104FA00037FF10BD0223034AC9095B1A9366EEE777
:104FB000C01C0020002011507F22130010B50B40B0
:104FC0000A4200D110BDC9095B005B1804485B01AF
:104FD000C018002300220349C37001F019FFF1E754
:104FE000C01C0020FFF7FFFF80220D4B520410B5BC
:104FF0001A600C4B0C491A6010008B689843FBD167
:105000000A4C9C2200212000FFF77AFC802200211C
:1050100052010748FFF774FC0923636710BDC046BF
:1050200000E0004000F0004000C0004000001150CF
:1050300000001050002310B5C382013382828376B2
:105040000161040001F09CFE002804D0802190231F
:10505000074A8902D150200001F0AAFE002802D0A0
:105060000123237710BD200001F0CAFEFAE7C046F5
:1050700000201150024B5878431E9841C0B270472F
:10508000381B0020024B18784007C00F7047C046FD
:10509000381B0020094A10B513785B07DC0F002B82
:1050A00005DA182312781340182B02D000242000B0
:1050B00010BD034B1878FFF75BFEF8E7381B0020A4
:1050C0008C0E0020034B1878FF38431E9841C0B265
:1050D0007047C0468C0E0020F0B5C64600B52A4E7B
:1050E00005003378FF2B01D001203FE0532200213F
:1050F0002648FFF705FC264C2000FCF7F7FC254B63
:105100001C60254C2000143CFCF70CFD200001F035
:1051100021F9224B224F1C60224B9846002B1DD0B8
:10512000380000E000BF204B18603B784246002466
:10513000002A15D01D4A904642469C4219D39047FA
:1051400001343B78E4B2A342F6D228003570FFF771
:1051500023FE2800FFF7FCFD012007E03B78E5E790
:1051600000F072FE3B78002BEFD0002080BCB846E8
:10517000F0BD0D4A630012681B19DB00D318002B29
:10518000F3D01A68DBE7C0468C0E0020381B0020E5
:10519000F01A00208C1B0020840E0020901B0020A1
:1051A00004210020000000006C1A0020495E00105D
:1051B000F0B5DE4657464E464546E0B58FB000F0A6
:1051C000B3FF002800D117E1D04BD14E9B46D14B05
:1051D0000BAC9946D04B9A4635686A69EFF310815B
:1051E00072B61368002BFCD0BFF35F8FA961280053
:1051F000210001F01DF86A69AB69BFF35F8F0021E0
:10520000116083F31088002800D1F5E06378082B43
:10521000E2D85A469B00D3589F466368002BDBD0E8
:10522000A0689847D8E77F222179BA4D0A405300F9
:10523000C809EB181B181D0001273035E878B84362
:10524000E870E8780337B843E870002A00D1F0E04E
:10525000B24ADB7C002A06D0B14A1278934200D2CF
:1052600048E19B1ADBB2002B00D0C5E0AD4DA3682E
:1052700062792078A847AFE70122A64D01202B785C
:10528000042113432B703323EA5C8243EA54EA5C23
:105290008A43EA540133EA5C8243EA54EA5C002020
:1052A0008A43EA542378019300F0DCFC60232279DE
:1052B0001340602B0DD0402B00D1C0E0D206D20E9F
:1052C000012A00D13EE1022A00D1D5E0002A00D116
:1052D000C4E020780021FFF753FE80212078FFF7FB
:1052E0004FFE79E74B461B78DB0700D474E78E4B03
:1052F000002B00D170E7FBF743F86DE7854D2B7865
:10530000DB0700D468E7894B002B00D164E72878DD
:105310000007C00FFBF72CF85EE72378804F7F4A29
:10532000984600253B78002A4BD05246B2463E00B4
:1053300017003A00AB4266D84046904701353378B3
:10534000EDB2AB42F5D25646BA46724D5322002119
:105350002800FFF7D5FA1022FF21E81CFFF7D0FA4A
:1053600028002022FF211330FFF7CAFA2FE023780C
:105370006B4F6A4A984600253B78002A30D0524647
:10538000B2463E0017003A009D4247D34046904740
:1053900001353378EDB2AB42F5D25646BA465D4D93
:1053A000532200212800FFF7ABFA1022FF21E81C4E
:1053B000FFF7A6FA28002022FF211330FFF7A0FAFA
:1053C00015E0404600F04AFD3B78002BBDD000F0D0
:1053D0003FFC574B002B00D1FEE6FAF7C3FFFBE67C
:1053E000404600F03BFD3B78002BD8D0494D00F003
:1053F0002FFC2379AB70EFE60FB0F0BCBB46B24692
:10540000A946A046F0BD4B4A6B0012685B19DB0051
:10541000D318002B00D1AEE15A688DE7454A6B00E6
:1054200012685B19DB00D318002B00D1A6E15A6883
:10543000ACE7A3686279207800F028FCCCE63E480F
:10544000002800D145E700F00DFC012101980CAACD
:1054500000E000BF002800D0BEE63AE7202B00D1D4
:10546000A5E0002B00D034E76379092B00D930E7A1
:10547000324A9B00D3589F467022217A0A4200D0BC
:1054800027E70F320A405200CF09A818C019C07C84
:10549000029284462148002808D02148007884459B
:1054A00000D2A6E06246101AC2B2944660460028B6
:1054B00000D099E0002B00D059E1214B984660794B
:1054C0000222030003909343012B00D159E10028ED
:1054D00000D0FEE6029B0AAAEB18DB193033DB781A
:1054E00002329B07DB0F1380019802230CA900F006
:1054F00059FB71E60F4A58001268C318DB00D31835
:10550000002B00D178E71D69B1E6C046307000106D
:10551000901B0020381B00205D5E00100000000082
:1055200004210020BD6000108103001071030010F1
:10553000650300106C1A0020000000005470001079
:10554000BC700010237A0F2B00D9C2E6B84AEB18C2
:10555000DB78002A05D0B74A1278934265D39B1AAC
:10556000DBB2002B00D0B4E6B348B44D00F07AFBB8
:105570000121EB6801980CAA9847002800D02BE67F
:105580006022150023791D401A4200D0A1E66379FC
:105590000A3B012B00D99CE600F064FB63790A2BDF
:1055A00000D12EE101980CA900F0E6FA14E6237A66
:1055B0000F2B00D98DE69E4AEB18DB78002A06D027
:1055C0009C4A1278934200D2FCE09B1ADBB2002B7B
:1055D00000D07EE69848994D00F044FB0121EB682D
:1055E00001980CAA984735E79846002B00D166E74A
:1055F0006FE6624652009046C44462469048D2002C
:1056000000689446020062449046002B00D156E7A1
:10561000002A00D15DE6D06800F024FB434601215A
:10562000DB6801980CAA984714E7854A5900156869
:10563000CB18DB00ED18002D00D14AE6E86895E7AD
:10564000E388012B00D044E608222B78019893438D
:105650000CA92B7000F090FABEE5022029780AAB65
:105660009A1C8B068908DB0F01400B433BE7A379AB
:1056700004931A006B789A4207D06B78002B00D005
:1056800045E1049B002B00D0E6E0049B01980CA9A7
:105690006B7000F071FA9FE56B780AAA0232137002
:1056A000019801230CA900F07DFA95E5E3881A0A18
:1056B000D8B20F2A00D90CE662499300CB589F4616
:1056C0000CA800F0D5FAA1790198FFF747FB022258
:1056D0002B7813432B707FE5E388012B00D0F8E58E
:1056E00008222B78019813430CA92B7000F044FA80
:1056F00072E5554B002B00D1EBE500E000BF021E28
:1057000000D1E6E5D37891781B020B4301980CA9F0
:1057100000F048FA9EE64D4B002B00D1D9E500E0A1
:1057200000BF021E00D1D4E5137801980CA900F047
:1057300039FA8FE62189FAF775FF021EF4D1C8E520
:10574000022A00D161E1424B002B00D1C1E500E00B
:1057500000BF0200002A00D1BBE5D3E7FAF756FFED
:10576000122302000CA9019800F01CFA72E6334BD8
:105770003148984650E75646BA4628E65646BA4655
:1057800034E6E388002B08D1012826D0029BEA18D2
:10579000D7193037FB789B073CD54746002F00D1FF
:1057A0001AE5F86800F05EFAFB6801210CAA01987E
:1057B0009847002000F056FA3423EB5CDB0700D555
:1057C0000AE5EFE61E4A59001568CB18DB00ED1814
:1057D000002D00D17DE5E868FEE6029BEA18D719A6
:1057E0003037FB789B07D8D51A4B1878FFF7E4FBC6
:1057F0000222FB789343FB70FB78039A9343FB7080
:10580000CBE70AAB9A1C019801230CA9157000F094
:10581000C9F9E1E40F4B1878FFF7B2FB0222FB78DD
:1058200013430122FB70FB781343FB70B5E7C046BE
:105830000000000004210020F95E0010BC70001080
:105840006C1A00207C7000100000000000000000B6
:10585000000000008C0E0020581EC0B2FAF7DEFED9
:10586000002800D135E54378022B00D031E5012135
:10587000C2790700931152110B400A4012015B01DB
:1058800013432A782F318A4313432B70C3788278CD
:105890001B021343C3180693644B09370593644BEB
:1058A00002960993019B98465B46AB460393069B81
:1058B000BB4200D8ADE001227B7807920B2B03D1CD
:1058C000FB7807933B78FF187B78042B63D1002586
:1058D000069BDB1B9BB20193059B1A78554B0893E3
:1058E000099BAB424CD0089BAA4200D984E0019EA0
:1058F0003900320040469847082801D9864259D2DB
:10590000059B01351A78EDB2AA42ECD243E0019B27
:1059100018009846FFF71EFB0021AB78434F444A1E
:10592000039302913B78002A21D0434A01920299C5
:10593000019A8B4233D840469047029B0133DBB239
:105940001A0002933B789342F1D2434601935322CB
:1059500000212800FEF7D4FF1022FF213748FEF770
:10596000CFFF2022FF213648FEF7CAFF05E001984D
:1059700000F074FA3B78002BE9D0039BAB7080E613
:1059800039004046019A00F073FA0600082802D94F
:10599000019B83420FD2039B029E9B4699E48C4657
:1059A000284B4A001B686244D2009B18002B20D071
:1059B0005A68C0E706000022584609E0BB78D318B1
:1059C000DBB2C318D978FF29E5D10132DD70D2B23C
:1059D000079B9A42F2D12B003900834632001848C7
:1059E00000F00CFC059BBF191B78AB4200D35EE7AF
:1059F000D1E743460193C0E71822124B6A431B6864
:105A00009B18002BC7D09B6871E7FAF707FE0200CE
:105A1000A0E643460193039B5D469B460A4B029ECC
:105A2000002B00D131E6FAF795FC2EE60421002088
:105A300000000000715E00105D5E00103B1B002046
:105A40004B1B00206C1A002055030010F8B5574678
:105A50004E46DE4645460C00E0B516001F00002A03
:105A60003CD01F4B00259A46702399461D4B9B4600
:105A700017E05B462000997800F082FB00281FD0D9
:105A800021004046FFF7E2F9002819D0A378DA098F
:105A9000012A1CD00A9A013513702378E418B54204
:105AA0001CDA6378052B0BD1E3789B079B0FBB4275
:105AB00006D153464A461B789846A3781A42D8D056
:105AC0000020F0BCBB46B246A946A046F8BD0B9AE2
:105AD000013513702378E418B542E2DB0120F0E7CA
