:020000041000EA
:1000000000B5324B212058609868022188439860DF
:10001000D860186158612E4B002199600221596106
:100020000121F02299502B49196001219960352056
:1000300000F044F80222904214D00621196600F024
:1000400034F8196E01211966002018661A6600F04E
:100050002CF8196E196E196E052000F02FF8012189
:100060000842F9D1002199601B49196000215960AB
:100070001A491B48016001219960EB211966A021F2
:10008000196600F012F800219960164914480160C1
:100090000121996001BC002800D000471248134993
:1000A000086003C880F30888084703B5996A0420EC
:1000B0000142FBD001200142F8D103BD02B5186610
:1000C0001866FFF7F2FF186E186E02BD00000240BE
:1000D000000000180000070000035F00212200005C
:1000E000F4000018222000A00001001008ED00E03C
:1000F00000000000000000000000000074B24E7A12
:1001000000200420F7010010C3010010C5010010F9
:10011000C1010010C1010010C1010010C101001097
:10012000C1010010C1010010C1010010C701001081
:10013000C1010010C1010010C9010010CB01001065
:10014000CD010010CD010010CD010010CD01001037
:10015000CD010010CD010010CD010010CD01001027
:10016000CD010010CD010010CD010010CD01001017
:10017000CD010010CD010010CD010010CD01001007
:10018000CD010010CD010010CD010010CD010010F7
:10019000CD010010CD010010CD010010CD010010E7
:1001A000CD010010CD010010CD010010CD010010D7
:1001B000CD010010CD010010CD010010CD010010C7
:1001C00000BE00BE00BE00BE00BE00BEEFF3058054
:1001D000103800BEF2EB88715C46001080460010BB
:1001E0003402001090A31AE700201F49086006C8D7
:1001F00081F3088810471D48006800282FD10DA4FE
:100200000ECC002902D000F012F8F9E71849194A7B
:10021000002000E001C19142FCD1174988471749ED
:1002200088471749884700BEFDE701C901C29A42C5
:10023000FBD3704780460010C0000020DC0D00207A
:100240009C53001000000420000004209C53001068
:10025000001004200010042000000000704709482E
:1002600001F0D2FE0047000008ED00E0000000D0E1
:10027000E00D0020C4170020811E00104104001072
:10028000751F00105756000006005250ABB3605364
:10029000B844001006005250861C0302C8440010E7
:1002A000060052505422A29DD44400100500525022
:1002B000DE65F4689C530010F8B5C0460448054B51
:1002C00010B5834203D0044B002B00D0984710BDDB
:1002D000DC0D0020DC0D002000000000064807496E
:1002E000091A8B10C90FC91810B5491003D0044B57
:1002F000002B00D0984710BDDC0D0020DC0D002045
:100300000000000010B5074C2378002B09D1FFF73F
:10031000D5FF054B002B02D0044800E000BF0123AD
:10032000237010BD0811002000000000A043001041
:10033000054B10B5002B03D00449054800E000BF71
:10034000FFF7CCFF10BDC046000000000C110020DC
:10035000A0430010FA22024B92001A607047C04678
:10036000D80C0020FA22014B1A607047D80C0020EC
:10037000014B024A1A607047D80C0020C4090000E3
:10038000FA22024B92001A607047C046D80C002037
:1003900030B583B001F07EF800290BD0FA2200239B
:1003A000920001F0A1FE244A1368C01A09280AD855
:1003B00003B030BDFA21890001F058FE1E4A1368CF
:1003C000C01A0928F4D90A33136003F057FF050057
:1003D00002F012FD041E0DD0002D22D1002003F0EA
:1003E00089FB0028E4D0154C2378002B1CD1002376
:1003F0002370DDE7002003F07DFB0028D8D0002D1E
:10040000F1D06B466A469C8004230094012113704E
:1004100000206B46002203F0D1FB0122074B1A702B
:10042000C6E702F0F1FCC3E700230022012100200F
:1004300003F0C4FBDBE7C04698170020BD1700207F
:1004400070B503F0F9FE03F0BBFD154C154D164ECB
:1004500014E0FA220023920001F046FE2B68226885
:10046000C01A904208D39B1830782B6003F0FCFE32
:100470000122337853403370FFF78AFF01200021B7
:10048000404202F04FFD2368002BF5D001F002F846
:100490000029DED1FA21890001F0E8FDDEE7C0463F
:1004A000D80C002094170020BF17002070B50C78DE
:1004B00088B00134E4B2042C01D908B070BD03F057
:1004C000DDFE0600002003F015FB051EF5D0032C11
:1004D00027D0042C17D0012C0CD0022CEDD10023F6
:1004E000029301930533002202210093002003F0C0
:1004F000ABFBE2E7002E48D12F4C2378002B53D1E1
:1005000000232370D9E70B22002105A802F0B2F8DE
:10051000002E27D1294C2378002B10D100252570DF
:10052000CBE705AA002E12D1254C16802378002B8C
:10053000E6D002230321002003F0F8FAE0E70B23C2
:100540000421002005AA03F0F1FA0025E7E7EA23D9
:10055000032113800020E83B03F0E8FA0122184B46
:100560001A70AAE701226B469A761B236B441A7015
:10057000002204215A709A70DA7000200B2305AA19
:1005800003F0D4FA0D4C257097E700236A460593D3
:10059000138304331375012105AB0022002003F0FF
:1005A0000DFB054B1C7088E7002300220121002071
:1005B00003F004FBA4E7C046BD170020BC170020D1
:1005C000BB1700200020704710B502A80088022A3F
:1005D00000D010BD0129FCD10028FAD01B781A42A6
:1005E00006D00022064B01201A6003F03DFEF0E722
:1005F000002003F039FEFA22014B92001A60E8E76E
:10060000D80C0020004870472C4400100048704768
:10061000E843001000487047C443001010B500289C
:1006200025D003282ED8184B8000C458200003F092
:100630002DFEC0B2011C1F2814D8C9B200281FD03B
:100640000023124AE05C01331080D8B202328142AA
:10065000F8D8C0230131C9B249009B000B430C48B4
:10066000038010BD1F21C9B20028E9D108E0064B64
:1006700002221968054802F003F8C1239B00EEE747
:10068000044BECE70020ECE7DC0C00203E110020DE
:100690003C11002002030000094A10B59446402492
:1006A000830063441A68C000624080341440802292
:1006B000520113431C60034B9C466044416010BDD3
:1006C00004C00140004001400123D02283401206B3
:1006D00093629361094A40219446830063441A68F7
:1006E000C0004A40803111408022520113431960FA
:1006F000034B9C46052360444360704704C001409F
:1007000000400140024B18688007C00F7047C04688
:1007100000C0064070B5EFF3108C72B60D4D2B681B
:10072000002BFCD0BFF35F8F0724CB08C618C05C3A
:1007300001230C40A3401C000440034207D118438E
:100740003070BFF35F8F2C608CF3108870BD100089
:1007500001F014FC2C0100D0F8B54746CE4688467F
:1007600080B5EFF3108C72B6214D2C68002CFCD0B4
:10077000BFF35F8F9A422CD8D4080727055D06196E
:1007800001241740BC402C421FD007210127894675
:1007900009E0D408055D06194C4639001440A14013
:1007A0000C00294211D001329342F2D20120404282
:1007B000BFF35F8F00220E4B1A608CF31088002865
:1007C0000FDBC0BCB946B046F8BD254310003570FC
:1007D000EEE7BFF35F8F00232B608CF310880120BE
:1007E00040424346002BECD0089801F0C7FBC046BE
:1007F0002C0100D00021044B044ABFF35F8F02C3D9
:100800009342FAD17047C046000100D0800100D069
:10081000044A1078431CDBB2172B00D91023137045
:100820007047C046EC0C002010B5064B064C82B059
:100830000100009318221F232000FFF78DFF02B054
:1008400010BDC04640440010241300200123834003
:10085000002904D0034A1360034A13607047034A17
:100860001360FBE780E200E000E100E080E100E0EF
:10087000024B10309B688000C058704700ED00E0CC
:1008800070B50D00EFF3108672B60F4A1368002B97
:10089000FCD0BFF35F8F0D4B10309B6884001B5959
:1008A0000B4A934203D09D4201D001F07FFB074BDE
:1008B0009B681D51BFF35F8FBFF35F8F0022024B18
:1008C0001A6086F3108870BD240100D000ED00E0AE
:1008D000CD010010F0B557464E46DE464546E0B520
:1008E00085B0060000911700EFF3108B72B66A4ACC
:1008F0001368002BFCD0BFF35F8F0025674B5D575B
:100900009A46002D00DA8BE06B00654C01935B1971
:100910009B009846A146C1444B4652469B791036EF
:100920001370604BB6009B6899590B1B2F2B33D962
:100930005D4B994200D0ACE0019B42469C465B4B2C
:100940006544AD0063535A4B0232A218043B9B1A14
:100950001B05584A5B0D651913436B80564B0121EB
:10096000AB80FF23AB71009BEF71AB604B460B4339
:1009700019004C4B9B689951BFF35F8FBFF35F8F9A
:100980000022454B1A608BF3108805B0F0BCBB46C3
:10099000B246A946A046F0BD01200A008243D379A1
:1009A0008C46BB4231D84546130044491B1B5B4172
:1009B0005943090D3D4B63533D4B02356519043BCB
:1009C0005B1B1B053B4D5B0D2B43AA464D466B80C5
:1009D0000425AC465546E044131F44441B1B1B052D
:1009E0005B0D1D434B46997100999D809960494666
:1009F000DF71334B01431360BBE75800C018800020
:100A00002018C179B94211D902000623D356002B10
:100A1000F3DA0293131D9A462A4B6146039319E0B9
:100A200001F0C4FA002553465D576DE790880293A4
:100A30004005131D9A46031561469C464046D44422
:100A4000634604302018181AE0230005400D1B02ED
:100A50001843039004235B429C46E14450464B46B6
:100A60001B1A1B055B0D9C46124B957198466346FD
:100A7000404603439380019B5A199200039BA4189C
:100A8000A380029B0E4AA371009B2260E771A360C2
:100A90006FE701F08BFA4FE7240100D0BE1700206A
:100AA000F00C002000ED00E0CD01001000A1FFFFE0
:100AB000200D002000E0FFFF01BDFFFFAAAA0000FB
:100AC0000148804701BD0000F0B5DE4657464E465E
:100AD0004546E0B50C0083B0EFF3108872B65D4A6E
:100AE0001368002BFCD0BFF35F8F5B4B5B499A68A8
:100AF000030010339F00D5598D4239D0A5424AD00A
:100B0000574EAA1B2F2A33D8012292468240914683
:100B10004846544A1268104001904846524A1060B4
:100B2000BFF35F8FEFF305829346002A35D09342DF
:100B300001D001F03BFA2A0053469A439068844260
:100B400008D175E04B005B189B00F3189868A04231
:100B500034D01A00062151560029F3DA844253D0CA
:100B6000019B002B26D04A46404B1A603D4B1A6031
:100B7000394B9B68DD51BFF35F8FBFF35F8F00225E
:100B8000344B1A6088F3108803B0F0BCBB46B24601
:100B9000A946A046F0BD0D00EAE72A0053469A4355
:100BA00090688442D6D1062010561300002809DA36
:100BB0000D0031E04A462C4B1A60D9E70620185642
:100BC000002822DB42001118890074188A46A168A7
:100BD0009960E179D971062161569971002925DB67
:100BE000A488F11A6405241554440919E024090560
:100BF000490D24022143998013181D4A9B00117846
:100C0000F31899711070ABE713005946002914D1FD
:100C1000FF3191711749918015490A789A71164AE6
:100C20009B1B5B415A43120D0A7099E71349E2E797
:100C30000620105613000028C4DA114A1149D21AAE
:100C4000083A5002400D014399800F4952080A4367
:100C5000DA8085E7240100D000ED00E0CD0100102E
:100C6000F00C002000E100E080E100E080E200E024
:100C7000BE17002001BDFFFFAAAA000001BD0000B1
:100C80002A0D002000F0FFFF00F8FFFF70B5EFF322
:100C9000058101240443EFF3108C72B6214A1368D6
:100CA000002BFCD0BFF35F8F1F4B05001F4AED1ACE
:100CB0006D416A43120D1E4D8900AE6852B27658DE
:100CC000A6421CD00621595691421CD012215956D9
:100CD000914222D01E215956914220D02A215956A4
:100CE0000324914210D0134B19781A708171BFF30D
:100CF0005F8F00220B4B1A608CF3108870BDAB68BD
:100D00000D4C5C50EFE700246100091989005B1865
:100D1000FF21997109499980E5E70124F4E702244C
:100D2000F2E7C046240100D0F00C0020AAAA00007F
:100D300000ED00E0BE170020CD01001001BDFFFF57
:100D4000054B064A1360064A136053609360D360F4
:100D500013615361936170478080808000E400E0FC
:100D600004E400E0024B9C46614489000160704746
:100D70004000003410B50400FFF74AFD01002000D8
:100D8000FFF7F0FFFF232371BFF35F8F10BDC04655
:100D900010B50400FFF73CFD01002000FFF7E2FF63
:100DA000FF23A380BFF35F8F10BDC04610B50400C2
:100DB0000120FFF739FD034BC3189B002360BFF3ED
:100DC0005F8F10BD4000003483680B4810B5844627
:100DD000614462441201090159189B185C684A6811
:100DE0000120944201D802D00020C0B210BD1A6880
:100DF0000B689A42F9D8F7E7FFFFFF0F0A4B196813
:100E0000EFF3108072B60A68002AFCD0BFF35F8F40
:100E10001B68BFF35F8F00221A6080F3108840BF09
:100E2000002000217047C04690170020F8B55746B3
:100E300045464E46DE46E0B598460CAB1C780DABF9
:100E40001B78070091469A460568002C5ED1AC7B62
:100E5000002C3BD0660029683619033E89194B786F
:100E6000AB73002B00D1EB7300238B704B700B70B6
:100E70002D4BE218BB6812019B184A461A60424685
:100E80005A600A9A9A600B9ADA6000238B704B7052
:100E90000B706B7B9B46002B2BD022005946A86819
:100EA0006B6898472A68002816D05B4658465B0056
:100EB0005B449619033BB070D118D35C002B00D073
:100EC00073705B460C706B735C4513D0F0BCBB4613
:100ED000B246A946A046F8BD5B465B005B44033BB7
:100EE000D3189C709119925D002A00D05A705B460D
:100EF0000B706C734A464346387D00F01BFB051EA1
:100F00000AD10E9B002BE1D01D70DFE76600296837
:100F10003619033E8919ABE75346002BF1D1210066
:100F2000386800F031FDECE7FFFFFF0FF0B5DE465B
:100F300057464E4645460023E0B58BB00893674BB5
:100F40008200D45800239B46099000F0A3FA0200C7
:100F50000B006068EFF3108A72B6564601680029EC
:100F6000FCD0B246BFF35F8F21684F7B8C46002FC9
:100F70002ED0A5685A49A9467918090189444946DD
:100F80000868496805000E00AD1A9E41002E5FDD1D
:100F900002000B00099800F0CDFA002300229946C8
:100FA000002306920793002398466368BFF35F8F80
:100FB0005A461A608AF310884346002B12D1002843
:100FC000C3D10BB0F0BCBB46B246A946A046F0BDAB
:100FD0000023002299460023069207930023002055
:100FE0009846E2E7089B494618023843C0476268C2
:100FF00005000E00EFF3108A72B61368002BFCD0C8
:10100000BFF35F8F002E40DB2B00334302D02369F8
:10101000002B55D12368D97B002905D01A684800D8
:1010200041185218033A57709A7B002A00D19F73D7
:10103000DF73E268013FD35D0133D3555B46236123
:101040006368BFF35F8F5A461A608AF310887CE7A3
:10105000002E01D1002D9BD10021604600F012FC32
:101060004B461A685B68069207934B469B68984606
:101070004B46DB689946E368DB19013B1B78089314
:101080001B020343236100208FE72369002BC1D09B
:10109000069A079B8021521BB34109068B4202D35B
:1010A0000122104B52420021049101310391494623
:1010B00001914146200002970091FFF7B7FEBDE77E
:1010C00000F0E8F92A00330012184B41802109068C
:1010D0008B42E8D30122034B5242E4E77C17002005
:1010E000FFFFFF0FFFFFFF7F10B5144C6368002B5D
:1010F00004D00A211248FFF735FE10BD2300114A23
:101100001021206800F0D4FA032000F0B7F9032082
:1011100000F07EFA03200C4900F0C6F9FFF778FBD7
:101120000A4B9C4603232375D0231B061B6860448F
:101130006375074B80006060DC60DAE7380D0020E3
:1011400090170020C90D00102D0F00104000003432
:101150007C170020F0B557464E464546DE46E0B5C2
:1011600085B0019310AB1B780600039300239A46C9
:10117000984600927268EFF3108B72B61368002BDA
:10118000FCD0BFF35F8F3568AC7B002C00D16FE0E3
:1011900067002B683F19033FDB195A78AA73002AAE
:1011A00000D1EA734B4AA118B2680901521800989D
:1011B0000199106051600E9991600F99D16042467B
:1011C0009A705A701A706B7B9946002B00D170E0B0
:1011D00022004946A8686B6898472A6800285BD0B7
:1011E0004B4648465B004B44D719033BB870D118B7
:1011F000D35C002B00D07B704B460C706B734C455E
:1012000058D0F3681B19013B18787368BFF35F8FE0
:1012100042461A608BF310885346002B08D1000217
:10122000204305B0F0BCBB46B246A946A046F0BD7F
:10123000039B002B4BD00E9B00200F999847030077
:1012400004000D000B4342D000291ADA009A019BDA
:10125000121BAB410092019380221206934204D3E9
:1012600001231D4C5B4200930194039B9A4681E746
:101270007368BFF35F8F1C608BF3108801204042BE
:10128000CFE700F007F9802224184D4112060094A0
:1012900001959542E9D3E3E74B465B004B44033BA2
:1012A000D3189C70D119D25D002A00D05A704B46D9
:1012B0000B706C73307D009A019B00F03BF9824605
:1012C00000289ED02100306800F05EFB99E70020E6
:1012D000A7E7C046FFFFFF0FFFFFFF7FF8B50B003A
:1012E00004004168EFF3108572B60A68002AFCD04A
:1012F000BFF35F8F2068D9B2427B8A4209D0FF26B4
:101300001E4002687700BE199219033A9278002AAB
:1013100012D0FF26E2681E409219013A1B0A127889
:10132000DBB29A420DD000206368BFF35F8F0022CA
:101330001A6085F31088F8BD21699942F3D12261C2
:10134000F1E700F021FBEFE770B5EFF3058305004F
:101350000C0084B0002B0AD0164A0020536A9C422D
:1013600003D8926A0130AA421FD304B070BD124E56
:1013700002930193114B0200009330000B00FFF722
:10138000E9FE011EE8DD20BF3000FFF7A7FF094B93
:1013900000205A6A9442E8D89B6A0130AB42E4D2FA
:1013A000A41A631E9C41E0B2DFE7E31A5A1E934180
:1013B000D8B2DAE700400540380D0020FD0D0010DE
:1013C000F0B5EFF30582D6464F4646461000C0B54D
:1013D0001038EFF3108872B6214C2368002BFCD034
:1013E000BFF35F8F0123190081401E4D1F00696309
:1013F000AA461D4D29601D4D2E78AC463500C540CE
:101400002F402B4215D053465F6A194B8500EB588D
:101410009F4218D36246174B8E43EB581670BFF3AA
:101420005F8F0022226088F31088002B06D0984737
:1014300004E0BFF35F8F276088F31088E0BCBA46F2
:10144000B146A846F0BD0C4B92009C46624413681E
:101450001360BFF35F8F0023236088F31088EDE7EC
:10146000280100D0004005403C700540C017002016
:101470009C1700200C130020D03F054010B5034BF3
:1014800001001800024AFFF745F910BDBA17002005
:101490005C440010034B596A0A00986A596A8A42F0
:1014A000FAD170470040054070B504000D00EFF31D
:1014B000108672B61A4A1368002BFCD0BFF35F8FF8
:1014C000002D1BD02000FFF7D3F9164981420AD026
:1014D0002000FFF7D5F901212000FFF7B7F901231C
:1014E000A340114A1360114BA400E550BFF35F8F76
:1014F00000220B4B1A6086F3108870BD0121A140B9
:101500000A4BA200D5500A4B20001A788A4305499D
:101510001A70FFF7D9FA00212000FFF797F9E5E7E5
:10152000280100D0C1130010386005400C130020C2
:10153000C0170020F0B54F46D6464646C0B5070056
:101540002E4C616A0D00A66A616AA942FAD18B42EB
:1015500008D805D00120E0BCBA46B146A846F0BD87
:10156000B242F7D9EFF3108A72B625480168002914
:10157000FCD0BFF35F8F0125BD4022491F4C884638
:10158000097889462943C9B28C46414660460870AD
:10159000391D890065630A511B49B8004350216A0F
:1015A0000020294219D0616A0800A66A616A814256
:1015B000FAD18B4219D801D1B24216D8CC450BD002
:1015C0000E4B1F221D625D6301233A4093400F4A78
:1015D000136043464A461A700120BFF35F8F002212
:1015E000074B1A608AF31088B5E70020BFF35F8FBE
:1015F0000022034B1A608AF31088ACE700400540D4
:10160000280100D0C01700209C17002080E200E0D5
:10161000EFF3108C72B60A490B68002BFCD0BFF3B5
:101620005F8F01238340074A0748136202789A4379
:101630000270BFF35F8F00230B608CF3108870473C
:10164000280100D000400540C017002070B50500FB
:101650000E001400002923D0002A12D080686B6885
:101660009847296800280ED063001B197200033BBD
:101670009219CB18033A9E7088188A5C002A11D1FF
:101680000470300070BD73009B196200033B121997
:10169000CB18033A9C7088188A5C002A05D1067022
:1016A0002000EFE75A700470EBE75A700670F7E716
:1016B00030B583600023CCB24373013304734260BE
:1016C0008373C4730D000068012C06D9421C0133DA
:1016D000DBB2137003329C42F9D1FF2129404B0049
:1016E0005B18C01800230338437030BD70B5050087
:1016F0000C1E07D0630001681B19033BCB185A78F6
:10170000002A01D1200070BD50008018033809184C
:1017100000204E784870210058702800FFF796FF8F
:10172000310004002800FFF7E1FF0600002C26D05E
:101730000028E7D021003200A8686B689847296824
:1017400000280ED073009B196200033B1219CB18BE
:10175000033A9C7088188A5C002A00D05A70067080
:10176000D0E763001B197200033B9219CB18033AB0
:101770009E7088188A5C002A00D05A700470340069
:10178000C0E7C046F0B557464546DE464E46E0B592
:101790000D006F0001687F19033F0400C85D83B02E
:1017A0000192CA19002850D043001B18033BCB18E4
:1017B0005E78B446002E1AD1019E002E42D0E67B00
:1017C000002E04D073009B19CB18033B5D70A37BE4
:1017D000002B00D1A573E57300282FD1002353708F
:1017E00003B0F0BCBB46B246A946A046F0BD7200AD
:1017F0006244033A8A18517888460021517089461C
:101800005970320001002000FFF720FF4346824656
:10181000002B07D05B0021684344033BCB185A7868
:10182000002A16D1424651462000FFF70FFF2168DB
:10183000019BCA19002BC2D10028CFD043001B182E
:10184000033BCB1800219970C8E7019B002BB6D150
:10185000C4E7500080180338091848788346484682
:101860004870587041462000FFF7F0FE5946804608
:101870002000FFF73BFF414602002000FFF7E6FE95
:101880008046CFE7F0B557464546DE464E46E0B5C2
:1018900083B00191457B04006F0000687F19033F0E
:1018A000C15DC219002952D04B005B18033BC3181D
:1018B0005E78B446002E1CD1019E002E44D0E67BFB
:1018C000002E04D073009B19C318033B5D70A37BEB
:1018D000002B00D1A573E573002931D10023280026
:1018E0005370617303B0F0BCBB46B246A946A04634
:1018F000F0BD72006244033A82185078804600209E
:1019000050708146587032002000FFF79FFE43461A
:101910008246002B07D05B0021684344033BCB1871
:101920005A78002A17D1424651462000FFF78EFE12
:10193000019B01002068C219002BC0D10029CDD025
:101940004B005B18033BC31800209870C6E7019B4F
:10195000002BB4D1C2E7500080180338091848782A
:10196000834648464870587041462000FFF76EFE97
:10197000594680462000FFF7B9FE4146020020008C
:10198000FFF764FE8046CEE770B5050000292CD035
:10199000437B8B422ED04C0000686418033C041932
:1019A000A278002A21D053009B18033BC25CC618C2
:1019B0008A4202D11BE0002A08D053009B18033B47
:1019C000C3185A788A42F6D162785A7000230122ED
:1019D0002800A3706370FFF7D5FE697B0200280022
:1019E000FFF734FE6873012000E0002070BD6378CB
:1019F0003370EBE701221900FFF7C4FEF2E7C0469F
:101A0000F8B5040006200D0000F0C4F9002844D009
:101A10002A4B2B49E21853425A418023DB039C4650
:101A20009205284B62441A60274B1A6010008B689D
:101A30009843FBD1214B254AE31859424B41802161
:101A40005B0049000620995200F0A4F92900C0006B
:101A500000F00CFBC30921D140270121260080257D
:101A60006162A36200232C36AD0135432B60062052
:101A700000F090F93900800000F0F8FA6022E36A83
:101A800053400E321A4080235B0133431A60104BDF
:101A9000236310232B600D3BA364F8BD0D4A9342D2
:101AA00003D900230C4F0D49D8E77F2202400132B1
:101AB00052089F011900BF181300CFE70080FCBF38
:101AC00000C0004000E0004000F00040AC170020E3
:101AD00001030000FEFF0000C0FF3F00FFFF000009
:101AE00010B50C2082B000F0AFF9FEF70BFE002815
:101AF00010D0864B86488649864A1860596098609F
:101B0000D960186159619861D961186259625A6245
:101B100002B010BD804CA06700F09EF901227F4BFF
:101B20001A60636C012BFCD103227D4B1A607A4A48
:101B3000936B012BFCD1013301217A4A7A4800933F
:101B4000043300F02DF90523784A009301217848E9
:101B500000F026F9774B5A68FF2A02D880225200FB
:101B60005A6080226E4B694C12011A60216900296B
:101B700005D0606900F07AFA01300138FDD1E02229
:101B80006C4B6D4819680A40026002221968514086
:101B900001320A40042102609A681142FCD080217F
:101BA000664A09011160802252005A60644B236129
:101BB000644B5968FF2900D85A6003220121574B12
:101BC0001A60604A93681942FCD0E0231068034011
:101BD0005D480360126803234A4002211340594ABA
:101BE000036093681942FCD08021584B09011960A9
:101BF0008021574B490051606361564B5A68FF2A58
:101C000000D859608022544B12011A60E169002902
:101C100005D0606900F02AFA01300138FDD1E023D7
:101C20004C4A11680B404D490B6080214C4B090117
:101C300019608021364B49005160E361494B5A6875
:101C4000FF2A00D859608022474B12011A60216A8E
:101C5000002905D0606900F009FA01300138FDD192
:101C6000E023404A11680B4040490B608021404B03
:101C70000901196080235B0053608022244BD2024B
:101C800023623C4B5968914200D25A6080223A4B01
:101C900012011A60616A002905D0606900F0E6F956
:101CA00001300138FDD1E023324A11680B4033493D
:101CB0000B608021324B090119608023DB025360E5
:101CC000144B63622F4B5A68FF2A02D880225200BD
:101CD0005A6080222C4B12011A60A169002905D09C
:101CE000606900F0C3F901300138FDD1E023254AD5
:101CF00011680B4025490B608021254B09011960B3
:101D000080235B005360124BA36101E7E00D0020CC
:101D1000006CDC021BB70000008000403CB00040BB
:101D200030B00040002F685900800240008C864788
:101D300000C00240308000403090004030A00040A1
:101D4000001BB7003C8000403C9000403CA000409D
:101D5000405973075480004054B0004054900040F4
:101D600054A000406080004060B00040609000409F
:101D700060A000406C8000406CB000406C9000405F
:101D80006CA000404880004048B0004048900040AF
:101D900048A00040014B8000C0587047E00D002073
:101DA000F8B504000C2017001D000E0000F05EF9CD
:101DB00043011B1A9901C91AC90009188901380081
:101DC00000F054F9069B29041B0319432368002BD8
:101DD00020DB194B194DE3185A425341802252011E
:101DE00094461B03164A63441360164A13601F008F
:101DF000AA689743FBD1C023221D9B0113432122D4
:101E00002660A0601A602268002AFCDA0822E160DD
:101E10001A60F8BD3F2322681340B342D9D1A368AA
:101E20001B051B0D8342D4D1EE22E368D20213407E
:101E30008B42CED1EDE7C0460040FDBF00C0004060
:101E400000E0004000F000408023024A9B00034372
:101E5000D362704700800540AA23064A1B01136025
:101E60002F230549D360054B19605368002BFCDA1A
:101E70007047C0460040024000B0FA0000600240D7
:101E80002C4B2D4A70B51A602C4A2D4B2D491A60E7
:101E900014008B689C43FBD12B4D2C4EB54208D2CD
:101EA000013E761BB60808CD984723000134B342A3
:101EB000F9D1FFF715FE264A214B1A60214A936893
:101EC000DB43DB01DD09002BF9D14022214B224C01
:101ED000224E9A675A671A67DA66B44208D22368B4
:101EE0002000002B20D00834FEF752FFB442F6D376
:101EF0001B4C1C4EC022B168200000F0C1FBB46036
:101F0000FEF778FCFEF71CFFFFF7EEF8164C174EB5
:101F1000B44208D2013E361BB60808CC98472B00C5
:101F200001359E42F9D170BD0834FEF723FFB4425B
:101F3000D5D3DDE700E00040BFCDFBFEFE7F3C00D7
:101F400000F0004000C00040C80D0020D80D002067
:101F5000FFFFFF0100F00140C00D0020C80D002070
:101F60000000002000ED00E0D80D0020DC0D002076
:101F700000BEFDE710B5FFF7FBFFC0460FB400B58C
:101F8000084883B000F02CFC049B002B07D005A967
:101F90001800019100F018F8034800F021FC01201E
:101FA000FFF7E6FF804400109044001010B5014890
:101FB000FFF7E4FF9444001010B5002800D110BDD5
:101FC00000F0C2FBFBE7C04610B5094A03001468E5
:101FD00084B0002C08D0012200910648524203A987
:101FE000A047012004B010BD00F0FAFB0020F9E783
:101FF00074170020B91F001001480421014B184735
:10200000600D002029200010142310B5010018884D
:1020100004331B88984710BD162310B5010018889B
:1020200002331B88984710BDF8B54746CE4680B5A9
:102030000F1E19D0142399460433040000250126ED
:1020400098464B461888434621681B88984701C428
:10205000431E9841013540420640AF42F1D1300065
:10206000C0BCB946B046F8BD0126F8E7114A936FE7
:102070009B0813D210665166002905D0FFE7FFE7E1
:10208000FFE7516F106F704704B5002801D00020A2
:10209000C04302F045F9002104BDC046F0B5146EFE
:1020A000556E576F166FFFF7E5FF14665566576755
:1020B0001667F0BD000000D094464A4A926F92081D
:1020C000624601D228E0C046F0B5464E346E756EC9
:1020D000776F366F00F020F89446424A14665566D2
:1020E000576716676246F0BD94463E4A926F920863
:1020F000624601D254E0C046F0B53A4E346E756E79
:10210000776F366F00F04CF89446364A1466556681
:10211000576716676246F0BD002B24DB11D00029FB
:102120003EDA00B5C943404200D1013100F038F831
:10213000C943404200D10131DB43524200D1013357
:1021400000BD002AEBD1002801D1002905D00020D4
:10215000C90FC90701D1C043410800B502F0D0F84A
:102160000022002300BD00B500290ADBDB435242F8
:1021700000D1013300F014F8C943404200D10131CD
:1021800000BDC943404200D10131DB43524200D17E
:10219000013300F005F8DB43524200D1013300BDAA
:1021A000002923D1002B18D1002A0CD0BC460D4F9A
:1021B00038667A6600210023FFE7FFE7FFE77A6FC2
:1021C000386F67467047002801D00748010000B506
:1021D00002F096F80022002300BD02000B00002050
:1021E00000217047000000D0FFFFFFFF002B00D050
:1021F000BFE0130C28D1002AE7D080B4114F396614
:102200007A66FFE7FFE730B4040C7B6F396F1B047D
:1022100023433B667A66FFE7FFE7FFE7C04684B2E9
:102220007B6F3D6F1B0423433B667A66FFE7FFE746
:10223000C04600232C042D0C7A6F386F00196941B9
:10224000B0BC7047000000D0F0B594460025140ED5
:1022500001D112020835140F01D112010435940F77
:1022600001D192000235D40F01D152000135D40BB7
:102270000134254F7C66254C3C660E0C93B2FFE77B
:10228000FFE7FFE73C6F6643360C7703BE467343B8
:10229000DF0B5B04C01AB941130C7343DB18C91A76
:1022A000CE086643360CB64493B273431F0F1B012E
:1022B000C01AB941130C73431F0B1B05C01AB94157
:1022C000860D8F023E436643360C092D24DB520AED
:1022D0007243801A7703460A6643360C16235B1B4B
:1022E000DE40DF40BF1964466643821B70460435FA
:1022F00006330100D940A840C01900D30131A242E1
:1023000006D20023F0BD0000000000D0FFFFFFFF59
:10231000121B0130F3D3F1E709277F1BFE4064460F
:10232000A2B27243801A00D20139220C7243130CFC
:102330001204821A99410B007046043513370100CC
:10234000F940A840801900D30131002B02D1A242EC
:102350000AD2F0BD013000D30131121BFAD2013B89
:10236000F8D1A24200D2F0BD013000D30131121BDE
:10237000F7E7F0B51C0C00D080E00CB400251C0A77
:1023800004D11B02160E3343120208351C0B04D174
:102390001B01160F3343120104359C0B04D19B0023
:1023A000960F334392000235DC0B02D192185B4149
:1023B00001351C00971864410134464F7C66464C39
:1023C0003C660E0CFFE7FFE7FFE7C0463C6F664345
:1023D000360C7703BE4697B27743C01B00D2013953
:1023E000C01B00D201399FB27743C91BC91B170C10
:1023F00077437E04FF0B801BB941CE086643360C41
:102400000C2D33DBB644120B1F053A431B0B97B25E
:102410007743C01B00D201399FB27743C91B170C09
:1024200077433E043F0C801BB941860D8F023E432B
:10243000664329277F1BFE400C3D7746AF40BF19FE
:1024400030BCA2B2ABB272437343801A9941220CE2
:102450007243130C1204801A994102000B000137D9
:10246000001BA941F9D2781E0021F0BD0C277F1B6B
:10247000FE4077467F0BAF40FF19E0E700245D1C6C
:1024800007D0144F7D663966FFE7FFE7FFE7FFE7F8
:102490003C6F95B29EB265436643401BB141150C3B
:1024A0001E0C6543664336042F0C3E432D04401B2F
:1024B000B141994204D202000B0020000021F0BD7E
:1024C00001D19042F7D3801A994101349942F2D355
:1024D000F6E70000000000D0FFFFFFFF132370B5F8
:1024E0001D78012D15D010DD1D48FFF795FD1D4C01
:1024F00001008022200000F0C3F8022D2DD01A48E0
:10250000FFF782FD194B186070BD194B154CA36481
:10251000F5E7174B134C23606360A360E36023610E
:102520006361A361E36123626362A362E362236385
:102530006363A363E36323646364A364E364236565
:102540006365A365E36523666366A366E366236745
:102550006367A367E367A364D1E7054BA364CEE792
:1025600053440000080F00204C3300008C1700205B
:102570007525001007B5604601880A0A0230DF2A77
:10258000FAD1C9B2820804D30288408800041043FB
:1025900000E00068014A5050039007BD080F00207A
:1025A00051434343C9188C46110C83B24B4310B4BA
:1025B000040C614392B280B2504362431C041B0C72
:1025C000001910BC59411304120CC0185141614448
:1025D00070470000132310B512481C78FFF71CFD4C
:1025E0000100012C0AD003DD80220F4800F048F8DA
:1025F0000E48FFF709FD0E4B186010BD0A4C54221F
:10260000200000F03DF80B4B6365A365E36523668E
:102610006366A366E36623676367A367E367236272
:10262000E361E5E753460000081000204C3300004A
:102630008C1700203926001007B5604601880A0A69
:102640000230DF2AFAD1C9B2820804D30288408856
:102650000004104300E00068014A5050039007BD99
:102660000810002001480421014B1847700D00207C
:1026700029200010014B1B6818470000700D002036
:10268000014B5B6818470000700D0020F0B546460E
:102690004F46D646C0B5437D80460E001700002B3E
:1026A0004BD0002A32DD274B01259A464B1E0024D1
:1026B0000020994607E0335D0A2B2CD02B00013413
:1026C0000135BB4213DA002CF5D133780A2BF5D152
:1026D00043461B7D002BF1D14346504602211B6827
:1026E000984728002B0001340135BB42EBDB8742C1
:1026F00004DD4346391A1B6830189847F619013E25
:1027000033780D3B5A42534142461375E0BCBA46FA
:10271000B146A846F0BD4B461B5D0D2BCED0A04266
:10272000DADA4346211A1B68301898474346504668
:1027300002211B6898472800D4E703681100300085
:102740009847E3E704450010F0B5CE46474680B50C
:1027500083B06B460600DD1D2870FEF79BFE00234C
:102760001A4A12184B41802109068B4202D30122DA
:10277000174B524217490800884601F0E1FD164BFD
:1027800081461C68002C14D0144F02E02469002CF0
:102790000FD02368002BF9D03B68002B01D0A34257
:1027A000F4D1200001222900FFF770FF2469002CDA
:1027B000EFD14B46002B05D1300003B0C0BCB94669
:1027C000B046F0BD404601F093FDF5E740420F00F2
:1027D000FFFFFF7FC00D0020681300207013002052
:1027E000F0B5DE4657464E464546E0B585B0070093
:1027F00001F04CFD0600FEF74DFE00232B4A121897
:102800004B41802109068B4202D30122284B5242C0
:10281000284908008B4601F093FD274B01901C6866
:102820009A46002C3BD0254B984602ABDD1D0A236F
:10283000994602E02469002C17D02368002BF9D0B8
:1028400043461B68002B01D0A342F3D12000320085
:102850003900FFF71BFF4B462000012229002B7097
:10286000FFF714FF2469002CE7D1019B002B18D13E
:1028700053461C68002C06D06368002B0BD0984789
:102880002469002CF8D1300005B0F0BCBB46B2463C
:10289000A946A046F0BD2469002CEDD1F3E700283D
:1028A000F1D0584601F024FDE2E7C04640420F0057
:1028B000FFFFFF7FC00D0020681300207013002071
:1028C0000A4A1368002B05D10CE01A001B6910326C
:1028D000002B07D09842F8D1002902D10369136078
:1028E000016170470029FCD01060FAE768130020EE
:1028F000F0B5002915DD0E4B0D271A680D4B0E4C57
:10290000D3185D426B41451820215B001E5F04789F
:10291000A64207D093691942FCD101301460A84245
:10292000F5D1F0BD93691942FCD11760F2E7C046BA
:10293000B41700200080FCBFAC17002030B50400A5
:102940000D1E30DD00201021204B013C1A689369D8
:10295000194217D1013093691942FCD113682354ED
:102960008542F4D11A4B1B68002B09D05023382123
:102970009363536B3432194080235B011343196016
:1029800028000FE0124B1B68002B09D05023382180
:102990009363536B3432194080235B011A431160F7
:1029A000002810D030BD0A4B1B68002B0BD05022E2
:1029B0003821064B1B689A635A6B343311408022CE
:1029C00052011343196003204042EBE7B417002083
:1029D0001C130020064B10B51B68002B06D00021ED
:1029E000044A12689163044A1068984710BDC046B3
:1029F0001C130020B4170020201300201D4BF0B53D
:102A00001A68C64698461C4B0E00D31859424B41D3
:102A10001A4F14331C00050000B53B68002807D08E
:102A2000002B11D0164B3D601E6080BCB846F0BD37
:102A3000002BF7D0906300212000FDF707FF200056
:102A40001049FEF741F8EDE720000E49FDF718FFA9
:102A500001212000FDF7FAFE4346502238211B6871
:102A60009A635A6B34331140802252011343196028
:102A7000D8E7C046B41700200080FCBF1C1300201C
:102A800020130020D529001070B50C4E0D001C003D
:102A90003060002A03DB02211000FDF7FDFD002C51
:102AA00003DB02212000FDF7F7FD29003068FEF767
:102AB000A7FF01210248FFF703FF70BDB4170020F4
:102AC000800D002010B501210520FDF7BFFE10BDCF
:102AD00010B500220021024800F066F910BDC04682
:102AE0009413002080219022034B89029950802268
:102AF0005201DA647047C046002011508022024B18
:102B00005202DA647047C04600201150F0B5C64644
:102B100000B5060000F022F90C231B4DFF22AB6725
:102B200005201A49FDF7D6FE40239846184C40224E
:102B300000212000FFF79EFD43460127238321212A
:102B40000023144A6770A260136063545F3161848C
:102B500041462187053963540F4A10496360E2609A
:102B6000A1620B606362E26201F0FAFB80239B05C5
:102B70002F64EB6490230A4A3000EA50FFF7BEFF4F
:102B800080BCB846F0BDC0460000115029030020AB
:102B90007413002084001050000110508000105069
:102BA00010D001000B785B0602D14B78052B00D0CA
:102BB00070478A78014B1A60FAE7C046000011504E
:102BC000F0B5C64600B5CC7888780A794B797F2174
:102BD000A40701401B02C50913434F00A20F1400B4
:102BE000324E7A195201B21890700120684050702C
:102BF00000205B055B0DD0701383D4768046CA003D
:102C0000012D33D02A488446880162448446B44466
:102C10006046826040461060002933D0254AC900D2
:102C200090466246414451603F223F339343022C19
:102C300000D15B0020487A1901685201B218D160B6
:102C40001E4ACB18036051405A40802388465B01DE
:102C50009A4228D84346A4061C4380237F197F014B
:102C6000F61972681B062343136011E0144884466A
:102C7000880162448446B4446046826240461060E3
:102C8000002909D100236D0175196B600D4BEB60B4
:102C9000012080BCB846F0BD084AC9009046624693
:102CA00041445162C0E7FFF781F9D3E77413002074
:102CB00084001050040010507817002000001050BD
:102CC000800010500001105010B501F049FB10BDFC
:102CD00010B57F200C0020404000E40911000019CD
:102CE0001A00034B4001C01800F05EF8012010BD2F
:102CF000741300207F23180010B508400B420BD03E
:102D0000C90980224000074B401840010021C0182B
:102D1000120101F035FB10BD0223034AC9095B1AF9
:102D20009366EEE774130020002011507F221300F9
:102D300010B50B400A4200D110BDC9095B005B18F9
:102D400004485B01C018002300220349C37001F04E
:102D500017FBF1E774130020FFF7FFFF80220D4BF4
:102D6000520410B51A600C4B0C491A6010008B68A5
:102D70009843FBD10A4C9C2200212000FFF77AFCEB
:102D80008022002152010748FFF774FC0923636782
:102D900010BDC04600E0004000F0004000C0004010
:102DA0000000115000001050002310B5C382013301
:102DB000828283760161040001F0AAFA002804D01F
:102DC00080219023074A8902D150200001F0D0FAD7
:102DD000002802D00123237710BD200001F0B8FAAB
:102DE000FAE7C04600201150024B5878431E984124
:102DF000C0B27047F0110020024B18784007C00F96
:102E00007047C046F0110020094A10B513785B07DF
:102E1000DC0F002B05DA182312781340182B02D090
:102E20000024200010BD034B1878FFF75BFEF8E785
:102E3000F0110020BC0D0020034B1878FF38431E12
:102E40009841C0B27047C046BC0D0020F0B5C646E0
:102E500000B52A4E05003378FF2B01D001203FE05A
:102E6000532200212648FFF705FC264C2000FDF7E1
:102E700081FF254B1C60254C2000143CFDF796FF7C
:102E8000200001F0B9F9224B224F1C60224B9846DA
:102E9000002B1DD0380000E000BF204B18603B78AD
:102EA00042460024002A15D01D4A904642469C42C4
:102EB00019D3904701343B78E4B2A342F6D22800FC
:102EC0003570FFF723FE2800FFF7FCFD012007E027
:102ED0003B78E5E700F00AFF3B78002BEFD00020BD
:102EE00080BCB846F0BD0D4A630012681B19DB00B8
:102EF000D318002BF3D01A68DBE7C046BC0D0020C6
:102F0000F0110020A811002044120020B40D002070
:102F100048120020B81700200000000024110020F3
:102F2000ED3C0010F0B5DE4657464E464546E0B54E
:102F30008FB001F04BF8002800D117E1D04BD14EF3
:102F40009B46D14B0BAC9946D04B9A4635686A6983
:102F5000EFF3108172B61368002BFCD0BFF35F8FC4
:102F6000A9612800210001F0B5F86A69AB69BFF3D7
:102F70005F8F0021116083F31088002800D1F5E0F5
:102F80006378082BE2D85A469B00D3589F46636863
:102F9000002BDBD0A0689847D8E77F222179BA4D73
:102FA0000A405300C809EB181B181D0001273035D3
:102FB000E878B843E870E8780337B843E870002A47
:102FC00000D1F0E0B24ADB7C002A06D0B14A127888
:102FD000934200D248E19B1ADBB2002B00D0C5E03F
:102FE000AD4DA36862792078A847AFE70122A64DCE
:102FF00001202B78042113432B703323EA5C824396
:10300000EA54EA5C8A43EA540133EA5C8243EA54B4
:10301000EA5C00208A43EA542378019300F0DCFC48
:10302000602322791340602B0DD0402B00D1C0E0EB
:10303000D206D20E012A00D13EE1022A00D1D5E00B
:10304000002A00D1C4E020780021FFF753FE802140
:103050002078FFF74FFE79E74B461B78DB0700D45B
:1030600074E78E4B002B00D170E7FDF789F96DE70F
:10307000854D2B78DB0700D468E7894B002B00D106
:1030800064E728780007C00FFDF772F95EE7237840
:10309000804F7F4A984600253B78002A4BD0524605
:1030A000B2463E0017003A00AB4266D84046904711
:1030B00001353378EDB2AB42F5D25646BA46724D81
:1030C000532200212800FFF7D5FA1022FF21E81C27
:1030D000FFF7D0FA28002022FF211330FFF7CAFAA9
:1030E0002FE023786B4F6A4A984600253B78002AE8
:1030F00030D05246B2463E0017003A009D4247D3B8
:103100004046904701353378EDB2AB42F5D2564692
:10311000BA465D4D532200212800FFF7ABFA10227A
:10312000FF21E81CFFF7A6FA28002022FF21133018
:10313000FFF7A0FA15E0404600F0E2FD3B78002BD7
:10314000BDD000F03FFC574B002B00D1FEE6FDF751
:1031500009F9FBE6404600F0D3FD3B78002BD8D0C0
:10316000494D00F02FFC2379AB70EFE60FB0F0BCB7
:10317000BB46B246A946A046F0BD4B4A6B0012685A
:103180005B19DB00D318002B00D1AEE15A688DE744
:10319000454A6B0012685B19DB00D318002B00D185
:1031A000A6E15A68ACE7A3686279207800F028FCB1
:1031B000CCE63E48002800D145E700F00DFC012197
:1031C00001980CAA00E000BF002800D0BEE63AE754
:1031D000202B00D1A5E0002B00D034E76379092B28
:1031E00000D930E7324A9B00D3589F467022217A9B
:1031F0000A4200D027E70F320A405200CF09A81830
:10320000C019C07C029284462148002808D0214879
:103210000078844500D2A6E06246101AC2B29446F5
:103220006046002800D099E0002B00D059E1214BE6
:10323000984660790222030003909343012B00D14A
:1032400059E1002800D0FEE6029B0AAAEB18DB1920
:103250003033DB7802329B07DB0F138001980223A7
:103260000CA900F059FB71E60F4A58001268C31808
:10327000DB00D318002B00D178E71D69B1E6C0460A
:103280007045001048120020F0110020013D001090
:1032900000000000B8170020613F001081030010FB
:1032A00071030010650300102411002000000000CD
:1032B00094450010FC450010237A0F2B00D9C2E67C
:1032C000B84AEB18DB78002A05D0B74A1278934247
:1032D00065D39B1ADBB2002B00D0B4E6B348B44DE3
:1032E00000F07AFB0121EB6801980CAA98470028AE
:1032F00000D02BE66022150023791D401A4200D031
:10330000A1E663790A3B012B00D99CE600F064FB3F
:1033100063790A2B00D12EE101980CA900F0E6FA9E
:1033200014E6237A0F2B00D98DE69E4AEB18DB7842
:10333000002A06D09C4A1278934200D2FCE09B1AE5
:10334000DBB2002B00D07EE69848994D00F044FB9C
:103350000121EB6801980CAA984735E79846002BA5
:1033600000D166E76FE6624652009046C44462466A
:103370009048D20000689446020062449046002BB8
:1033800000D156E7002A00D15DE6D06800F024FBAA
:1033900043460121DB6801980CAA984714E7854A47
:1033A00059001568CB18DB00ED18002D00D14AE656
:1033B000E86895E7E388012B00D044E608222B78E3
:1033C000019893430CA92B7000F090FABEE50220FF
:1033D00029780AAB9A1C8B068908DB0F01400B4346
:1033E0003BE7A37904931A006B789A4207D06B7875
:1033F000002B00D045E1049B002B00D0E6E0049BAD
:1034000001980CA96B7000F071FA9FE56B780AAA1D
:1034100002321370019801230CA900F07DFA95E5A2
:10342000E3881A0AD8B20F2A00D90CE66249930041
:10343000CB589F460CA800F0D5FAA1790198FFF768
:1034400047FB02222B7813432B707FE5E388012B87
:1034500000D0F8E508222B78019813430CA92B70B3
:1034600000F044FA72E5554B002B00D1EBE500E08B
:1034700000BF021E00D1E6E5D37891781B020B4312
:1034800001980CA900F048FA9EE64D4B002B00D1A4
:10349000D9E500E000BF021E00D1D4E51378019801
:1034A0000CA900F039FA8FE62189FDF7B7F8021E62
:1034B000F4D1C8E5022A00D161E1424B002B00D1D2
:1034C000C1E500E000BF0200002A00D1BBE5D3E760
:1034D000FDF798F8122302000CA9019800F01CFADD
:1034E00072E6334B3148984650E75646BA4628E6CE
:1034F0005646BA4634E6E388002B08D1012826D088
:10350000029BEA18D7193037FB789B073CD5474612
:10351000002F00D11AE5F86800F05EFAFB6801217F
:103520000CAA01989847002000F056FA3423EB5C6F
:10353000DB0700D50AE5EFE61E4A59001568CB18EF
:10354000DB00ED18002D00D17DE5E868FEE6029B6A
:10355000EA18D7193037FB789B07D8D51A4B18785B
:10356000FFF7E4FB0222FB789343FB70FB78039A9E
:103570009343FB70CBE70AAB9A1C019801230CA97B
:10358000157000F0C9F9E1E40F4B1878FFF7B2FBB2
:103590000222FB7813430122FB70FB781343FB707C
:1035A000B5E7C04600000000B81700209D3D0010A0
:1035B000FC45001024110020BC4500100000000054
:1035C0000000000000000000BC0D0020581EC0B22A
:1035D000FDF720F8002800D135E54378022B00D014
:1035E00031E50121C2790700931152110B400A40C5
:1035F00012015B0113432A782F318A4313432B7046
:10360000C37882781B021343C3180693644B0937AF
:103610000593644B02960993019B98465B46AB4623
:103620000393069BBB4200D8ADE001227B78079252
:103630000B2B03D1FB7807933B78FF187B78042B87
:1036400063D10025069BDB1B9BB20193059B1A7877
:10365000554B0893099BAB424CD0089BAA4200D91A
:1036600084E0019E3900320040469847082801D97D
:10367000864259D2059B01351A78EDB2AA42ECD2A6
:1036800043E0019B18009846FFF71EFB0021AB7832
:10369000434F444A039302913B78002A21D0434A86
:1036A00001920299019A8B4233D840469047029B7F
:1036B0000133DBB21A0002933B789342F1D24346C6
:1036C0000193532200212800FEF7D4FF1022FF218E
:1036D0003748FEF7CFFF2022FF213648FEF7CAFF0A
:1036E00005E0019800F00CFB3B78002BE9D0039B30
:1036F000AB7080E639004046019A00F00BFB0600F3
:10370000082802D9019B83420FD2039B029E9B464D
:1037100099E48C46284B4A001B686244D2009B18EF
:10372000002B20D05A68C0E706000022584609E066
:10373000BB78D318DBB2C318D978FF29E5D10132A1
:10374000DD70D2B2079B9A42F2D12B00390083463A
:103750003200184800F0A4FC059BBF191B78AB424F
:1037600000D35EE7D1E743460193C0E71822124B2E
:103770006A431B689B18002BC7D09B6871E7FCF756
:1037800049FF0200A0E643460193039B5D469B462A
:103790000A4B029E002B00D131E6FCF7DBFD2EE642
:1037A000B817002000000000153D0010013D00107A
:1037B000F3110020031200202411002055030010F3
:1037C000F8B557464E46DE4645460C00E0B51600B5
:1037D0001F00002A3CD01F4B00259A4670239946B3
:1037E0001D4B9B4617E05B462000997800F01AFCC1
:1037F00000281FD021004046FFF7E2F9002819D029
:10380000A378DA09012A1CD00A9A013513702378AB
:10381000E418B5421CDA6378052B0BD1E3789B07DB
:103820009B0FBB4206D153464A461B789846A37865
:103830001A42D8D00020F0BCBB46B246A946A046EA
:10384000F8BD0B9A013513702378E418B542E2DB1A
:103850000120F0E7BC0D0020F01100200B007F20BC
:1038600010B51840DB0933334000044AC018044B3C
:103870001168C01800F0AEFB10BDC0464412002015
:10388000F011002070B57F240F480C40640004192B
:10389000CD0964193034E078C00701D5002070BD2F
:1038A0000126E578094835430078E570FFF710FAFE
:1038B0000028F4D10122E3789343E370E3780332E4
:1038C0009343E370EAE7C046F0110020BC0D0020EE
:1038D0007F22054B0A405200C9099B185B18303300
:1038E000D878C007C00F7047F011002070B5094CA0
:1038F0000600082220000D00FEF7C2FE00238021F2
:10390000E360A3602B783000994300220023FFF787
:10391000B9FF70BD28110020F8B5CE464746904645
:10392000264E80B58146082230000D001F00FEF7AC
:10393000A7FE4346B3600023F381EC79AB79240200
:103940001C43231CBC4200D93B1C9FB2B381002CFA
:103950000ED0002F18D04346002B2CD03B1C402FFC
:103960001BD89FB233787F2B1CD80021144A0FE05C
:1039700080212B780022994348460023FFF782FFDD
:10398000C0BCB946B046F8BD7F23002231789943C8
:103990003B004846FFF776FFF2E740239FB23378BB
:1039A0007F2BE2D9064C3A0041462000FEF768FE24
:1039B00080212200ECE70020E2E7C0462811002029
:1039C000B011002010B5142200210248FEF752FE6B
:1039D00010BDC04628110020014B18617047C04639
:1039E0002811002010B5054C010008222000FEF728
:1039F00047FE0023A360E36010BDC04628110020ED
:103A000070B5394C1D0023780600DA09C9098A42CD
:103A100013D00020002D00D070BD344B002B03D0FC
:103A200021003000FFF7BEF82369002B03D02200ED
:103A30000321300098470120EEE77F2B06D8A068CD
:103A4000002834D02A002A49FEF71AFEE289A1682C
:103A50005219E38892B24919E281A160934214D0CD
:103A60003F2D12D9A389981A051C80B240282AD864
:103A70002078ADB27F2828D800219A4232D01C4A43
:103A80002B003000FFF7FEFEC6E72369002B05D0B0
:103A9000220002213000984700280AD08021237894
:103AA0000022994330000023FFF7ECFEB4E700202A
:103AB000B2E700213000FFF71DF930008021FFF749
:103AC00019F90120A8E74025D2E79A4207D0084C0F
:103AD0002A002000FEF7D4FD80212200D0E78021BB
:103AE0000022CDE70022CBE728110020A52B0010F3
:103AF000B01100202C2242430B4B10B59B185C7870
:103B0000FFF772F9002801D1002010BDFFF774F90A
:103B10000028F9D1002CF7D02100FFF7D9FE0123AE
:103B20005840C0B2F1E7C0467C110020F8B52C2403
:103B30004746CE464443204E80B534190500894699
:103B40000020617890461F00FFF788FE00281DD0F6
:103B50004B46002B1ED03B1C0F2F29D82C244A4645
:103B60006C439FB23319083434191A7241463A0033
:103B7000601CFEF785FD0137BFB22C236B43F6189E
:103B800022003B0000207178FFF77CFEC0BCB946E4
:103B9000B046F8BD3B1C102F0CD82C246C430834C5
:103BA0009FB234193A0041462000FEF769FDE4E770
:103BB0000F23D3E71023F0E77C110020F0B5474630
:103BC000CE4680B583B06E460F00190000233270D8
:103BD00005000622737000292FD0B01CFEF750FD9F
:103BE0002C246C43174BA1469846C1444B460020F9
:103BF0005978FFF733FE00280FD0002F12D1083478
:103C00004444230006CE06C308232C226A434244C0
:103C1000517800202200FFF735FE03B0C0BCB94642
:103C2000B046F0BD4B460834444408223100601CC5
:103C30001F72FEF725FD0923E7E70021B01CFEF700
:103C400019FDCDE77C110020F0B557464E4645469C
:103C5000DE462C2491460022E0B583B098460CAB9A
:103C60001B7844435BB29B460DAB1B781E4E5BB288
:103C700000930EAB0F009A56311905008A460020BA
:103C800049780192FFF7EAFD002815D0002F1AD1DC
:103C90004B46083432191370434653705B46937099
:103CA000009BD370019B137105232C216943761867
:103CB00000207178FFF7E6FD03B0F0BCBB46B246CA
:103CC000A946A046F0BD51460F7249460834321944
:103CD0005170414691705946009BD1701371019B00
:103CE00053710623E1E7C0467C11002010B52C2259
:103CF00000210248FEF7BEFC10BDC0467C1100202A
:103D000010B52C2200210248FEF7B4FC10BDC046BD
:103D10007C110020F0B54B7906000D0083B0032B19
:103D20000FD10879C400241A1234A4B2944208D8DE
:103D3000194F7B78002B04D1297869184B78212BF7
:103D400003D00024200003B0F0BDB9620B7802005C
:103D5000C9187B1C0193BB1C009330000323FFF7A1
:103D60002FFD0028EDD0AB79012B01D1EB79FB7051
:103D700001233B71AB78B9783B70BB6ADA791B7A67
:103D80001B021343FB800029DCD03A0010233000D3
:103D90001832FFF777FDD5E77C1100201F23F0B51F
:103DA00014001278050083B01340012B1BD1634E21
:103DB00020793378984216D16023180010401342BE
:103DC00008D020280FD163780B2B0CD85C4A9B00BD
:103DD000D3589F46012918D1E378A17862781B0255
:103DE0000B43062A02D0002003B0F0BD1B0A212B92
:103DF00000D187E0222BF6D10020FCF707FC210040
:103E00000200F3882800FFF787FD0120ECE7012975
:103E1000FBD1E1784B4B7171002B04D0002000E006
:103E200000BF0028DFD021002800FFF75FFD012040
:103E3000DAE7012970D00329E7D1E079A3790002FC
:103E40001843E278A178041C102800D910243E4BB6
:103E5000A4B2002907D0012805D9307E884202D1BA
:103E6000013C3A4BA4B200200094FCF7ADFB0120CA
:103E7000BAE70129D7D00329C7D1A178344B3171D2
:103E8000002BC2D0002000E000BF0120ACE70129D8
:103E9000BBD1E379A0791B020343E278A178181C17
:103EA000102B00D9102080B2002943D0012B41D91A
:103EB000330001270138317280B2093300900020AD
:103EC000FCF780FB3B189BB2002B00D18BE7210055
:103ED0002800204AFFF720FD012085E7012994D121
:103EE0000123210028001C4AFFF716FD01207BE773
:103EF00001298AD1012321002800184AFFF70CFD6F
:103F0000012071E7B26A002A00D16CE72100280085
:103F10001378FFF701FD67E7E379A2791B021343EA
:103F2000102B00D95FE721002800074AFFF7F4FCB7
:103F3000012059E70027074BC0E7C0467C1100204D
:103F4000144600100000000094110020951100207C
:103F50000000000084110020801100208111002049
:103F600070B5144C0500A278667882B08A420ED0F3
:103F700000208E4201D002B070BD0F4A002A04D04A
:103F800000200E499AB2FCF791FA0120F3E796421D
:103F9000F3D026009BB21836009300223300002194
:103FA0000020FCF711FB102332002800A178FFF756
:103FB00069FCE0E77C110020AD04001084110020B2
:103FC00010B50020FEF742FF10BDC04610B5FEF749
:103FD00033FF10BD037870B5DB0704000E00DD0F62
:103FE000002B17D103785B0701D5280070BD012194
:103FF0003000494200F09CF92378DB07DD0F002BED
:104000000AD123785B0708D40422237801251343BF
:10401000237002E00025E8E70025300000F068F991
:10402000E3E7C046437902791B0213435B055A0D4F
:10403000C3789B079B0F022B05D0032B15D00020C4
:10404000012B08D0704702291ED000204023934244
:104050004041C0B2F6E702394B4259410D4B9C46F4
:10406000614491424041C0B2ECE702394B1E994194
:10407000094B494219408023DB009C4600206144E3
:1040800091424041C0B2DDE7044BD0184342584151
:10409000C0B2D7E7FF03000040FCFFFF00FEFFFFB8
:1040A0008A1870B5914207D27F264C78052C04D02F
:1040B0000C7809198A42F8D870BD34008D782C40EC
:1040C00064000419ED0963550C7809198A42ECD88B
:1040D000F2E7C04670B5040000690E00002803D066
:1040E0000121494200F024F925896089A288A9B2FA
:1040F00083B285422BD3CD1AADB2002D2DD0AA426A
:1041000008D291422FD3891A8BB263819A4203D885
:104110009B1A9BB29A42FBD9E28821685204520C46
:1041200053433000C918FEF7ABFA63890125591CC7
:1041300089B2A2888B4212D95200891A89B22069A9
:104140006181002801D000F0D3F8280070BD55002F
:10415000ED1A4D19ADB2002DD1D1618989B252004D
:104160009142ECDBE9E789188BB26381CEE7C04668
:10417000F8B50400C0680E00002803D001214942B0
:1041800000F0D6F8258920896189A288ADB283B272
:104190008FB2884228D3DB1B9BB29A4209D8E779B9
:1041A000FF0906D1E068002801D000F0A1F838002E
:1041B000F8BD2B00954203D39B1A9BB29342FBD2CE
:1041C000E28820685204520C53433100C018FEF7B5
:1041D00057FAA2886B1C9BB252009D4209D99B1AC8
:1041E0009BB201272381DDE75100C91B5B189BB2FD
:1041F000D3E79342F5DBF2E710B50400C06800286E
:1042000003D00121494200F093F82069002803D02F
:104210000121494200F08CF80023E068638123818A
:10422000002801D000F064F82069002801D000F0D7
:104230005FF8012010BDC04610B51920FCF744FA04
:10424000D0238022E1211B0692045A620448054BC8
:104250000022186049020123FEF716FC10BDC0467B
:1042600000400340B0170020D02380221B06920498
:10427000002801D05A6170479A61FCE710B500F040
:1042800087F801235840C0B210BDC04610B583075F
:104290000AD00300032102E001330B4205D01A7853
:1042A000002AF9D1181A10BD030019680C4A0D4CE8
:1042B0008A188A4322420FD15968094A04338A185E
:1042C0008A43224208D15968054A04338A188A432E
:1042D0002242F1D000E001331A78002AFBD1E1E755
:1042E000FFFEFEFE80808080F8B5C0460000000022
:1042F00001B40248844601BC604700BFED010020C4
:1043000001B40248844601BC604700BF610C002034
:1043100001B40248844601BC604700BF3908002050
:1043200001B40248844601BC604700BF610C002014
:1043300001B40248844601BC604700BF5D01002013
:1043400001B40248844601BC604700BFC1000020A0
:1043500001B40248844601BC604700BFD509002073
:1043600001B40248844601BC604700BF150200202A
:1043700001B40248844601BC604700BF61080020C8
:1043800001B40248844601BC604700BF7D0900209B
:1043900001B40248844601BC604700BF010C002004
:1043A000454520343033570054686520507573619B
:1043B000746572695061640034383634000000005E
:1043C0000904000009022200010100A032090400D2
:1043D000000103000000092111010001224400072F
:1043E000058103100005000005010905A1018504F0
:1043F00005010930093109320935093309341581BC
:10440000257F9506750881020501093915012508E2
:104410003500463B019501750881020509190129FE
:104420002015002501952075018102C012010002AE
:1044300000000040FECA0440000101020301000028
:104440004E6F207370696E6C6F636B732061726561
:1044500020617661696C61626C650000486172641C
:104460007761726520616C61726D20256420616CDA
:10447000726561647920636C61696D656400000038
:104480000A2A2A2A2050414E4943202A2A2A0A0071
:104490000A000000486172642061737365727400E1
:1044A00052656C6561736500626F6F74325F77325D
:1044B0003571303830000000312E352E30000000CC
:1044C0007069636F000000007069636F75736274D8
:1044D0006573740041707220313420323032330001
:1044E00006005250D3F07542A0440010060052500E
:1044F000E182887FA844001006005250BBFF3CB602
:10450000C04400100D0A0000556E68616E646C6551
:10451000642049525120307825780A0065702025A2
:10452000642025732077617320616C726561647902
:1045300020617661696C61626C65000043616E2781
:104540007420636F6E74696E75652078666572207D
:104550006F6E20696E6163746976652065702025D1
:1045600064202573000000006F757400696E000000
:104570004C2F0010E23000108E3000104C2F001035
:104580007030001058300010EC2F00109A2F0010DF
:104590008E2F0010CE330010B433001046300010C0
:1045A0004C34001046300010343400102034001019
:1045B000463000100C340010E2330010463000107A
:1045C000D0340010B4340010A8340010463000106D
:1045D000463000108A340010B43400104630001009
:1045E00046300010463000104630001046300010B3
:1045F000463000104630001066340010ED3C0010CC
:10460000013D0010153D00109D3D0010613F001060
:1046100000000000E63D00108E3E0010F03E00104D
:10462000DC3E0010E63D0010E63D0010E63D0010C7
:10463000E63D0010E63D0010323E00100E3E001038
:10464000723E00104C454400090052500000000228
:0C46500044460010080052501200000008
:10465C00E0440010EC44001088020010F8440010F4
:10466C0094020010A0020010AC020010544600107E
:04467C00484600109C
:10468000F0B5C646150000B504001E000268EFF341
:10469000108172B61368002BFCD0BFF35F8F042328
:1046A000E356002B2DDB2268BFF35F8F00201060E4
:1046B00081F31088D0221206127852B290469A42A4
:1046C00003D1002080BCB846F0BD00270BE0236872
:1046D000BFF35F8F1F6081F310882800310000F066
:1046E000ABFD0028EDD12268EFF3108172B613689C
:1046F000002BFCD0BFF35F8F23797F2BE7D9434694
:1047000002E0D0231B061B6823712368BFF35F8F71
:1047100000221A6081F310880120D3E7F0B5C64665
:1047200000B50D00040000F0A7FDFA2206000F00FE
:10473000002328000021920000F0A6FD80233618F7
:104740004F411B069F4202D30126174F7642D023CA
:104750001B061B68002598460BE02368BFF35F8F9C
:104760001D6081F310883000390000F065FD0028DD
:1047700018D12268EFF3108172B61368002BFCD0B9
:10478000BFF35F8F23797F2BE7D9434623712368DB
:10479000BFF35F8F00221A6081F31088012080BC74
:1047A000B846F0BD0020FAE7FFFFFF7F0268EFF395
:1047B000108172B61368002BFCD0BFF35F8FFF230C
:1047C00003710368BFF35F8F00221A6081F31088C2
:1047D00040BF70470022154B10B59A60DA601A612D
:1047E0005A619A61DA611A625A629A62DA621A63EB
:1047F0005A639A63DA631A645A649A64DA641A65CB
:104800005A659A65DA651A665A669A66DA661A67AA
:104810005A679A67DA67F03292000021044800F084
:1048200023FD044B044A1A6010BDC046000010501E
:10483000B41300207817002080011050F0B55746BF
:10484000DE464E464546E0B5244B87B09F6D002FAF
:1048500023D0234B0024994601239846214B01265F
:104860009A4604E001347600E4B2202C15D03E4292
:10487000F8D04B469E65434665086D00A343ED188E
:104880006D015544280000F0BBFB00280CD1013419
:10489000B743E4B27600002FE7D107B0F0BCBB46C7
:1048A000B246A946A046F0BDAB7802A89B46EB8A6B
:1048B000062200210630019300F0D6FCE023594681
:1048C00002AADB009380019B117203A801210593CA
:1048D00000F0BEFB280000F02BFBD8E700001150D1
:1048E00000301150741300209823C84AF0B5D558F1
:1048F00080232C009B02102685B01C401D427AD0DC
:10490000C34BC44C9A6AC44B00261A603B23E35C39
:10491000022B00D1DFE07B23E35C022B00D1B9E165
:10492000BB23E35C022B00D1A9E1FB23E35C022B58
:1049300000D199E13C23FF33E35C022B00D158E125
:104940007C23FF33E35C022B00D145E1BC23FF3322
:10495000E35C022B00D132E1FC23FF33E35C022B4A
:1049600000D11FE1AD4BE35C022B00D10EE1AC4B5B
:10497000E35C022B00D1FDE0AA4BE35C022B00D1EB
:10498000ECE0A94BE35C022B00D1DBE0A74BE35C3E
:10499000022B00D1CAE0A64BE35C022B00D1ABE0B6
:1049A000A44BE35C022B00D17FE1A34BE35C022B21
:1049B00000D196E1002E08D1A04B1B78002B04D12A
:1049C00080219F4A90338902D150904B0A229C6CDF
:1049D0006B460021981D00F047FCC023640501AE22
:1049E0009B00640D3380300002940121802400F08C
:1049F0002FFB944EA402EB0669D480235B021D4278
:104A000014D0012223211C43824B5A54DA70C02354
:104A10008D4ADB00019302AB03CA03C3012101A845
:104A200000F016FB8022864B92021A6580235B0100
:104A30001D4233D18023DB011D421CD180231B0288
:104A40001D4204D1AC4200D0C8E105B0F0BD1C430A
:104A50006B460A220021981D00F006FCA02301AE3F
:104A6000DB0033800121300000F0F2FA8022744B29
:104A700012011A65E6E71C436B460A220021981DC5
:104A800000F0F2FB802301AEDB0033800121300017
:104A900000F0DEFA10226A4B1A65CFE700221C43B1
:104AA0005A4B01AE1A60FFF795FE6B460A220021B1
:104AB000981D00F0D9FB80235B003380012130007A
:104AC00000F0C6FA80225E4B12031A65B2E7FFF7C8
:104AD000B5FE340091E73833E65C002E00D11AE7CA
:104AE0000233E25C002A00D115E7200000222030CA
:104AF000E25400F04FFA0EE7544BE75C002F00D170
:104B00004EE70233E25C002A00D060E1494BE35CEF
:104B1000022B00D1DBE0484BE35C022B00D054E7D2
:104B20004B4BE35C002B00D0E0E04EE7494BE75CE9
:104B3000002F00D12FE70233E25C002A00D03EE1D3
:104B40003E0028E7444BE75C002F00D11EE702330C
:104B5000E25C002A00D02AE13E0017E73F4BE75C09
:104B6000002F00D10DE70233E25C002A00D016E1ED
:104B70003E0006E73A4BE75C002F00D1FCE602332B
:104B8000E25C002A00D002E13E00F5E6354BE75C2E
:104B9000002F00D1EBE60233E25C002A00D0EEE009
:104BA0003E00E4E6F933FF33E75C002F00D1D9E69D
:104BB0000233E25C002A00D0D8E03E00D2E6B933EE
:104BC000FF33E75C002F00D1C6E60233E25C002A27
:104BD00000D0C2E03E00BFE67933FF33E75C002F30
:104BE00000D1B3E60233E25C002A00D0ACE03E0024
:104BF000ACE63933FF33E75C002F00D1A0E6023387
:104C0000E25C002A00D096E03E0099E600001150D8
:104C100000400540741300206C1300203B0200008C
:104C20007B020000BB020000FB0200003B0300000F
:104C30007B030000BB030000FB030000B91700204A
:104C40000030115010000200000010507A030000E4
:104C5000FA0300003A030000FA020000BA02000062
:104C60007A0200003A020000F833E75C002F00D11E
:104C700060E60233E25C002A55D13E005AE6B833C2
:104C8000E75C002F00D150E60233E25C002A42D1FB
:104C90003E004AE67833E75C002F00D140E602335D
:104CA000E25C002A2FD13E003AE64F4BE35C002B3A
:104CB00000D17AE6EF239B00E25C002A00D12AE7CC
:104CC0000022E2541C3BE01800F064F923E7464B55
:104CD000E35C002BEED1454BE35C022B00D074E685
:104CE0003E00434BE35C002B00D163E6FF239B00B7
:104CF000E25C002A00D168E60022E2541C3BE01886
:104D000000F048F961E6200000226030E2543E00E5
:104D100000F040F904E620000022A030E2543E00FA
:104D200000F038F901E620000022E030E2543E00B5
:104D300000F030F9FEE5200000222130FF30E2547F
:104D40003E0000F027F9FBE5200000226130FF3033
:104D5000E2543E0000F01EF9F8E520000022A130E8
:104D6000FF30E2543E0000F015F9F5E52000002286
:104D7000E130FF30E2543E0000F00CF9F2E5002291
:104D8000E2541C3BE01800F005F93E00EFE500227C
:104D9000E2541C3BE01800F0FDF83E00ECE5002278
:104DA000E2541C3BE01800F0F5F83E00E9E5002273
:104DB000E2541C3BE01800F0EDF83E00E6E500226E
:104DC000E2541C3BE01800F0E5F83E00E3E5002269
:104DD000E2541C3BE01800F0DDF897E6210005489E
:104DE000694000F031FAC046BA030000FB0300003E
:104DF000FA03000008450010084A0300126C002066
:104E0000920703D49A78D209012A00D07047D87E3D
:104E1000023843425841C0B2F8E7C0460000115082
:104E200010B5FFF7E9FF00280CD00749074B8C4667
:104E3000074A9B6A126863449B1A0020C6229A4262
:104E40004041C0B210BDC046E0FCFFFF004005403D
:104E50006C130020F8B5028B838A04000F00161C27
:104E60009A4200D91E1CE27880211500681E8541F7
:104E7000B6B2C90031436D030D4301214A409B1B6B
:104E8000E27062789BB2A382002A09D0002B02D183
:104E90008023DB011D43002F00D02D042800F8BD26
:104EA000E068BB01C0183200216900F0BDF9236938
:104EB0009B19236180231B021D43A38AE6E7C0469A
:104EC000836870B504001D68002900D02D0C63783C
:104ED000AD05AD0D002B09D1E38AEB18E382238BDE
:104EE000AB4201D90023A382280070BDE368890189
:104EF00059182A00206900F097F9E38AEB18E38239
:104F000023695B192361EAE710B504008368002177
:104F10001B68FFF7D5FF63681B685B0002D5238B16
:104F2000834200D010BD01212000FFF7C9FFF9E73F
:104F300000238376436103617047C04610B58368E0
:104F4000002901D01C682140002A11D08024E400EF
:104F5000114322420CD01A6822420BD10A4A0A405D
:104F60001A60FFE7FFE7FFE7FFE7FFE7FFE7836878
:104F7000196010BD81787F20CA09044B920001405E
:104F8000D258034800F060F9FFFBFFFF980D0020A6
:104F90001C450010436870B5002180251E68040080
:104FA000FFF758FF134B6D011B6C05439B070FD593
:104FB000A3785B060FD0104B1E4080239B05334324
:104FC00062680021136020002A00FFF7B7FF70BD60
:104FD000A378DB09EFD0A38A002BECD001212000BD
:104FE000FFF738FFA023054ADB0532400543134392
:104FF000E6E7C04600001150FFFFFFAFFFFFFFDFF5
:1050000070B5857E0400002D14D0FFF77DFFA38AC4
:10501000002B01D1280070BD2000FFF701FF002800
:1050200003D0012300252377F4E72000FFF7B2FF28
:105030000025EFE781787F20CA09034B92000140E9
:10504000D258024800F000F9980D00203C450010AD
:10505000F0B54378050085B0042B00D175E046D843
:10506000022B00D183E0032B55D1504E504A00242F
:105070003378002A00D192E04E4F03E00134E4B2CD
:105080009C4213D8A342F9D9620039681219D200A0
:105090008A18002AF2D05269002AEFD0696828786D
:1050A000904701343378E4B29C42EBD9424B1A78F2
:1050B000520748D504211A788A431A706B460A228F
:1050C0000021981D00F0D0F86A462B781371052353
:1050D00053713A4B1C686269EFF3108172B6136822
:1050E000002BFCD0BFF35F8FA16101A920E0052B4D
:1050F00011D1314B1A78D20725D504211A788A4369
:105100001A702E4B1C686269EFF3108172B6136837
:10511000002B09D1FBE7294B1C686269EFF3108172
:1051200072B61368002BFCD0BFF35F8FA16129001A
:10513000200000F091F86269A369BFF35F8F00213E
:10514000116083F3108805B0F0BD1B4B1A78D207AD
:10515000F9D504211A780A431A70184B1C68626941
:10516000EFF3108172B61368002BDDD1FBE701204D
:10517000114A1178814311701178994300231170FD
:105180000421537013788B4313700C4B1C686269B5
:10519000EFF3108172B61368002BC5D1FBE7002234
:1051A0000132D2B29A42FBD980E7C046B81700203C
:1051B0000000000024110020F011002048120020FF
:1051C00082B0EFF3108172B6134B1A6880239B01F3
:1051D0005340C02292011340104A13600023FA2268
:1051E0000193019B9200934205DA019B01330193E5
:1051F000019B9342F9DBD023C0221B069868064B23
:1052000092011B681340054A136081F310888007E0
:10521000C00F02B07047C0460C8001400C900140A6
:105220007047C0460000000001B40248844601BC3B
:10523000604700BF8126001001B40248844601BCCB
:10524000604700BF4913001001B40248844601BC06
:10525000604700BF7D1F001001B40248844601BCB6
:10526000604700BF7141001001B40248844601BC90
:10527000604700BF7526001001B40248844601BC97
:10528000604700BF9514001001B40248844601BC79
:10529000604700BFA1250010FA000000C0430010C5
:1052A000A0430010A8430010B843001010000000F5
:1052B00000000000000001000000000000000000ED
:1052C00000000200000000000000000000000300D9
:1052D00000000000000000000000FF0000000000CF
:1052E00001B5486801318E460047704609380149CA
:1052F000884701BD8D0C0010500D002000000000FB
:10530000080E00202813002000000000000000000C
:105310003813002000000000000000001000000012
:10532000503300004C33000054330000523300006F
:105330004D5300004D43000053340000433400003F
:10534000F1280010000000003D290010FD29001088
:105350000000000000010000684500106C450010CE
:105360004C12002010000C000000000000000000A3
:10537000000000000000000000000000FF0000002E
:10538000000000000000000065260010F91F00105A
:0C539000DD240010D525001031030010B2
:04000005100001E9FD
:00000001FF
